:020000040800F2
:100000006006002049010008AB2C0008CD2800083C
:10001000A92C0008710A00081D3D0008000000001E
:10002000000000000000000000000000493400084B
:10003000030B0008000000002D2D00084B340008C1
:100040006301000863010008630100086301000800
:1000500063010008630100086301000863010008F0
:1000600063010008630100086301000863010008E0
:1000700063010008630100086301000863010008D0
:1000800063010008630100082109000863010008FA
:100090006301000863010008630100082B0B0008DE
:1000A00063010008630100086301000863010008A0
:1000B0006301000863010008630100086301000890
:1000C0006301000863010008630100086301000880
:1000D000630100086301000863010008113D000886
:1000E000050B0008630100086301000863010008B4
:1000F0006301000863010008630100086301000850
:10010000630100086301000863010008630100083F
:10011000630100086301000863010008630100082F
:10012000630100086301000863010008630100081F
:10013000DFF810D000F064FB00480047514600088B
:10014000AFF300806006002006488047064800475D
:10015000FEE7FEE7FEE7FEE7FEE7FEE7FEE7FEE777
:10016000FEE7FEE7C934000831010008202A04DB5D
:10017000203A21FA02F00021704721FA02F3D04020
:10018000C2F120029140084319467047D2B201E003
:1001900000F8012B491EFBD270470022F6E710B58C
:1001A00013460A4604461946FFF7F0FF204610BDE5
:1001B000421C10F8011B0029FBD1801A7047F0B4D3
:1001C00080EA0102D40F4200B2EB410F02D2024694
:1001D000084611464A0042D0C30DDDB2C1F3C752F2
:1001E000AD1A202D35DAC1F3160141F4000204B135
:1001F0005242C5F1200602FA06F12A411044B3EB3F
:10020000D05F23D0C4B1012DA0EBC35009DCF0BCFA
:100210004FF0004202EAC352DBB200F5000000F0EA
:1002200009B9400000F1807000EBC350A0F180706C
:1002300040EAD170490009E0490841EAC071A0EBE9
:10024000C35000F50000400800EBC350F0BC00F0C4
:10025000E8B86142012202EB4101001BF6E7F0BC65
:10026000704781F00041AAE780F00040A7E780EAEC
:10027000010210B502F00043400022D04A001FD016
:10028000010E01EB1261C0F35600C2F3560240F4B6
:10029000000042F40002A0FB022000047F39140495
:1002A00000D0401C50EA124001D44000491EC2B2A6
:1002B0000C0604EBD010401C4008802A02D003E05A
:1002C000002010BD20F00100002900DA00201843B2
:1002D00010BD30B480EA010202F0004530F0004267
:1002E00021F0004013D090B1C30DD40DC2F316011C
:1002F000C0F31600E41A41F4000140F400027D341A
:10030000914201D3641C00E04900002C02DA30BCA9
:10031000002070474FF400000023914201D3891A56
:10032000034340084FEA4101F7D151B1914202D154
:100330004FF0004105E002D24FF0010101E06FF003
:10034000010103EBC450284430BC00F06AB8962386
:100350000022114600F06EB800F0004230F000407C
:100360000AD0C10D01F56071C0F3160042EA0151D7
:10037000C208400711437047002001467047000043
:10038000002801DBC0F10040002901DBC1F1004180
:100390008842704730B50B460146002020220124D8
:1003A00009E021FA02F59D4205D303FA02F5491B43
:1003B00004FA02F52844151EA2F10102F1DC30BD59
:1003C0002DE9F05F0546002092469B46884606468A
:1003D000814640241BE02846414647462246FFF717
:1003E000C5FE53465A46C01A914110D311461846CD
:1003F000224600F017FA2D1A67EB01084F462246F5
:100400000120002100F00EFA17EB00094E41201EDA
:10041000A4F10104DFDC484631462A464346BDE8E4
:10042000F09F0029A8BF7047401C490008BF20F07A
:100430000100704710B4B0FA80FC00FA0CF050EAEA
:10044000010404BF10BC704749B1CCF1200421FA6B
:1004500004F411FA0CF118BF012121430843A3EB66
:100460000C01CB1D4FEA00614FEA102042BF002073
:1004700010BC704700EBC35010440029A4BF10BC4F
:100480007047401C490008BF20F0010010BC7047B5
:100490002DE9FE4F804681EA0300C00F0C46009014
:1004A00021F0004123F00045B8EB0200A94105D23C
:1004B0004046214690461C460B46024623F000402B
:1004C000104347D0270DC7F30A00C3F30A51029027
:1004D000401A019040286BDAC3F3130040F4801BEC
:1004E0000098924620B10023D2EB030A63EB0B0B7A
:1004F00001985946C0F14002504600F093F9064673
:100500000D4650465946019A00F09BF910EB080041
:100510006141002487EA115284EAE7731A4340D00C
:10052000009A62B3019A012A4FEA075215DC001BB8
:1005300061EB02014FF0004202EA0752CDE90042AE
:10054000001C41F5801132462B4600F09BF903B0A8
:10055000BDE8F08F40462146F9E7001B61EB020140
:10056000001C41F5801300185B412018A2F500170C
:1005700047EB030140EAD570B6196D4111E06D08F3
:100580004FEA360645EAC0754FEA0752001B61EB99
:100590000201001C41F5801149084FEA30000019A2
:1005A000514132462B4603B0BDE8F04F00F05BB935
:1005B0000098012240000023D0EB020263EBE073BD
:1005C000009821464FEAE074B8EB000061EB0401AB
:1005D000E9E783F000435BE781F0004158E72DE94C
:1005E000FE4F81EA030404F0004421F0004100942E
:1005F0004FF0000B23F0004350EA01045ED052EAB2
:1006000003045BD0C3F30A54C1F30A552C44A4F28B
:10061000F3340194A0FB0254C1F3130141F480119F
:10062000C3F3130343F4801301FB024400FB034EA6
:10063000840A970A44EA815447EA8357A4FB07686F
:1006400002958D0A05FB07854FEA932C04FB0C5499
:100650002705029D4FEA065847EA1637B5EB08050D
:100660006EEB070C870E920E47EA811742EA83125F
:10067000A7FB0201B6EB0B0164EB00042B0D43EA70
:100680000C335E1844EB1C50DA465146E7FB02017E
:10069000C5F313044FEA0B3343EA14534FEA043211
:1006A000019C43EA0603A4F10C040294009CCDE9EA
:1006B00000B400F0E7F803B0BDE8F08F0020014679
:1006C000F9E72DE9F04D81EA030404F0004B21F035
:1006D000004514464FF0000A23F0004150EA05029D
:1006E00020D054EA01021DD0C5F30A570246C5F3D3
:1006F0001303C1F31300C1F30A5640F4801543F409
:100700008013A7EB0608101BD64608F2FD3873EBE2
:10071000050002D308F1010801E092185B41B8F12D
:10072000000F03DA00200146BDE8F08D00204FF4F1
:100730008011064684460EE0171B73EB050705D3B0
:10074000121B63EB050306434CEA010C49084FEA10
:10075000300092185B4150EA0107EDD152EA0300E4
:1007600012D082EA040083EA0501084305D0101B79
:10077000AB4106D20122002306E000224FF00043E5
:1007800002E06FF0010253101AEB06004CEB085127
:1007900010EB0A0041EB0B01BDE8F04D00F063B82F
:1007A000C1F30A52C1F3130140F2FF3341F4801147
:1007B0009A4202DA00200146704740F233439A42DF
:1007C000A2F2334202DC5242FFF7D0BC00F02AB85A
:1007D00030B5041E71F1000404DB4FF000444042C8
:1007E00064EB0101141E73F1000405DB1C464FF09D
:1007F0000043524263EB0403994208BF904230BD6C
:10080000064C074D06E0E06840F0010394E807005D
:1008100098471034AC42F6D3FFF78EFC54500008D2
:1008200074500008202A04DB203A00FA02F100206C
:1008300070479140C2F1200320FA03F3194390401E
:100840007047202A06DBCB17203A41FA02F043EA30
:10085000E07306E041FA02F3D040C2F12002914079
:1008600008431946704710B5141E73F1000408DAE6
:10087000401C41F1000192185B411A4301D120F064
:10088000010010BD2DE9F04D92469B4611B1B1FA21
:1008900081F202E0B0FA80F220329046FFF7C2FF08
:1008A00004460F4640EA0A0041EA0B0153465A4605
:1008B000084313D0114653EA010019D0C8F1400291
:1008C0005046FFF753FC05460E46504659464246F1
:1008D000FFF7A8FF084305D0012004E02046394671
:1008E000BDE8F08D0020054346EAE0762C4337430F
:1008F0000A986305E40AA0EB08000022FD0A44EA16
:1009000047540A3002D500200146E9E701051019D5
:100910006941DDE9084500196941BDE8F04DA2E7EC
:10092000014800F04EBA00006800002070B504468F
:1009300000688168C943C90717D1816821F00101A6
:10094000816000F079FE05460AE000BF00F074FE09
:10095000401B022804D920688068C043C00706D025
:1009600020688068C043C007F0D0002070BDA06A36
:1009700040F01000A062E06A40F00100E062012057
:1009800070BD10B50146406A826A12F0500F05D062
:10099000006A026BBDE8104008461047816A41F4C6
:1009A0000071816201688968C1F3424107290CD155
:1009B000017B51B9816A21F480718162816AC90425
:1009C00003D4816A41F00101816200F0F7F910BDA2
:1009D00010B5406A816A41F040018162C16A41F00C
:1009E0000401C16200F0ECF910BD10B5406A00F0DE
:1009F000E6F910BDF8B50026044600960068816847
:100A0000C943C9072DD0816841F0010181601648B2
:100A100016490068B0FBF1F000E0401E009000288D
:100A2000FBD100F009FE054616E000BF00F004FE11
:100A3000401B022810D920688068C043C0070BD033
:100A4000A06A40F01000A062E06A40F00100E0629D
:100A500084F824600120F8BD20688068C043C00786
:100A6000E4D10020F8BD00002400002040420F0027
:100A7000FEE7000070B50546B0F5000F01DA074843
:100A800070BD0749FFF7F0FB044606492846FFF70B
:100A9000EEFB2146BDE87040FFF71BBC0024744903
:100AA00033335340000020410FB400B5C1B043AA16
:100AB0006846429903F044F96846FFF779FB82B231
:100AC0004FF6FF736946034801F0AFFE41B05DF891
:100AD00014FB00001802002030B590F840500124AB
:100AE000AC40C56B6C60046863604368102B03689E
:100AF00003D099600068C26030BD9A600068C16030
:100B000030BD704710B54FF4805000F083FC4FF4B7
:100B1000005000F07FFC4FF4804000F07BFCBDE80B
:100B200010404FF4004000F075BC10B5202000F0DC
:100B300071FC4FF4807000F06DFCBDE810404FF484
:100B4000007000F067BC72B6FEE70000102101489B
:100B500000F068BD001001400221014800F062BDB4
:100B6000000C01404FF40071014800F05BBD000033
:100B7000000C01402021014800F054BD001001404C
:100B80004FF48061014800F04DBD0000000C0140B1
:100B90004FF48071014800F045BD0000000C014099
:100BA0000121014800F03EBD000C01404FF40061FE
:100BB000014800F037BD0000000C01404FF4004137
:100BC000014800F02FBD0000000801404FF4807183
:100BD000014800F027BD0000000801404FF40071FB
:100BE000014800F01FBD0000001001404FF480716B
:100BF000014800F017BD000000100140024602212C
:100C0000014800F014BD000000100140024601211F
:100C1000014800F00CBD0000001001400246082110
:100C2000014800F004BD00000008014002464FF4F6
:100C30008051014800F0FBBC000C01400246082135
:100C4000014800F0F4BC00000010014002460421FD
:100C5000014800F0ECBC00000010014002462021D9
:100C6000014800F0E4BC00000008014002461021E9
:100C7000014800F0DCBC00000008014002464021B1
:100C8000014800F0D4BC0000001001400246802161
:100C9000014800F0CCBC0000001001400246802159
:100CA000014800F0C4BC00000008014002460421D5
:100CB000014800F0BCBC0000001401407047000077
:100CC000F8B50024009490F824202546012A12D07B
:100CD000012280F824204A681F23072A0DD20668C3
:100CE000776B521E02EB820293409F430B68934046
:100CF0001F43776319E00220F8BD06680D2A0AD267
:100D0000376BD21F02EB820293409F430B689340E4
:100D10001F43376309E0F76A0D3A02EB8202934002
:100D20009F430B6893401F43F7620A6807230668D6
:100D30000A2A0AD3F7680A3A02EB420293409F4319
:100D40008B6893401F43F76008E0376902EB42026B
:100D500093409F438B6893401F4337610A68102A72
:100D600001D0112A20D1124B02689A4217D1936800
:100D70001B0219D4936843F4000393600968102997
:100D800012D10C490C4A0968B1FBF2F101EB810167
:100D9000490000E0491E00910029FBD104E0816A6E
:100DA00041F020018162012480F824502046F8BDE2
:100DB000002401402400002040420F00704770478B
:100DC000704770B50446006806684568A90625D5D1
:100DD000B10723D5A16AC90603D4A16A41F4007101
:100DE000A1628168C1F34241072910D1217B71B909
:100DF000416821F020014160A06A20F48070A06267
:100E0000A06AC00403D4A06A40F00100A06220469A
:100E1000FFF7D4FF21686FF01200086028062ED576
:100E200070072CD5A06AC00603D4A06A40F4005015
:100E3000A06220688168C1F30231072909D04168A6
:100E4000490515D48168C1F34241072910D1217B9E
:100E500071B9416821F080014160A06A20F480509E
:100E6000A062A06AC00503D4A06A40F00100A0629D
:100E70002046FFF723FF21686FF00C00086068062A
:100E80000CD5F0070AD0A06A40F48030A06220465A
:100E900000F096F821686FF00100086070BD000056
:100EA0002DE9F04104004FF000057FD0A06A002634
:100EB00028B9E66284F82460204600F083F82046D2
:100EC000FFF734FDA16AC90600D420B1A06A40F042
:100ED0001000A0626AE0A16A21F4885141F0020189
:100EE000A162334923688B42E16904D1B1F5402FF7
:100EF00001D14FF40021277B4FF4807C41EA470267
:100F000061680A43A168614508D0012906D0002123
:100F100094F814E0BEF1010F02D00AE06146F7E751
:100F2000C7B1A76A47F02007A762E76A47F0010741
:100F3000E7625F6827F469470F435F602368996839
:100F40001C4F394011439960A16861450BD00129BC
:100F500009D00CE0DFF860E0A7690EEB47370F43DC
:100F600047F40061E5E7218A0D05A5F580152168A4
:100F7000CB6A23F470032B43CB62216889680F4B43
:100F80001940914208D1E662A16A21F0020141F0C4
:100F90000101A162BDE8F081A06A20F0020040F0EA
:100FA0001000A062E06A40F00100E0620120F1E779
:100FB000003C0140FDF7E1FF00E0FFFFFE0E1FFFD8
:100FC0007047000070B586B0002506460095019573
:100FD0000295039500681E49884236D11D498869EB
:100FE00040F400708861886900F40070049088699A
:100FF00040F0040088618869694600F004000490AC
:101000000720009003200190134800F00FFA144CC1
:101010001248C4E900058020C4E902504000206164
:10102000800060612020C4E90605204600F05CF9DC
:1010300008B1FFF788FD34620022052112206662A4
:1010400000F058FC122000F047FC06B070BD000014
:101050000024014000100240000801400800024046
:10106000980000202DE9F047894604463B49006876
:101070003B4F0E1D9046884201D0B84207D13068E0
:1010800010F4702F03D001252846BDE8F08794F8AE
:10109000240001280CD0012084F824002046FFF70A
:1010A000A9FC05004FF0000004D084F82400EBE711
:1010B0000220EAE7A16A40F60162914341F480719F
:1010C000A1622168B94218D1326812F4702F14D08D
:1010D000A16A41F48011A1623168490505D5A16A70
:1010E00021F4005141F48051A162A16AC9040AD5DA
:1010F000E16A21F00601E16206E0A26A22F48012B0
:10110000A2624968E9E7E06284F82400216A154890
:101110008862216A1448C862216A144808632168F9
:101120006FF0020008602068816841F4807181607E
:10113000216843464A464C31206A00F013F9206882
:101140008168C1F342410729816803D041F48011CD
:10115000816099E741F4A001FAE700000024014012
:101160000028014083090008EB090008D1090008A4
:1011700010B590F821100022022905D004218163C6
:1011800080F82020012010BD01680B6823F00E03B9
:101190000B6001680B6823F001030B6090F840308E
:1011A000C46B012101FA03F3636080F8211080F819
:1011B0002020104610BD00002DE9F05F90F82110AE
:1011C0000024022903D004218163012485E0016801
:1011D0000A6822F00E020A6001680A6822F0010221
:1011E0000A603F4E3E4FB215DFF8F4C0DFF8F090D2
:1011F000DFF8ECA0DFF8E8B0DFF8E4E00168783F62
:1012000013011502ACF1640CA9F15009AAF13C0AD2
:10121000ABF1280BAEF1140E4FF48018B14227D970
:10122000B9420ED0614512D049451DD0514518D064
:10123000594518D0714501D1424615E0294EB142B9
:1012400001D1012210E0274E1436B14201D1102203
:101250000AE0244E2836B14206D0224A3C3291425E
:1012600001D11A4600E02A461E49091F0A602BE0F8
:10127000B94213D0614517D0494522D051451DD000
:1012800059451DD0714501D142461AE0B14202D103
:101290004FF0807215E0134EB14201D1012210E0EF
:1012A000104E1436B14201D110220AE00D4E2836FC
:1012B000B14206D00B4A3C32914201D11A4600E0BD
:1012C0002A46074980394A60012180F8211000210F
:1012D00080F82010416B01B188472046BDE8F09F9F
:1012E000800002400804024030B560B11A4B026829
:1012F00014219A4209D2194B1344B3FBF1F189002E
:10130000016417490AE0012030BD134B5B421344CE
:10131000B3FBF1F1890001640F490839C16302216F
:1013200080F82110136843F6F0718B43F0E9011443
:101330002143D0E902452C432143046921434469F8
:101340002143846921431943116000214163012233
:1013500042770177084630BD08040240F8FFFDBF20
:101360000000024070B5044690F8200000250128D6
:101370000CD0012084F8200094F821600020012E78
:1013800006D084F820000225284670BD022070BDDA
:10139000022684F82160A0632068066826F0010612
:1013A00006602046FFF798FBE06A00282068016885
:1013B00002D041F00E0106E021F004010160206836
:1013C000016841F00A0101602068016841F00101F3
:1013D0000160D9E770B5044600F02EF90546601C9F
:1013E00002D004480078044400F026F9401BA042D3
:1013F000FAD370BD18000020B0F5007F06DDB0F50F
:10140000805F03D102480168491C016070470000F9
:1014100008000020044910B50A68024202D00860A2
:10142000FFF7EAFF10BD0000140401402DE9F84F5A
:10143000DFF8C8910024A9F1040B23460F2709F116
:10144000040AABF1040ED1E00125A54006EA05022D
:10145000AA4276D1DFF8A8C14E68A6EB0C08664513
:101460002BD00DDC032E34D005DC36B3012E19D081
:10147000022E2FD11BE0112E16D0122E2AD119E0E8
:10148000B8F5881F19D006DCB8F5803F15D0B8F53F
:10149000801F1FD111E0B8F5001F0ED0B8F5041F52
:1014A00018D10AE0CB6815E0CB681B1D12E0CB68B1
:1014B00008330FE0CB680C330CE08B682BB1012BA9
:1014C0004FF0080303D0456104E0042302E0056106
:1014D00000E00023FF2A01D8064601E000F10406DF
:1014E0004FEA840501D9A5F12005D6F8008007FA56
:1014F00005FC28EA0C0803FA05F548EA0508C6F8D1
:1015000000804D68ED0070D53E4DAE6946F0010695
:10151000AE61AD6924F0030605F0010500953A4D72
:1015200006EB050CDCF80850A607360F07FA06F89C
:1015300025EA0805DFF8D480404503D14FF00008C4
:1015400025E052E0DFF8C880404502D14FF00108A5
:101550001DE0DFF8C080404502D14FF0020816E0E0
:10156000DFF8B480404502D14FF003080FE0DFF808
:10157000AC80404502D14FF0040808E0DFF8A080BD
:10158000404502D14FF0050801E04FF0060808FA87
:1015900006F848EA0508CCF808804D68D9F80060DC
:1015A000ED024D4601D5164300E096432E604D688E
:1015B000DAF80060AD02554601D5164300E09643C7
:1015C0002E604D68DBF80060AD035D4601D5164323
:1015D00000E096432E604D68DEF80060ED0375462E
:1015E00001D5164300E096432E60641C0A68164637
:1015F000E2407FF429AFBDE8F88F00000804014005
:1016000000001110001002400000014000080140DD
:10161000000C01400010014000140140001801407E
:10162000001C01408068084000D0012070470AB1CA
:10163000016170470904FBE70148806870470000BA
:101640001800002070B5040025D094F83D00002556
:1016500020B984F83C50204600F0B8F8242084F8E3
:101660003D002068016821F00101016020680168E7
:1016700041F4004101602068016821F400410160EB
:1016800000F076FA4D4A6168914201D84C4900E079
:101690004C49884201D2012070BD4B492368B0FB00
:1016A000F1F15E6826F03F060E435E606368934288
:1016B00006D94FF4967359434FF47A73B1FBF3F1A3
:1016C0002368491C1E6A26F03F063143196261688F
:1016D000914210D84900401EB0FBF1F2521CC2F3F7
:1016E0000B02042A01D2042022E0B0FBF1F0401CDE
:1016F000C0F30B001CE0A268F2B301EBC10303EBE3
:101700000116431EB3FBF6F35B1C43F480431B0539
:1017100049D092B301EBC10202EB0111401EB0FBB4
:10172000F1F0401CC0F30B0040F4804040F4004056
:101730002168CA694CF6FF739A431043C861D4E923
:10174000071001432068026822F0C00211430160C3
:10175000D4E9030101432068826848F2FF339A43C9
:1017600011438160D4E9050108432168CA6822F069
:10177000FF021043C86001E00EE016E02068016837
:1017800041F0010101602564202084F83D002563BB
:1017900084F83E50002070BD01EB4106431EB3FBB0
:1017A000F6F35B1CB3E70120C2E701EB4101401EE9
:1017B000B0FBF1F0401CC0F30B00B7E7A0860100BE
:1017C00080841E0000093D0040420F0010B586B025
:1017D0000021009101910291039100680F49884214
:1017E0001AD10F4CA06940F00800A061A0696946B9
:1017F00000F008000490C020009012200190032007
:1018000003900848FFF712FEE06940F40010E06121
:10181000E06900F40010049006B010BD00540040D0
:1018200000100240000C0140024881680278114417
:101830008160704718000020074810B5016841F02A
:1018400010010160032000F075F80F2000F006F889
:1018500000F024F8002010BD0020024070B50D4DAE
:1018600004464FF47A712878B1FBF0F00A49096810
:10187000B1FBF0F000F0E6FB48B9102C07D20022D3
:101880002146501E00F036F800206C6070BD01202B
:1018900070BD000018000020240000200C4808B58E
:1018A000816941F001018161816901F001010091CB
:1018B000C16941F08051C161C06900F08050009061
:1018C0000448416821F0E06141F00071416008BDC9
:1018D0000010024000000140002809DB00F01F0258
:1018E000012191404009800000F1E020C0F8001182
:1018F00070470000F0B40E4B1B680C46C3F3022384
:10190000C3F10705042D00D90425191D072901D2AB
:10191000002300E0DB1E012606FA05F1491E2140E6
:1019200099409E40761E16403143F0BC02F01ABA30
:101930000CED00E0064900F0070208684FF6FF03CF
:10194000184040EA0220034A104308607047000034
:101950000CED00E00000FA052DE9F843054600789B
:10196000354CC00754D0E0690026C00008D4E069B7
:1019700040F08050E061E069012600F08050009066
:101980002E480168C90512D40168804641F480716F
:101990000160FFF751FE074605E000BFFFF74CFE70
:1019A000C01B642823D8D8F80000C005F6D5206AEB
:1019B00010F4407021D0A98801F4407181421CD0FC
:1019C000206A1F49012220F440700A6000220A6048
:1019D0002062C00711D0FFF72FFE074641F288387A
:1019E00008E000BFFFF728FEC11B414502D90320D4
:1019F000BDE8F883206A8007F4D5206A696820F47E
:101A00004070084320621EB1E06920F08050E06120
:101A10002878800705D56068A96820F4404008430D
:101A200060602878C00605D56068696920F4800088
:101A3000084360600020DBE70010024000700040B7
:101A4000400442422DE9F0470F46050061D0434E65
:101A5000306800F00700B84209D2306820F0070073
:101A600038433060306800F00700B84251D1286830
:101A70003B4C810712D5400703D5606840F4E06015
:101A800060602878000703D5606840F460506060AB
:101A90006068A96820F0F000084360602878C007FB
:101AA00028D06868012810D02168022810D0890742
:101AB00000292EDA616821F0030101436160FFF71C
:101AC000BBFD804641F288390DE021688903EFE7CC
:101AD0008901EDE7FFF7B0FDA0EB0801494502D908
:101AE0000320BDE8F0876068696800F00C00B0EB87
:101AF000810FEFD1306800F00700B8420BD9306891
:101B000020F0070038433060306800F00700B8422A
:101B100001D00120E5E72878400705D56068E9682D
:101B200020F4E060084360602878000706D560680C
:101B3000296920F4605040EAC100606000F038F884
:101B40006168084AC1F30311515CC8400649086046
:101B500006480068FFF782FE0020C2E7002002402E
:101B600000100240964F0008240000201C000020B6
:101B70000448054900684968044AC1F30221515CE0
:101B8000C84070472400002000100240A64F000803
:101B90000448054900684968044AC1F3C221515C00
:101BA000C84070472400002000100240A64F0008E3
:101BB0000E4A51680E4801F00C03042B11D0082B7B
:101BC0000FD10C48C1F38343C903C05C0AD55168E7
:101BD000084AC1F34041921E515C054A5043B0FB94
:101BE000F1F070470449484370470000001002407C
:101BF00000127A00864F000800093D002DE9F84FD9
:101C0000040070D02078C04DC00749D06868C0F388
:101C10008100012807D06868C0F38100022809D13B
:101C20006868C00306D52868800339D56068002835
:101C3000E7D035E06068B0F5803F0BD010B1B0F56B
:101C4000A02F11D0286820F480302860286820F464
:101C5000802002E0286840F480302860606890B1FD
:101C6000FFF7EAFC06460AE0286840F48020286076
:101C7000F0E700BFFFF7E0FC801B642873D82868FA
:101C80008003F7D50CE0FFF7D7FC064605E000BF60
:101C9000FFF7D2FC801B6428F0D828688003F7D4B3
:101CA00020789A4E80074FF001094FF0000839D58F
:101CB000686810F00C0F07D06868C0F38100022834
:101CC00009D16868C00306D42868800714D5206944
:101CD000012808D110E02069B0B1C6F80090FFF7E4
:101CE000ABFC074605E00AE1FFF7A6FCC01B022893
:101CF000C4D828688007F7D52868616920F0F80003
:101D000040EAC10028600DE0C6F80080FFF794FCAF
:101D1000074604E0FFF790FCC01B022823D8286880
:101D20008007F7D4207800072CD57948A169D9B16C
:101D3000C0F80090FFF780FC074604E0FFF77CFC4A
:101D4000C01B02280FD8686A8007F7D571484FF486
:101D5000FA510068B0FBF1F0009000BF0098411EFE
:101D60000091FAD20EE080E0C0F80080FFF764FC3A
:101D7000074604E0FFF760FCC01B022875D8686ABC
:101D80008007F7D42078400760D5E8690027C000B5
:101D900008D4E86940F08050E861E869012700F064
:101DA000805000905C480168C90513D401688346DF
:101DB00041F480710160FFF73FFC824606E000BFFE
:101DC000FFF73AFCA0EB0A0064284ED8DBF80000CD
:101DD000C005F5D5E06801280AD008B1052813D060
:101DE000286A20F001002862286A20F0040002E03E
:101DF000286A40F001002862E06841F2883B98B10F
:101E0000FFF71AFC82460BE0286A40F004002862C3
:101E1000EEE700BFFFF710FCA0EB0A0159455AD8C6
:101E2000286A8007F6D50CE0FFF706FC824605E03D
:101E3000FFF702FCA0EB0A0159454CD8286A80073D
:101E4000F6D41FB1E86920F08050E861E06988B3FA
:101E50006968C1F38101022944D00228C6F8608074
:101E600004D0FFF7E9FB044638E034E0FFF7E4FB79
:101E7000074604E0FFF7E0FBC01B02282BD82868C8
:101E80008001F7D4206AB0F5803F05D16868A16869
:101E900020F4003008436860D4E908010843696809
:101EA00021F4741108436860C6F86090FFF7C4FB22
:101EB000044606E025E000BFFFF7BEFB001B02283A
:101EC00009D828688001F7D51BE000BFFFF7B4FBF5
:101ED000001B022802D90320BDE8F88F2868800182
:101EE000F4D40EE00128F7D06868226A00F480314B
:101EF000914204D1616A00F47010884201D001203F
:101F0000EAE70020E8E7000000100240000042423B
:101F100080044242240000200070004070B504009C
:101F200009D0606A002540B125616561A56294F819
:101F3000510040B10CE0012070BD6068B0F5827FB7
:101F4000F4D0E561F2E784F85050204600F040F804
:101F5000022084F851002068016821F040010160EE
:101F6000A088218900F4827001F404410843A1890A
:101F700001F400610843217C01F002010843217D46
:101F800001F001010843218B01F400710843217F16
:101F900001F03801084394F8201001F08001084353
:101FA000218D01F40051084321680860A0690421D3
:101FB00001EA1040216848602068C16921F400618D
:101FC000C1616565012084F85100002070BD0000EA
:101FD00030B585B000240094019402940394006805
:101FE0001549884225D11548C16941F48041C16134
:101FF000C16901F480410491816941F00801816166
:1020000080690F4D00F0080004904FF420400090CC
:10201000022001900320039069462846FFF706FA44
:102020004FF48040CDE90004694628460294FFF74A
:10203000FDF905B030BD000000380040001002403E
:10204000000C014010B5401EB0F1807F01D301208B
:1020500010BD4FF0E02460610F21601701F082FE97
:102060000020A06107202061002010BD70B590F80D
:102070003C20012A2CD0012480F83C40022280F828
:102080003D2003685A689D6822F070060A68324352
:102090005A60104B02689A420ED00F4B9A420BD0F6
:1020A000B2F1804F08D00D4B9A4205D00C4B9A42AA
:1020B00002D00C4B9A4204D1496825F080031943A1
:1020C000916080F83D40002180F83C10084670BDCA
:1020D000022070BD002C014000340140000400408B
:1020E00000080040000C004010B5040003D094F834
:1020F0003D0010B107E0012010BD002084F83C0035
:10210000204600F01FF8022084F83D00211D2068C1
:1021100001F0DCF9012084F8460084F83E0084F8E0
:102120003F0084F8400084F8410084F8420084F8BD
:10213000430084F8440084F8450084F83D00002002
:1021400010BD000008B500680649884208D106485D
:10215000C16941F00201C161C06900F00200009054
:1021600008BD0000000400400010024070B50446A5
:1021700090F83C000025012817D0012684F83C6027
:10218000022084F83D002068826822F0770222F461
:102190007F4282600868502838D00DDC20284FD05C
:1021A00005DC90B3102811D14AE0022070BD302820
:1021B00046D040280AD13BE060282FD070280DD0AF
:1021C000B0F5805F03D0B0F5005F12D0012584F830
:1021D0003D60002084F83C00284670BDCB68D1E902
:1021E0000121206801F0CDF92068816841F0770174
:1021F00009E0CB68D1E90121206801F0C2F920682B
:10220000816841F480418160E1E719E0CA6849686A
:10221000206801F08BFA5021206806E0CA684968FE
:10222000206801F094FA6021206801F0B4F9CEE74B
:10223000CA684968206801F079FA40212068F4E70B
:10224000226801461046F0E700B585B000210091F4
:1022500001910291039100680B49884211D10B480A
:10226000816941F0040181618069694600F00400E0
:102270000490402000900220019003900448FFF752
:10228000D5F805B000BD0000000400400010024079
:102290000008014070B5044690F83C0000260D4649
:1022A00001280FD0012084F83C006AB1042A1DD017
:1022B000082A2FD00C2A3FD00126002084F83C00A9
:1022C000304670BD022070BD206801F06DF92068B5
:1022D000816941F0080181612068816921F0040170
:1022E0008161206881692A69114311E0206801F049
:1022F0008BF92068816941F40061816120688169FE
:1023000021F480618161206881692A6941EA0221A2
:102310008161D2E7206801F0ADF92068C16941F020
:102320000801C1612068C16921F00401C161206810
:10233000C1692A69114311E0206801F0CFF92068D2
:10234000C16941F40061C1612068C16921F4806103
:10235000C1612068C1692A6941EA0221C161ACE713
:1023600010B5040003D094F83D0010B107E001203F
:1023700010BD002084F83C00204600F01EF802202A
:1023800084F83D00211D206801F0A0F8012084F8A8
:10239000460084F83E0084F83F0084F8400084F84A
:1023A000410084F8420084F8430084F8440084F833
:1023B000450084F83D00002010BD704710B504466C
:1023C000022249B104290ED0082913D094F8410003
:1023D000012816D0012010BD94F83E000128F9D143
:1023E00084F83E200FE094F83F000128F2D184F8F1
:1023F0003F2008E094F840000128EBD184F8402009
:1024000001E084F841200122206801F0ADF8134971
:102410002068134A884201D0904203D1436C43F4B0
:1024200000434364206888420DD090420BD0B0F145
:10243000804F08D00B49884205D00B49884202D012
:102440000A49884204D1816801F00701062903D0B6
:10245000016841F001010160002010BD002C014025
:10246000003401400004004000080040000C00401F
:1024700070477047F8B5016804460868CA684B6938
:1024800010F00F0F4FF0000559D003F0010602F4D1
:102490009077374365D0C10705D0D10503D5616C6E
:1024A00041F001016164410705D5D90703D0616C92
:1024B00041F002016164810705D5D90703D0616C41
:1024C00041F004016164010707D502F020013143A6
:1024D00003D0616C41F008016164616C00293AD05D
:1024E000800604D5900602D5204601F01AFB20682C
:1024F0004069616CC0F38010090700D460B32046C6
:1025000001F0E8FA20684069400621D520681430BF
:1025100050E8001F21F0400140E80012002AF5D1E8
:10252000E06BA8B16D494163E06BFEF745FE002802
:1025300011D0E06B416B01B0BDE8F0400847830665
:102540000FD593060DD52046BDE8F84001F0E9BA55
:102550002046FFF78EFFF8BD2046FFF78AFF65642F
:10256000F8BD266B2023012E7CD1C6067AD5D6066F
:1025700078D508684868009048694FF00206400620
:1025800040D5E16B086840680004000CE8D0A28DDB
:102590008242E5D9E085886920282DD020680C305A
:1025A00050E8001F21F4807140E80012002AF5D1A4
:1025B0002068143050E8001F21F0010140E80012AB
:1025C000002AF5D12068143050E8001F21F04001A6
:1025D00040E80012002AF5D184F8423025632068D3
:1025E0000C3050E8001F21F0100140E80012002AD2
:1025F000F5D1E06BFEF7BCFD6663A08DE18D401A5E
:1026000081B22AE0A08DE18D401A81B2E08D0028D0
:10261000A6D00029A4D022680C3252E8000F20F482
:10262000907042E80007002FF5D12068143050E880
:10263000002F22F0010240E80027002FF5D184F896
:102640004230256320680C3050E8002F22F0100241
:1026500040E80023002BF5D166632046FFF708FF12
:10266000F8BDFFE705062BD5150629D594F84100DE
:102670002128F5D1A068B0F5805F01D12069B0B103
:10268000206A411C2162216800784860E08C401E6D
:102690000004000CE084E3D12068C16821F08001CF
:1026A000C1602068C16841F04001C160D8E7206A7C
:1026B0000088C0F308004860206A801C2062E5E7BB
:1026C0004006CDD55006CBD5CA68204622F0400240
:1026D000CA6084F8413000F0F8F8C1E7C53A000854
:1026E00070B5040004D094F84100002510B106E054
:1026F000012070BD84F84050204600F023F82420CB
:1027000084F841002068C16821F40051C16020466E
:1027100001F068FA2068016921F4904101612068A4
:10272000416921F02A0141612068C16841F40051EA
:10273000C1606564202084F8410084F8420065632C
:10274000002070BD70B586B00024009401940294FE
:10275000039403682F482E4E022103220515B3422D
:1027600021D1836943F480438361836903F4804307
:102770000493836943F0040383618069264E00F06B
:10278000040004900802CDE9000103926946304636
:10279000FEF74CFECDE90054694630460294FEF740
:1027A00045FE06B070BD1D4EB342FAD1C36943F475
:1027B0008023C361C36903F480230493836943F0D6
:1027C000100383618069CDE9005100F01000CDE96C
:1027D0000320134D69462846FEF728FEE814CDE98C
:1027E0000004694628460294FEF720FE0D48416821
:1027F00021F0300141F0E06141F010014160002220
:1028000011462720FFF776F82720FFF765F8C8E77D
:10281000003801400010024000080140004800401C
:10282000001001400000014070472DE9F8430446C4
:1028300090F84100984616460D46202802D0022006
:10284000BDE8F88385B17EB100206064212084F862
:102850004100FEF7F1FEA6848146E684A0682027A9
:10286000B0F5805F02D003E00120E9E7206910B1F4
:102870002E4600250EE000260CE08021204601F0C7
:102880000DFAA8B9C6B116F8010B21684860E08CB2
:10289000401EE084E08C4B464FF00002CDF80080F3
:1028A0000028EAD14FF04001204601F0F7F940B18D
:1028B00084F841700320C3E735F8020BC0F3080029
:1028C000E3E784F841700020BAE77047FEE70000B4
:1028D000FEB500251B480095019519490295016038
:1028E00089158160012404730575032606614FF480
:1028F00060214560C161FEF7D3FA08B1FEF723F904
:10290000022705200094CDE9017069460D48FEF7C5
:10291000D7F908B1FEF717F9CDE9007669460948FD
:10292000FEF7CEF908B1FEF70EF9CDE9005469467D
:102930000448FEF7C5F9002801D0FEF704F9FEBDF2
:102940000024014068000020054808B5416941F0B5
:1029500001014161406900F00100009008BD0000E4
:10296000001002402DE9F04F85B000256148009528
:10297000019502950395816941F01001816181699A
:1029800001F010010491816941F0200181618169A8
:1029900001F020010491816941F0040181618169A4
:1029A00001F004010491816941F0080181618069AD
:1029B000DFF844A100F0080004900122CF21504626
:1029C000FEF735FEDFF834B10122B8215846FEF794
:1029D0002EFE41F21808012241464948FEF727FE23
:1029E0004FF40069002249465846FEF720FE0122B6
:1029F00004214448FEF71BFE4FF4E040009042489B
:102A00000124CDE9010469465046FEF70FFDCF20B1
:102A1000CDE900040326CDE9024669465046FEF79B
:102A200005FDB820CDE90004CDE9024669465846C7
:102A3000FEF7FCFC4FF44C7002278DE8A1006946BC
:102A40005046FEF7F3FC40F603408DE8A1006946CE
:102A50002B48FEF7EBFCCDE90084CDE90246694640
:102A60002748FEF7E3FC20028DE8A100694658469E
:102A7000FEF7DCFCCDF800900396CDE901476946EE
:102A80005846FEF7D3FC214FE003CDE90007694625
:102A900002955846FEF7CAFC0420CDE90004CDE9B2
:102AA000024669461748FEF7C1FC202000901848EE
:102AB000CDE9010469461248FEF7B8FC3002CDE9C1
:102AC0000007694602950E48FEF7B0FC002204217B
:102AD0001720FEF70FFF1720FEF7FEFE002204214D
:102AE0002820FEF707FF2820FEF7F6FE05B0BDE818
:102AF000F08F00000010024000100140000801406B
:102B0000000C0140001401400000211000003110B1
:102B1000000011100D4810B50B4901600C494160CF
:102B200000214FF480428160C0E90312416181615C
:102B3000C1610162FEF786FD002803D0BDE81040A8
:102B4000FEF701B810BD000000540040DC0000207A
:102B5000A0860100104810B50E4901604FF4827143
:102B6000416000218160C1604FF400720161C0E9E1
:102B700005121822C0E90721416281620A21C1625F
:102B8000FFF7CCF9002803D0BDE81040FDF7DBBF0C
:102B900010BD0000003800403001002010B58EB09C
:102BA00000240794089409940A940B941C21684605
:102BB0000C94FDF7F2FA1F481D4901602321C0E97A
:102BC00001146321C0E9031480218161FFF78CFAAD
:102BD00008B1FDF7B8FF4FF48050079007A91548DA
:102BE000FFF7C4FA08B1FDF7AEFF1248FFF7B8FBD4
:102BF00008B1FDF7A8FF0B940BA90E480C94FFF742
:102C000035FA08B1FDF79FFF602000903220CDE932
:102C100001040022694607480494FFF73BFB08B112
:102C2000FDF791FF0348FFF70FFB0EB010BD00004A
:102C300000040040880100200C4810B50A490160DA
:102C40004FF416514160002181600C22C160C0E93F
:102C500004128161C161FFF743FD002803D0BDE884
:102C60001040FDF770BF10BD00380140D0010020BA
:102C70000C4810B50A4901604FF4E1314160002170
:102C800081600C22C160C0E904128161C161FFF75B
:102C900027FD002803D0BDE81040FDF754BF10BD4C
:102CA0000048004018020020FEE7FEE72DE9F04151
:102CB0001A498046884202DB1948BDE8F081194D67
:102CC000012400BF05EBC40041684046FDF758FBF6
:102CD0001ED805EBC40055F8344070E90276314641
:102CE000C068FDF7BEFA054639462046FDF7B9FA39
:102CF000044631464046FDF7B4FA2146FDF7B7FADF
:102D00002946FDF7E6FA3946BDE8F041FDF757BA26
:102D1000641CA62CD6D30448CFE70000D7634543F4
:102D2000000020C2544A00080000FA427047000028
:102D30002DE9F04F89B006460024FDF757FF0190BA
:102D4000FDF734FF8246FDF72BFF8146FDF746FF76
:102D50008046FDF715FF0090FDF70CFF8346FDF759
:102D600035FF0746FDF7F8FE0546FDF7EFFE034683
:102D700004A8DDF804C080E80017009903918DE8ED
:102D8000A008534D06EB460005EB8000314610F8D5
:102D90000B2C5048FDF788FE012E04D0022E31D0B6
:102DA000032E78D15DE06878012801D0B0B18AE0C7
:102DB000FDF7CCFE012803D047A0FDF775FE0124E6
:102DC000FDF7CAFE012803D04BA0FDF76DFE0124DC
:102DD000FDF7FCFE012876D04FA071E0FDF7B6FEAE
:102DE00018B155A0FDF760FE0124FDF7B5FE18B13E
:102DF0005AA0FDF759FE0124FDF7E8FE002862D035
:102E00005FA05DE0687B012801D0B0B15BE0FDF719
:102E1000B1FE012803D063A0FDF746FE0124FDF7B3
:102E2000AFFE012803D067A0FDF73EFE0124FDF7A9
:102E3000D5FE012847D06BA042E0FDF79BFE18B1FC
:102E400070A0FDF731FE0124FDF79AFE18B176A0BF
:102E5000FDF72AFE0124FDF7C1FE002833D07BA038
:102E60002EE0687E012801D0C0B12CE0FDF798FE6D
:102E7000012803D07EA0FDF717FE0124FDF796FE82
:102E8000012803D082A0FDF70FFE0124FDF7AEFE5E
:102E9000012818D000E015E085A011E0FDF780FEC4
:102EA00018B18BA0FDF700FE0124FDF77FFE18B1DD
:102EB00090A0FDF7F9FD0124FDF798FE18B196A04A
:102EC000FDF7F2FD012409B02046BDE8F08F0000B7
:102ED0002C000020B04F00085BB7B4C0A1D2ECB307
:102EE000A35D204B315F315F535441CEB4B5BDB8C3
:102EF000DFB5E7C6BD0D0A005BB7B4C0A1D2ECB325
:102F0000A35D204B315F325F535441CEB4B5BDB8A1
:102F1000DFB5E7C6BD0D0A005BB7B4C0A1D2ECB304
:102F2000A35D205357315F535441CEB4B5BDB8DFD4
:102F3000B5E7C6BD0D0A00005BB7B4C0A1D2ECB3C3
:102F4000A35D204B315F315F535441CEB4BBD8B544
:102F5000BDB5CDB5E7C6BD0D0A0000005BB7B4C076
:102F6000A1D2ECB3A35D204B315F325F535441CE0D
:102F7000B4BBD8B5BDB5CDB5E7C6BD0D0A000000E0
:102F80005BB7B4C0A1D2ECB3A35D205357315F53FC
:102F90005441CEB4BBD8B5BDB5CDB5E7C6BD0D0A5D
:102FA000000000005BB7B4C0A1D2ECB3A35D204B1E
:102FB000325F315F535441CEB4B5BDB8DFB5E7C61B
:102FC000BD0D0A005BB7B4C0A1D2ECB3A35D204B2A
:102FD000325F325F535441CEB4B5BDB8DFB5E7C6FA
:102FE000BD0D0A005BB7B4C0A1D2ECB3A35D205302
:102FF00057325F535441CEB4B5BDB8DFB5E7C6BD57
:103000000D0A00005BB7B4C0A1D2ECB3A35D204BA6
:10301000325F315F535441CEB4BBD8B5BDB5CDB5E9
:10302000E7C6BD0D0A0000005BB7B4C0A1D2ECB387
:10303000A35D204B325F325F535441CEB4BBD8B551
:10304000BDB5CDB5E7C6BD0D0A0000005BB7B4C085
:10305000A1D2ECB3A35D205357325F535441CEB499
:10306000BBD8B5BDB5CDB5E7C6BD0D0A00000000A3
:103070005BB7B4C0A1D2ECB3A35D204B335F315F2B
:10308000535441CEB4B5BDB8DFB5E7C6BD0D0A0097
:103090005BB7B4C0A1D2ECB3A35D204B335F325F0A
:1030A000535441CEB4B5BDB8DFB5E7C6BD0D0A0077
:1030B0005BB7B4C0A1D2ECB3A35D205357335F53C9
:1030C0005441CEB4B5BDB8DFB5E7C6BD0D0A0000AA
:1030D0005BB7B4C0A1D2ECB3A35D204B335F315FCB
:1030E000535441CEB4BBD8B5BDB5CDB5E7C6BD0DC3
:1030F0000A0000005BB7B4C0A1D2ECB3A35D204BC3
:10310000335F325F535441CEB4BBD8B5BDB5CDB5F6
:10311000E7C6BD0D0A0000005BB7B4C0A1D2ECB396
:10312000A35D205357335F535441CEB4BBD8B5BDD4
:10313000B5CDB5E7C6BD0D0A0000000010B50024EE
:10314000012804D002281AD0032840D127E0FDF737
:103150001FFDE0B3FDF732FDC8B3FDF70BFDB0BBBB
:10316000FDF70EFD98BBFDF739FD16E0FDF718FDE4
:1031700068BBFDF71BFD50BBFDF738FD26E0FDF7F2
:10318000F1FC20B3FDF71AFD08B3FDF7DFFCF0B941
:10319000FDF7E2FCD8B9FDF719FDC0B9E6E7FDF788
:1031A000E1FCA0B1FDF7F4FC88B1FDF7CFFC70B9EC
:1031B000FDF7D2FC58B9FDF709FD40B9FDF7DAFC7F
:1031C00028B9FDF7DDFC10B9FDF708FD00B10124B9
:1031D000204610BD70B50446401E032801D30420CC
:1031E00070BDC5B2012C04D0022C09D0032C14D11F
:1031F0000DE00020FDF702FD0020FDF70FFD0CE0C3
:103200000020FDF71BFD0020FDF728FD05E0002054
:10321000FDF734FD0020FDF741FDFEF70DFA1F49D3
:1032200005EB450201EB82054FF4FA766860304603
:10323000FEF7D0F8012C04D0022C09D0032C14D1B5
:103240000DE00120FDF7DAFC0120FDF7E7FC0CE0C2
:103250000120FDF7F3FC0120FDF700FD05E0012052
:10326000FDF70CFD0120FDF719FD3046FEF7B2F821
:1032700000266E702046FFF75BFD40B102202872E9
:103280006870214606A0FDF70FFC022070BD2E726B
:10329000214608A0FDF708FC002070BD2C0000208E
:1032A000CDA8B5C02564B7B4C0A1B4EDCEF30D0A66
:1032B00000000000CDA8B5C02564B9D8B1D5B3C908
:1032C000B9A60D0A0000000030B400200A4B0B4DD7
:1032D000014600EB4004421C03F8242003EB840465
:1032E0006170616021722954D0B20328F1D330BCDF
:1032F00003A0FDF7D9BB00002C0000200000002037
:10330000BCCCB5E7C6F7BFD8D6C6C4A3BFE9B3F5F2
:10331000CABCBBAFCDEAB3C90D0A00002DE9F0412C
:103320000446401E032802D30420BDE8F081204655
:10333000FFF704FF0100A4F10100C0B2324A00EB24
:1033400040004FF0010602EB800506D02E722146A8
:103350002EA0FDF7A9FB0120E7E7012C04D0022CE9
:1033600009D0032C14D10DE00020FDF74FFC002004
:10337000FDF75CFC0CE00020FDF768FC0020FDF789
:1033800075FC05E00020FDF781FC0020FDF78EFCB8
:10339000FEF752F94FF4FA7768603846FEF71AF8EC
:1033A000012C04D0022C09D0032C14D10DE00120F3
:1033B000FDF72CFC0120FDF739FC0CE00120FDF7A6
:1033C00045FC0120FDF752FC05E00120FDF75EFC05
:1033D0000120FDF76BFC3846FDF7FCFF6E702046C0
:1033E000FFF7A6FC40B102202872687021460CA0AD
:1033F000FDF75AFB022098E70020287221460DA015
:10340000FDF752FB002090E72C000020CDA8B5C0AE
:103410002564BBA5CBF8B4EDCEF30D0A0000000087
:10342000CDA8B5C02564B7B4C0A1B4EDCEF30D0AE4
:1034300000000000CDA8B5C02564BFAAC6F4B3C97A
:10344000B9A60D0A000000007047FEF7EDB930B5CF
:1034500095B028216846FCF7A0FE14210AA8FCF7C5
:103460009CFE18210FA8FCF798FE01210804CDE965
:1034700000100025029502240491CDE907404FF485
:10348000E01009906846FEF7B9FB08B172B6FEE796
:103490000AA90F2081E831004FF48060CDE90D05C5
:1034A00002210AA8FEF7CEFA08B172B6FEE74FF481
:1034B000004011900F940FA8FEF74EFA002801D09B
:1034C00072B6FEE715B030BD70470000F0B5026877
:1034D000204C214D214E224F224B4FF0804CA042D8
:1034E00009D0984207D0604505D0A84203D0B04229
:1034F00001D0B84204D122F0700E4A6842EA0E02AE
:10350000A04209D0984207D0604505D0A84203D018
:10351000B04201D0B84203D122F44075CA682A43B0
:103520004D6922F080022A4302608A68C2620A68FA
:103530008262A04201D0984201D109690163012150
:1035400041610169C90703D0016921F001010161ED
:10355000F0BD0000002C01400004004000080040C5
:10356000000C00400034014010B501F01F030121A0
:10357000046A99408C430462016A9A4011430162D3
:1035800010BD10B5846842EA032224F47F440A4344
:103590002243826010BD826822F070020A4342F02A
:1035A0000701816070470000F0B5036A026A22F0EB
:1035B0000102026242688469124E24F073050C68AD
:1035C0002C4323F002058B682B430D4DA84201D0FC
:1035D000B04205D123F00807CB683B4323F0040336
:1035E000A84201D0B04205D14D6922F44072154382
:1035F0008A692A4342608461496841630362F0BD7D
:10360000002C014000340140F0B5026A036A23F047
:1036100010030362436884690D6824F4E64444EAB5
:1036200005248D6822F0200242EA05120F4D104E4B
:10363000A84201D0B04206D1CF6822F0800242EA0F
:10364000071222F04002A84201D0B04207D14D69D2
:1036500023F4406343EA85038D6943EA85034360AD
:103660008461496881630262F0BD0000002C014062
:1036700000340140F0B5026A036A23F480730362E8
:103680004368C46922F4007224F073050C68124E7A
:103690002C438D6842EA05220E4DA84201D0B0426B
:1036A00006D1CF6822F4006242EA072222F4806247
:1036B000A84201D0B04207D14D6923F4405343EAF8
:1036C00005138D6943EA05134360C4614968C1630A
:1036D0000262F0BD002C01400034014030B5046AA4
:1036E000026A22F4805202624268C3690D6823F4C0
:1036F000E64343EA05238D6824F4005444EA053484
:10370000084DA84202D0084DA84204D14D6922F4C8
:10371000804242EA85124260C361496801640462E2
:1037200030BD0000002C01400034014010B5036A98
:10373000046A24F001040462846924F0F00444EA79
:10374000021423F00A020A438461026210BD10B51C
:10375000036A046A24F010040462846923F0A0035D
:1037600024F4704444EA023243EA011182610162A6
:1037700010BD00002DE9F04FDFF87C80DFF87CA061
:10378000DFF87CB0DFF87C9085B0002438F81400B6
:10379000FCF7DDFD5146FCF76AFD5946FCF799FD43
:1037A0000646FDF767F9FFF781FAFCF7D5FD0746F6
:1037B0000D463046FCF7D0FD034609EBC400007906
:1037C0000297CDE90350CDE9003138F81420611C8F
:1037D0000D48FDF769F9641C032CD7DB064C0BA0E0
:1037E0000C3C2178FDF760F9A16805B00EA0BDE89A
:1037F000F04FFDF759B9000010000020333353405B
:1038000000F07F4550000020105000085BCEC2B68B
:10381000C8BCE0BFD85D20B7E7C9C850574D3A20B3
:10382000256425250D0A00005BCEC2B6C8BCE0BFEA
:10383000D85D20B7E7C9C8D7AACBD93A20256420DC
:1038400052504D0D0A00000004484168C1EB0111BF
:103850008900490881600021416070470400002010
:10386000024A91685268C0E90012704704000020C3
:1038700070B500200D4C0E490E4B024601EBC00501
:1038800041F830402A711A54401C0328F6DB0949DC
:103890003220491E032208700C310748FDF7E2FB75
:1038A000BDE8704005A0FDF7FFB800000000C8416A
:1038B0005000002005000020680000205BCEC2B64A
:1038C000C8BCE0BFD85D20B3F5CABCBBAFCDEAB37E
:1038D000C9A3ACD2D1C6F4B6AF41444320444D4154
:1038E000B2C9BCAF0D0A000030B4642800D964200E
:1038F00001460748017007480068C36A5A1C4A43DA
:103900006424B2FBF4F2426330BC03A0FDF7CCB8F0
:1039100004000020880100205BB7E7C9C8B2E2CAF2
:10392000D45D20D7D4B6AFC9E8D6C3B7E7C9C8506D
:10393000574D3A202564252520284343523D256CC8
:10394000752C204152523D256C75290D0A0000004E
:103950002DE9FC5FDFF8E4A0DFF8E4B0DFF8E490E5
:103960000024AAF10B0600BF3AF81400FCF7EFFCA4
:103970003549FCF77CFC3549FCF7ABFCFDF77AF8E0
:10398000FFF794F909EBC40549F834002A7922B10C
:10399000012A0BD0022A48D00FE0584501DB022251
:1039A0000AE02B4A904208DB012205E05845F6DA8E
:1039B000284A904201DA00222A712979375D884627
:1039C000B9420BD0FCF7C8FCCDE9007802460B46A3
:1039D000611C21A0FDF768F828793055641C032C80
:1039E000C2DB002001464A4602EBC1031B79834239
:1039F00000D91846491C0329F6DB10490C39022866
:103A00001AD0012818D0322008701E480068C36AF6
:103A100009785A1C4A436424B2FBF4F2426302B0B0
:103A200019A0BDE8F05FFDF73FB8254A9042C4DA1F
:103A3000074A9042BFDBB7E75F20E5E710000020B0
:103A400000007042500000203333534000F07F45A7
:103A500000000C42000004425BCEC2B6C8BCE0BF0E
:103A6000D85D20CDA8B5C0256420D7B4CCACB1E4D6
:103A7000BBAF3A20252E3166A1E62025642D3E25D8
:103A8000640D0A00880100205BB7E7C9C8B2E2CA2A
:103A9000D45D20D7D4B6AFC9E8D6C3B7E7C9C850FC
:103AA000574D3A202564252520284343523D256C57
:103AB000752C204152523D256C75290D0A000000DD
:103AC0000000684210B5406A0021C185C184FEF73C
:103AD000D0FC10BD01680C3151E8002F22F4907227
:103AE00041E80023002BF5D10168143151E8002F83
:103AF00022F0010241E80023002BF5D1016B0129DE
:103B000009D101680C3151E8002F22F0100241E880
:103B10000023002BF5D1202180F842100021016301
:103B2000704708B590F84210222901D0022008BD44
:103B300082684FF480539A4201D1016921B1816AB0
:103B40009A421BD04AB10AE00268816A5268C2F305
:103B500008020A80816A891C08E0026972B1026861
:103B6000526802F07F020A70816A491C8162C18D2D
:103B7000491E0904090CC18503D01BE00268526884
:103B8000F1E70168CA6822F02002CA600168CA68C9
:103B900022F48072CA6001684A6922F001024A6117
:103BA000202180F8421000214163026B012A03D0DA
:103BB000FEF73AFE002008BD016301680C3151E8B0
:103BC000002F22F0100241E80023002BF5D10168FC
:103BD0000A68D20602D50A6849680091818DFEF70D
:103BE00047FCE7E770B5044600680169E26821F424
:103BF0004051114301612169A0680843616908438C
:103C00002168CA6841F20C639A430243CA60206883
:103C10004169A26921F44071114341611E49206844
:103C2000884202D1FDF7B4FF01E0FDF7A1FF00EBF0
:103C3000C00101EB0012606864218000B2FBF0F368
:103C4000B3FBF1F36FF018067343B2FBF0F5B2FB70
:103C5000F0F605EB8305322303EB0515B5FBF1F513
:103C6000B6FBF1F605F0F00505EB0615B2FBF0F634
:103C7000B2FBF0F0B0FBF1F06FF01802504306EB2E
:103C8000800003EB0010B0FBF1F0216800F00F00A2
:103C90002844886070BD0000003801402DE9F843D9
:103CA000984617460D460446089E24E0701C22D014
:103CB000FDF7C2FCA0EB0800B0421AD8CEB12068D4
:103CC000C168490717D5802D15D0402D13D0016844
:103CD000C94309070FD401680025406800902046B9
:103CE000FFF7F8FE0820606484F840500120BDE82A
:103CF000F8830320FBE72068006835EA000004D061
:103D00000020B842D2D00020F1E70120F9E70000FE
:103D10000148FEF7AFBB000018020020FEE70000DC
:103D20000FB4054B10B503A9044A029800F0FCF843
:103D300010BC5DF814FB0000394600082800002084
:103D400037B514460846064B6A46214600F0ECF8A3
:103D500004466946002000F06AFC20463EBD000093
:103D60002F4600080907090E002804DB00F1E020B7
:103D700080F80014704700F00F0000F1E02080F898
:103D8000141D704702E008C8121F08C1002AFAD1AA
:103D900070477047002001E001C1121F002AFBD1CB
:103DA000704700002DE9FF5F82B00021DDE904309B
:103DB000020DDDF840B0034318D044F61050A2F2D3
:103DC000FF3242431514119801281FD0A5EB0B00B8
:103DD000401C5FEA000A4FF000064E4FDFF83891B2
:103DE000B046504615D5CAF1000413E011980124DD
:103DF0004AA3012801D16FEA0B010298119AC0E988
:103E00000031C0E9024206B0BDE8F09FCBF10000EE
:103E1000DFE704460021404A491842EB0450CDE94F
:103E2000001012E0E00707D032463B4640464946C4
:103E3000FCF7D5FB8046894632463B46104619467C
:103E4000FCF7CDFB06460F466410002CEAD1DDE9F5
:103E50000401DDE90023BAF1000F06DAFCF7BFFB2D
:103E600042464B46FCF7BBFB05E0FCF72AFC42460A
:103E70004B46FCF726FC04460E460022284BFCF776
:103E8000A7FC03D84FF0FF30014607E00022254B86
:103E900020463146FCF7FCFAFCF782FC102409E0CE
:103EA000002C0ADB0A220023FCF78AFA039B30323B
:103EB0001A55641E50EA0102F2D1641C039AC4F13F
:103EC00011031444119A012A03D0012208430DD191
:103ED0000AE0084304D000204FF0110B119072E764
:103EE000A3EB0B056D1E0DE05B4504DD4FF00002FA
:103EF00005F1010504E003DA4FF00002A5F1010528
:103F0000002AECD002981199C0E90231C0E90045BD
:103F100079E70000000014400000F03F300000008E
:103F20000000F0430000E03F2DE9FF4F95B09A46B6
:103F3000884606460025EEE1252877D1002427464D
:103F4000F94A0121039400E0044316F8013F203BA5
:103F500001FA03F01042F7D130782A2811D06FF01F
:103F60002F033078A0F13002092A16D8039A44F0C2
:103F7000020402EB820203EB42021044761C03901F
:103F8000EFE758F8042B0392002A03DA504244F476
:103F90000054039044F00204761C30782E2816D189
:103FA00016F8010F44F004042A280DD06FF02F02F8
:103FB0003078A0F13003092B09D807EB870302EB17
:103FC0004303C718761CF3E758F8047B761C307857
:103FD0006C280FD006DC4C2817D068280DD06A2832
:103FE00014D104E0742810D07A280FD10DE044F4E5
:103FF00000140AE044F4801401E044F440147278A0
:10400000824202D104F58014761C761C3078662832
:104010000BD013DC582877D009DC002875D0452850
:10402000F6D04628F4D047281AD193E118E0632847
:1040300035D0642879D0652812D18BE1702873D0EF
:1040400008DC6728F1D069286FD06E280DD06F2862
:1040500006D1ACE073282CD0752874D0782853D0C2
:104060005246179990476D1C54E1C4F30250022840
:1040700009D003280DD0D8F8001004280DD00D6009
:1040800008F1040846E1D8F80010EA17C1E9005227
:10409000F6E7D8F800100D80F2E70D70F0E718F899
:1040A000041B8DF8001000208DF80100EB46012064
:1040B00003E058F804BB4FF0FF3061074FF00001F8
:1040C00002D40DE009F101018946B9420FDA8145B8
:1040D000F8DB1BF809100029F4D108E009F101010F
:1040E00089468142FADB1BF809100029F6D10398B2
:1040F0005346A0EB090721463846179A00F080FA8C
:10410000284400EB090507E044E008E10DE01BF856
:10411000010B524617999047B9F10109F7D253465E
:1041200021463846179AF2E039E00A21C4F30252D8
:104130004FF0000B0091022A06D058F8040BC1176B
:10414000032A09D00AE023E008F1070020F0070263
:10415000F2E80201904605E000B2C117042A01D13D
:1041600040B2C117002906DA0A460021404261EB3D
:1041700002012D2202E0220504D52B228DF8042015
:10418000012203E0E20701D02022F7E7914657E041
:104190000A2100E010214FF0000B00910BE01021EC
:1041A0004FF0000B44F004040827009103E00820BE
:1041B0004FF0000B0090C4F30252022A05D058F8C9
:1041C000040B0021032A08D008E008F1070020F0C2
:1041D0000702F2E80201904603E080B2042A00D10F
:1041E000C0B24FF0000922072AD53278702A07D0D2
:1041F000DDF800C08CF0100C5CEA0B0C05D00EE072
:1042000040228DF80420012208E050EA010306D084
:1042100030238DF804308DF8052002229146009B52
:1042200083F0080353EA0B030AD150EA010201D1DB
:10423000620705D530228DF804204FF001097F1E5A
:104240003278582A04D039A20C920CAA02920BE0C0
:104250003BA2F9E75B46009AFCF7B2F80C9B9B5C2B
:10426000029A521E0292137050EA0102F2D1029891
:1042700004A9081A00F1200B600702D524F4803449
:1042800000E001275F4502DDA7EB0B0000E0002006
:1042900000EB0B01009003984944401A0390E0039F
:1042A00006D453462146179A039800F0A9F905440D
:1042B000002706E001A85246C05D179990476D1C83
:1042C0007F1C4F45F6DBE0030CD553462146179A79
:1042D000039800F095F9054404E030205246179900
:1042E00090476D1C0099481E00900029F5DC08E0FD
:1042F0000298029952460078491C029117999047FA
:104300006D1CBBF10001ABF1010BF1DC5BE100F0D6
:1043100065F90544761C307800287FF40DAE19B09D
:104320002846BDE8F08F0000092801003031323303
:1043300034353637383961626364656600000000E1
:1043400030313233343536373839414243444546CB
:1043500000000000600700D4062708F1070020F0E5
:104360000700F0E80223804603F0004C5FEA0C00EF
:1043700001D097A009E0200501D596A005E0E0074F
:1043800001D095A001E0AFF24C001390307823F0FB
:10439000004365280CD006DC452809D046281DD0EE
:1043A00047287FD13BE0662818D067287AD136E0CD
:1043B0000021112F01DB112000E0781CCDE9000164
:1043C00004A90CA8FFF7EEFCDDE90D010C9A4FF0F3
:1043D000000B07F10109109200914EE04FF00040F0
:1043E0000097CDE9011004A90CA8FFF7DBFCDDE97B
:1043F0000D020C9B0F994FF0000B91461093009209
:1044000011B9791C00EB0109B7EB090003D4C0F125
:10441000FF3B07F10109A9EB0700019042E0012FE2
:1044200000DA01270021112F01DD112000E03846BC
:10443000CDE9000104A90CA8FFF7B4FCDDE90D01EA
:104440000C9A00914FF0000BB946109221070FD43F
:10445000009A4A4503DA914601E0A9F10109B9F150
:10446000010F05DD109AA9F10101515C3029F4D04A
:10447000B84202DA10F1040F03DA0121CDE901108C
:1044800010E0002803DC8344A9EB000102E0411C9A
:10449000494500DD8946A0EB0B00401C01904FF020
:1044A00000400290200705D40198484502DB4FF0F8
:1044B000FF30019000208DF84B0002980DF14B0762
:1044C000B0F1004F25D002200C902B200D900298C7
:1044D00000280CDA404202902D200D9007E00A21BE
:1044E0000298FBF757FF3031029007F8011D0C9935
:1044F000481E0C900029F2DC02980028EFD1791EAA
:104500000D980870307800F0200040F0450007F862
:10451000020D11A8C01BC01D02901398007800B1B5
:10452000012000EB0901019801EBE07102980144C0
:104530000398401A401E0390E00306D453462146D8
:10454000179A039800F05CF805441398007818B1A6
:104550005246179990476D1CE00323D553462146D8
:10456000179A039800F04CF805441BE0BBF1000FCC
:1045700007DB0098584504DD1098179910F80B00D8
:1045800001E0179930205246904701980BF1010B3A
:10459000401E05F10105019004D12E2052461799C5
:1045A00090476D1CB9F10001A9F10109DEDC05E0BD
:1045B00017F8010B5246179990476D1C0299481E37
:1045C00002900029F4DC53462146179A03989EE690
:1045D0002D0000002B000000200000002DE9F0411C
:1045E000044600251E461746880404D405E03946D3
:1045F0002020B0476D1C641EF9D52846BDE8F08127
:104600002DE9F041044600251E469046C80301D519
:10461000302700E02027880404D505E041463846CD
:10462000B0476D1C641EF9D52846BDE8F0810A68C4
:10463000531C0B601070704713B54FF6FF730122C7
:1046400069460248FEF7F1F800981CBD18020020E8
:104650001CB5FDF7F1F8FEF7FAFEFEF783F9FEF759
:1046600073F9FEF735F9FEF755FAFEF773FAFEF720
:1046700095FAFEF7E1FAFEF7FBFAC820FCF7AAFE6E
:1046800068A0FFF74DFB70A0FFF74AFB77A0FFF78C
:1046900047FBFDF78DFA7A49B0FBF1F179A0FCF701
:1046A00003FA7EA280A183A0FCF7FEF987A0FFF7A2
:1046B00037FBFEF70DF9FEF771FAFEF72BFAFEF75E
:1046C00049FA00218A48FDF779FEFFF7D1F8FEF795
:1046D000FBFD4FF4FA70FCF77DFE86A0FCF7E4F9D1
:1046E0000120FEF71BFE4FF47A773846FCF772FE86
:1046F00085A0FCF7D9F90120FEF76CFD3846FCF7E0
:1047000069FE86A0FCF7D0F90220FEF707FE3846C6
:10471000FCF760FE86A0FCF7C7F90220FEF75AFD01
:104720003846FCF757FE87A0FCF7BEF90320FEF7DA
:10473000F5FD3846FCF74EFE87A0FCF7B5F90320DF
:10474000FEF748FD3846FCF745FE884E00243460ED
:10475000874804603846FCF73DFEFFF775F8384699
:10476000FCF738FE83A0FCF79FF900254FF00908FD
:10477000B9465A20684390FBF8F00A30C7B2384671
:10478000FFF7B2F834604846FCF724FEFFF75CF808
:104790006846FFF765F839467FA0009AFCF784F970
:1047A0006D1C0A2DE5DB87A0FCF77EF9A3460025EA
:1047B000B24647464C465A20684390FBF7F0C0F19A
:1047C0006400C6B23046FFF78FF8CAF800B0204642
:1047D000FCF700FEFFF738F86846FFF741F831466E
:1047E0006DA0009AFCF760F96D1C0A2DE3DB7EA03A
:1047F000FCF75AF983A0FCF757F900254FF4167619
:10480000FFF7A6F8FEF7B6FF2046FCF7E3FD6D1CA8
:10481000B542F5DB85A0FCF747F90120FCF7DAFD8E
:10482000FBE700000D0A3D3D3D3D3D3D3D3D3D3D2D
:104830003D3D3D3D3D3D3D3D3D3D3D3D3D3D3D3DA8
:104840003D3D3D3D0D0A0000C8FDCDA8B5C0B8DF17
:10485000D1B9C7D0BBBBBFD8D6C6C6F72076332EDA
:104860003020C6F4B6AF0D0A00000000B4AEBFDAC7
:10487000B5F7CAD4B9A6C4DCB2E2CAD40D0A0000A6
:1048800040420F00CFB5CDB3CAB1D6D3C6B5C2CA68
:10489000A3BA25644D487A0D0A00000032313A323D
:1048A000303A3236000000004A756C202032203247
:1048B00030323500B5B1C7B0B1E0D2EBCAB1BCE41B
:1048C000A3BA25732025730D0A0000003D3D3D3D30
:1048D0003D3D3D3D3D3D3D3D3D3D3D3D3D3D3D3D08
:1048E0003D3D3D3D3D3D3D3D3D3D0D0A000000004F
:1048F000880100205BB2E2CAD45D20BFAAC6F4CD15
:10490000A8B5C0310D0A00005BB2E2CAD45D20B97F
:10491000D8B1D5CDA8B5C0310D0A00005BB2E2CA4E
:10492000D45D20BFAAC6F4CDA8B5C0320D0A0000E0
:104930005BB2E2CAD45D20B9D8B1D5CDA8B5C0323A
:104940000D0A00005BB2E2CAD45D20BFAAC6F4CD56
:10495000A8B5C0330D0A00005BB2E2CAD45D20B92D
:10496000D8B1D5CDA8B5C0330D0A0000080000208D
:104970000C0000205BB2E2CAD45D20BFAACABCB75B
:10498000E7C9C850574DD3C9C2FDB5BDBFECBCEC9B
:10499000B2E20D0A000000005BB7E7C9C8B2E2CA84
:1049A000D45D2050574D3A20256425252C20CAB5CA
:1049B000BCCAD7AACBD93A2025642052504D0D0A43
:1049C000000000005BB2E2CAD45D20BFAACABCB737
:1049D000E7C9C850574DD3C9BFECB5BDC2FDBCEC4B
:1049E000B2E20D0A000000005BB2E2CAD45D20B75B
:1049F000E7C9C8BCECB2E2C1F7B3CCBDE1CAF80D5F
:104A00000A0000005BB2E2CAD45D20BFAACABC4162
:104A10004443CEC2B6C8B2C9BCAFB2E2CAD4A3AC9A
:104A2000B9B23130B7D6D6D30D0A00005BB2E2CAB4
:104A3000D45D20414443CEC2B6C8B2C9BCAFB2E2D5
:104A4000CAD4BDE1CAF80D0A000000000000000051
:104A500002000000000020C2D763454300001CC2D2
:104A60003D8A3A43000018C29A593043000014C2EC
:104A7000CDCC2643000010C2ECD11D4300000CC277
:104A8000D7631543000008C28F820D43000004C2A3
:104A90000A170643000000C25238FE420000F8C167
:104AA0005C0FF1420000F0C114AEE4420000E8C126
:104AB0005C0FD9420000E0C17B14CE420000D8C197
:104AC00071BDC3420000D0C15EFAB9420000C8C146
:104AD00012C3B0420000C0C16F12A8420000B8C1AA
:104AE000ACDC9F420000B0C1A01A98420000A8C1EF
:104AF0009CC490420000A0C17BD48942000098C1B0
:104B00009C448342000090C1B21D7A42000088C1DB
:104B1000235B6E42000080C14C376342000070C1CD
:104B2000FCA95842000060C1F6A84E42000050C1E6
:104B30000E2D4542000040C11B2F3C42000030C1F9
:104B4000E9A63342000020C1568E2B42000010C15E
:104B500035DE2342000000C168911C420000E0C025
:104B6000CBA115420000C0C0440B0F420000A0C002
:104B7000B4C80842000080C0F8D30242000040C020
:104B8000F853FA41000000C05C8FEF41000080BF85
:104B9000DF4FE541000000005C8FDB410000803FFB
:104BA0009643D241000000407F6AC9410000404066
:104BB000F4FDC04100008040CFF7B8410000A040A4
:104BC000EC51B1410000C0402506AA410000E04080
:104BD0006F12A34100000041A4709C4100001041ED
:104BE000AC1C9641000020417B14904100003041F4
:104BF000EC518A4100004041E5D084410000504121
:104C0000D1227F4100006041A01A7541000070412F
:104C10001F856B4100008041355E62410000884184
:104C2000B29D5941000090417D3F514100009841A3
:104C30007D3F49410000A041819541410000A841CC
:104C4000A2453A410000B041964333410000B841CB
:104C50005C8F2C410000C041DD2426410000C8418A
:104C6000000020410000D041AC1C1A410000D84196
:104C7000E17A14410000E04187160F410000E8414D
:104C80006DE709410000F041AAF104410000F8413C
:104C900027310041000000429643F74000000442E3
:104CA000FA7EEE4000000842AC1CE64000000C42D8
:104CB0004A0CDE40000010420456D6400000144268
:104CC00079E9CE4000001842A8C6C74000001C4247
:104CD00091EDC04000002042355EBA400000244201
:104CE0006210B44000002842E7FBAD4000002C42B7
:104CF000F628A840000030425C8FA24000003442F9
:104D0000E9269D4000003842CFF7974000003C4222
:104D1000DBF99240000040420E2D8E4000004442DC
:104D20006891894000004842B81E854000004C420E
:104D30002FDD804000005042D57879400000544279
:104D4000378971400000584223DB694000005C4213
:104D5000FA7E624000006042BC745B400000644226
:104D6000A69B54400000684219044E4000006C426B
:104D7000B29D4740000070423789414000007442B4
:104D800081953B400000784254E3354000007C426E
:104D90004E623040000080426F122B400000824281
:104DA000B6F32540000084422506214000008642DB
:104DB00058391C4000008842B29D174000008A42CA
:104DC0003333134000008C4279E90E4000008E42DC
:104DD00083C00A400000904252B806400000924250
:104DE000E5D00240000094423F35FE3F000096426D
:104DF00079E9F63F000098423BDFEF3F00009A421E
:104E00008716E93F00009C425C8FE23F00009E4213
:104E1000F628DC3F0000A042DD24D63F0000A2427D
:104E2000C520D03F0000A442355ECA3F0000A64224
:104E30002FDDC43F0000A842EE7CBF3F0000AA4225
:104E4000713DBA3F0000AC427D3FB53F0000AE422D
:104E50008941B03F0000B0421F85AB3F0000B24225
:104E600079E9A63F0000B4425C8FA23F0000B64241
:104E70003F359E3F0000B842AC1C9A3F0000BA424A
:104E80001904963F0000BC424A0C923F0000BE420B
:104E900004568E3F0000C042BE9F8A3F0000C242BF
:104EA0003D0A873F0000C4428195833F0000C6420F
:104EB0008941803F0000C84223DB793F0000CA429D
:104EC000BC74733F0000CC42DF4F6D3F0000CE4208
:104ED0008B6C673F0000D042C1CA613F0000D242E4
:104EE000F6285C3F0000D4422B87563F0000D64294
:104EF0007368513F0000D842BA494C3F0000DA4283
:104F0000022B473F0000DC42D34D423F0000DE420F
:104F10002DB23D3F0000E0428716393F0000E242DB
:104F20006ABC343F0000E4424E62303F0000E6427B
:104F3000BA492C3F0000E8422731283F0000EA42EE
:104F40009318243F0000EC428941203F0000EE42CC
:104F500008AC1C3F0000F0428716193F0000F242E7
:104F60000681153F0000F44285EB113F0000F64238
:104F70008D970E3F0000F8421F850B3F0000FA425C
:104F80002731083F010202030405060708090A0B3E
:104F90000C0D0E0F101000000000000000000102B8
:104FA00003040607080900000000010203040000D2
:104FB0005BB5F7CAD45D20CDA8B5C0256420D7B4B1
:104FC000CCAC3D2564204B315F313D2564204B3115
:104FD0005F323D2564205357313D2564204B325FBD
:104FE000313D2564204B325F323D256420535732DA
:104FF0003D2564204B335F313D2564204B335F32C8
:105000003D2564205357333D25640D0A0000000000
:105010005BCEC2B6C8BCE0BFD85D20CDA8B5C02568
:10502000643A20414443D4ADCABCD6B53D25642C76
:1050300020B5E7D1B93D252E3366562C20CEC2B619
:10504000C83D252E3166A1E620D7B4CCAC3D256401
:105050000D0A000074500008000000202C00000021
:10506000843D0008A05000082C00002034060000F9
:10507000943D000800000000320000000000000025
:10508000000000000000000000000000010000001F
:10509000100000000000000000127A000000000074
:0400000508000131BD
:00000001FF
