:020000040800F2
:10000000D00A002049010008AF320008012C000886
:10001000AD320008A10A00082951000800000000C4
:10002000000000000000000000000000294100085E
:10003000330B000800000000453700082B41000882
:100040006301000863010008630100086301000800
:1000500063010008630100086301000863010008F0
:1000600063010008630100086301000863010008E0
:1000700063010008630100086301000863010008D0
:1000800063010008630100085109000863010008CA
:100090006301000863010008630100085B0B0008AE
:1000A00063010008630100086301000863010008A0
:1000B0006301000863010008630100086301000890
:1000C0006301000863010008630100086301000880
:1000D0006301000863010008630100081D51000866
:1000E000350B000863010008630100086301000884
:1000F0006301000863010008630100086301000850
:10010000630100086301000863010008630100083F
:10011000630100086301000863010008630100082F
:10012000630100086301000863010008630100081F
:10013000DFF810D000F07CFB004800474D5A000863
:10014000AFF30080D00A00200648804706480047E9
:10015000FEE7FEE7FEE7FEE7FEE7FEE7FEE7FEE777
:10016000FEE7FEE7AD49000831010008202A04DB64
:10017000203A21FA02F00021704721FA02F3D04020
:10018000C2F120029140084319467047D2B201E003
:1001900000F8012B491EFBD270470022F6E710B58C
:1001A00013460A4604461946FFF7F0FF204610BDE5
:1001B000421E12F8013F002BFBD111F8013B02F85F
:1001C000013B002BF9D1704710B5044604E00B78D1
:1001D00000F8013B03B1491C521EF8D2204610BD65
:1001E000421C10F8011B0029FBD1801A7047F0B4A3
:1001F00080EA0102D40F4200B2EB410F02D2024664
:10020000084611464A0042D0C30DDDB2C1F3C752C1
:10021000AD1A202D35DAC1F3160141F4000204B104
:100220005242C5F1200602FA06F12A411044B3EB0E
:10023000D05F23D0C4B1012DA0EBC35009DCF0BCCA
:100240004FF0004202EAC352DBB200F5000000F0BA
:1002500009B9400000F1807000EBC350A0F180703C
:1002600040EAD170490009E0490841EAC071A0EBB9
:10027000C35000F50000400800EBC350F0BC00F094
:10028000E8B86142012202EB4101001BF6E7F0BC35
:10029000704781F00041AAE780F00040A7E780EABC
:1002A000010210B502F00043400022D04A001FD0E6
:1002B000010E01EB1261C0F35600C2F3560240F486
:1002C000000042F40002A0FB022000047F39140465
:1002D00000D0401C50EA124001D44000491EC2B276
:1002E0000C0604EBD010401C4008802A02D003E02A
:1002F000002010BD20F00100002900DA0020184382
:1003000010BD30B480EA010202F0004530F0004236
:1003100021F0004013D090B1C30DD40DC2F31601EB
:10032000C0F31600E41A41F4000140F400027D34E9
:10033000914201D3641C00E04900002C02DA30BC79
:10034000002070474FF400000023914201D3891A26
:10035000034340084FEA4101F7D151B1914202D124
:100360004FF0004105E002D24FF0010101E06FF0D3
:10037000010103EBC450284430BC00F06AB8962356
:100380000022114600F06EB800F0004230F000404C
:100390000AD0C10D01F56071C0F3160042EA0151A7
:1003A000C208400711437047002001467047000013
:1003B000002801DBC0F10040002901DBC1F1004150
:1003C0008842704730B50B460146002020220124A8
:1003D00009E021FA02F59D4205D303FA02F5491B13
:1003E00004FA02F52844151EA2F10102F1DC30BD29
:1003F0002DE9F05F0546002092469B46884606465A
:10040000814640241BE02846414647462246FFF7E6
:10041000ADFE53465A46C01A914110D311461846B4
:10042000224600F017FA2D1A67EB01084F462246C4
:100430000120002100F00EFA17EB00094E41201EAA
:10044000A4F10104DFDC484631462A464346BDE8B4
:10045000F09F0029A8BF7047401C490008BF20F04A
:100460000100704710B4B0FA80FC00FA0CF050EABA
:10047000010404BF10BC704749B1CCF1200421FA3B
:1004800004F411FA0CF118BF012121430843A3EB36
:100490000C01CB1D4FEA00614FEA102042BF002043
:1004A00010BC704700EBC35010440029A4BF10BC1F
:1004B0007047401C490008BF20F0010010BC704785
:1004C0002DE9FE4F804681EA0300C00F0C460090E4
:1004D00021F0004123F00045B8EB0200A94105D20C
:1004E0004046214690461C460B46024623F00040FB
:1004F000104347D0270DC7F30A00C3F30A510290F7
:10050000401A019040286BDAC3F3130040F4801BBB
:100510000098924620B10023D2EB030A63EB0B0B49
:1005200001985946C0F14002504600F093F9064642
:100530000D4650465946019A00F09BF910EB080011
:100540006141002487EA115284EAE7731A4340D0DC
:10055000009A62B3019A012A4FEA075215DC001B88
:1005600061EB02014FF0004202EA0752CDE900427E
:10057000001C41F5801132462B4600F09BF903B078
:10058000BDE8F08F40462146F9E7001B61EB020110
:10059000001C41F5801300185B412018A2F50017DC
:1005A00047EB030140EAD570B6196D4111E06D08C3
:1005B0004FEA360645EAC0754FEA0752001B61EB69
:1005C0000201001C41F5801149084FEA3000001972
:1005D000514132462B4603B0BDE8F04F00F05BB905
:1005E0000098012240000023D0EB020263EBE0738D
:1005F000009821464FEAE074B8EB000061EB04017B
:10060000E9E783F000435BE781F0004158E72DE91B
:10061000FE4F81EA030404F0004421F000410094FD
:100620004FF0000B23F0004350EA01045ED052EA81
:1006300003045BD0C3F30A54C1F30A552C44A4F25B
:10064000F3340194A0FB0254C1F3130141F480116F
:10065000C3F3130343F4801301FB024400FB034E76
:10066000840A970A44EA815447EA8357A4FB07683F
:1006700002958D0A05FB07854FEA932C04FB0C5469
:100680002705029D4FEA065847EA1637B5EB0805DD
:100690006EEB070C870E920E47EA811742EA83122F
:1006A000A7FB0201B6EB0B0164EB00042B0D43EA40
:1006B0000C335E1844EB1C50DA465146E7FB02014E
:1006C000C5F313044FEA0B3343EA14534FEA0432E1
:1006D000019C43EA0603A4F10C040294009CCDE9BA
:1006E00000B400F0E7F803B0BDE8F08F0020014649
:1006F000F9E72DE9F04D81EA030404F0004B21F005
:10070000004514464FF0000A23F0004150EA05026C
:1007100020D054EA01021DD0C5F30A570246C5F3A2
:100720001303C1F31300C1F30A5640F4801543F4D8
:100730008013A7EB0608101BD64608F2FD3873EBB2
:10074000050002D308F1010801E092185B41B8F1FD
:10075000000F03DA00200146BDE8F08D00204FF4C1
:100760008011064684460EE0171B73EB050705D380
:10077000121B63EB050306434CEA010C49084FEAE0
:10078000300092185B4150EA0107EDD152EA0300B4
:1007900012D082EA040083EA0501084305D0101B49
:1007A000AB4106D20122002306E000224FF00043B5
:1007B00002E06FF0010253101AEB06004CEB0851F7
:1007C00010EB0A0041EB0B01BDE8F04D00F063B8FF
:1007D000C1F30A52C1F3130140F2FF3341F4801117
:1007E0009A4202DA00200146704740F233439A42AF
:1007F000A2F2334202DC5242FFF7B8BC00F02AB842
:1008000030B5041E71F1000404DB4FF00044404297
:1008100064EB0101141E73F1000405DB1C464FF06C
:100820000043524263EB0403994208BF904230BD3B
:10083000064C074D06E0E06840F0010394E807002D
:1008400098471034AC42F6D3FFF776FC946C00085E
:10085000B46C0008202A04DB203A00FA02F10020E0
:1008600070479140C2F1200320FA03F319439040EE
:100870007047202A06DBCB17203A41FA02F043EA00
:10088000E07306E041FA02F3D040C2F12002914049
:1008900008431946704710B5141E73F1000408DAB6
:1008A000401C41F1000192185B411A4301D120F034
:1008B000010010BD2DE9F04D92469B4611B1B1FAF1
:1008C00081F202E0B0FA80F220329046FFF7C2FFD8
:1008D00004460F4640EA0A0041EA0B0153465A46D5
:1008E000084313D0114653EA010019D0C8F1400261
:1008F0005046FFF73BFC05460E46504659464246D9
:10090000FFF7A8FF084305D0012004E02046394640
:10091000BDE8F08D0020054346EAE0762C433743DE
:100920000A986305E40AA0EB08000022FD0A44EAE5
:1009300047540A3002D500200146E9E701051019A5
:100940006941DDE9084500196941BDE8F04DA2E7BC
:10095000014800F04EBA0000D404002070B50446EF
:1009600000688168C943C90717D1816821F0010176
:10097000816000F0ADFE05460AE000BF00F0A8FE71
:10098000401B022804D920688068C043C00706D0F5
:1009900020688068C043C007F0D0002070BDA06A06
:1009A00040F01000A062E06A40F00100E062012027
:1009B00070BD10B50146406A826A12F0500F05D032
:1009C000006A026BBDE8104008461047816A41F496
:1009D0000071816201688968C1F3424107290CD125
:1009E000017B51B9816A21F480718162816AC904F5
:1009F00003D4816A41F00101816200F0F7F910BD72
:100A000010B5406A816A41F040018162C16A41F0DB
:100A10000401C16200F0ECF910BD10B5406A00F0AD
:100A2000E6F910BDF8B50026044600960068816816
:100A3000C943C9072DD0816841F001018160164882
:100A400016490068B0FBF1F000E0401E009000285D
:100A5000FBD100F03DFE054616E000BF00F038FE79
:100A6000401B022810D920688068C043C0070BD003
:100A7000A06A40F01000A062E06A40F00100E0626D
:100A800084F824600120F8BD20688068C043C00756
:100A9000E4D10020F8BD00003800002040420F00E3
:100AA000FEE7000070B50546B0F5000F01DA074813
:100AB00070BD0749FFF7F0FB044606492846FFF7DB
:100AC000EEFB2146BDE87040FFF71BBC00247449D3
:100AD00033335340000020410FB400B5C1B043AAE6
:100AE0006846429904F036FB6846FFF779FB82B20C
:100AF0004FF6FF736946034802F031F841B05DF8E4
:100B000014FB00008406002030B590F8405001240A
:100B1000AC40C56B6C60046863604368102B03686D
:100B200003D099600068C26030BD9A600068C160FF
:100B300030BD704710B54FF4805000F0B7FC4FF453
:100B4000005000F0B3FC4FF4804000F0AFFCBDE873
:100B500010404FF4004000F0A9BC10B5202000F078
:100B6000A5FC4FF4807000F0A1FCBDE810404FF4EC
:100B7000007000F09BBC72B6FEE700001021014837
:100B800000F09CBD001001400221014800F096BD1C
:100B9000000C01404FF40071014800F08FBD0000CF
:100BA000000C01402021014800F088BD00100140E8
:100BB0004FF48061014800F081BD0000000C01404D
:100BC0004FF48071014800F079BD0000000C014035
:100BD0000121014800F072BD000C01404FF400619A
:100BE000014800F06BBD0000000C01404FF40041D3
:100BF000014800F063BD0000000801404FF480711F
:100C0000014800F05BBD0000000801404FF4007196
:100C1000014800F053BD0000001001404FF4807106
:100C2000014800F04BBD00000010014002460221C7
:100C3000014800F048BD00000010014002460121BB
:100C4000014800F040BD00000010014002460821AC
:100C5000014800F038BD00000008014002464FF492
:100C60008051014800F02FBD000C014002460821D0
:100C7000014800F028BD0000001001400246042198
:100C8000014800F020BD0000001001400246202174
:100C9000014800F018BD0000000801400246102184
:100CA000014800F010BD000000080140024640214C
:100CB000014800F008BD00000010014002468021FC
:100CC000014800F000BD00000010014002468021F4
:100CD000014800F0F8BC0000000801400246042171
:100CE000014800F0F0BC0000001401407047000013
:100CF000F8B50024009490F824202546012A12D04B
:100D0000012280F824204A681F23072A0DD2066892
:100D1000776B521E02EB820293409F430B68934015
:100D20001F43776319E00220F8BD06680D2A0AD236
:100D3000376BD21F02EB820293409F430B689340B4
:100D40001F43376309E0F76A0D3A02EB82029340D2
:100D50009F430B6893401F43F7620A6807230668A6
:100D60000A2A0AD3F7680A3A02EB420293409F43E9
:100D70008B6893401F43F76008E0376902EB42023B
:100D800093409F438B6893401F4337610A68102A42
:100D900001D0112A20D1124B02689A4217D19368D0
:100DA0001B0219D4936843F4000393600968102967
:100DB00012D10C490C4A0968B1FBF2F101EB810137
:100DC000490000E0491E00910029FBD104E0816A3E
:100DD00041F020018162012480F824502046F8BDB2
:100DE000002401403800002040420F007047704747
:100DF000704770B50446006806684568A90625D5A1
:100E0000B10723D5A16AC90603D4A16A41F40071D0
:100E1000A1628168C1F34241072910D1217B71B9D8
:100E2000416821F020014160A06A20F48070A06236
:100E3000A06AC00403D4A06A40F00100A06220466A
:100E4000FFF7D4FF21686FF01200086028062ED546
:100E500070072CD5A06AC00603D4A06A40F40050E5
:100E6000A06220688168C1F30231072909D0416876
:100E7000490515D48168C1F34241072910D1217B6E
:100E800071B9416821F080014160A06A20F480506E
:100E9000A062A06AC00503D4A06A40F00100A0626D
:100EA0002046FFF723FF21686FF00C0008606806FA
:100EB0000CD5F0070AD0A06A40F48030A06220462A
:100EC00000F096F821686FF00100086070BD000026
:100ED0002DE9F04104004FF000057FD0A06A002604
:100EE00028B9E66284F82460204600F083F82046A2
:100EF000FFF734FDA16AC90600D420B1A06A40F012
:100F00001000A0626AE0A16A21F4885141F0020158
:100F1000A162334923688B42E16904D1B1F5402FC6
:100F200001D14FF40021277B4FF4807C41EA470236
:100F300061680A43A168614508D0012906D00021F3
:100F400094F814E0BEF1010F02D00AE06146F7E721
:100F5000C7B1A76A47F02007A762E76A47F0010711
:100F6000E7625F6827F469470F435F602368996809
:100F70001C4F394011439960A16861450BD001298C
:100F800009D00CE0DFF860E0A7690EEB47370F43AC
:100F900047F40061E5E7218A0D05A5F58015216874
:100FA000CB6A23F470032B43CB62216889680F4B13
:100FB0001940914208D1E662A16A21F0020141F094
:100FC0000101A162BDE8F081A06A20F0020040F0BA
:100FD0001000A062E06A40F00100E0620120F1E749
:100FE000003C0140FDF7E1FF00E0FFFFFE0E1FFFA8
:100FF0007047000070B586B0002506460095019543
:101000000295039500681E49884236D11D498869BA
:1010100040F400708861886900F400700490886969
:1010200040F0040088618869694600F0040004907B
:101030000720009003200190134800F043FA144C5D
:101040001248C4E900058020C4E902504000206134
:10105000800060612020C4E90605204600F05CF9AC
:1010600008B1FFF788FD3462002205211220666274
:1010700000F0DAFD122000F0C9FD06B070BD0000DE
:101080000024014000100240000801400800024016
:10109000040500202DE9F047894604463B490068D5
:1010A0003B4F0E1D9046884201D0B84207D13068B0
:1010B00010F4702F03D001252846BDE8F08794F87E
:1010C000240001280CD0012084F824002046FFF7DA
:1010D000A9FC05004FF0000004D084F82400EBE7E1
:1010E0000220EAE7A16A40F60162914341F480716F
:1010F000A1622168B94218D1326812F4702F14D05D
:10110000A16A41F48011A1623168490505D5A16A3F
:1011100021F4005141F48051A162A16AC9040AD5A9
:10112000E16A21F00601E16206E0A26A22F480127F
:10113000A2624968E9E7E06284F82400216A154860
:101140008862216A1448C862216A144808632168C9
:101150006FF0020008602068816841F4807181604E
:10116000216843464A464C31206A00F013F9206852
:101170008168C1F342410729816803D041F480119D
:10118000816099E741F4A001FAE7000000240140E2
:1011900000280140B30900081B0A0008010A0008E2
:1011A00010B590F821100022022905D00421816396
:1011B00080F82020012010BD01680B6823F00E0389
:1011C0000B6001680B6823F001030B6090F840305E
:1011D000C46B012101FA03F3636080F8211080F8E9
:1011E0002020104610BD00002DE9F05F90F821107E
:1011F0000024022903D004218163012485E00168D1
:101200000A6822F00E020A6001680A6822F00102F0
:101210000A603F4E3E4FB215DFF8F4C0DFF8F090A1
:10122000DFF8ECA0DFF8E8B0DFF8E4E00168783F31
:1012300013011502ACF1640CA9F15009AAF13C0AA2
:10124000ABF1280BAEF1140E4FF48018B14227D940
:10125000B9420ED0614512D049451DD0514518D034
:10126000594518D0714501D1424615E0294EB14289
:1012700001D1012210E0274E1436B14201D11022D3
:101280000AE0244E2836B14206D0224A3C3291422E
:1012900001D11A4600E02A461E49091F0A602BE0C8
:1012A000B94213D0614517D0494522D051451DD0D0
:1012B00059451DD0714501D142461AE0B14202D1D3
:1012C0004FF0807215E0134EB14201D1012210E0BF
:1012D000104E1436B14201D110220AE00D4E2836CC
:1012E000B14206D00B4A3C32914201D11A4600E08D
:1012F0002A46074980394A60012180F821100021DF
:1013000080F82010416B01B188472046BDE8F09F6E
:10131000800002400804024030B560B11A4B0268F8
:1013200014219A4209D2194B1344B3FBF1F18900FD
:10133000016417490AE0012030BD134B5B4213449E
:10134000B3FBF1F1890001640F490839C16302213F
:1013500080F82110136843F6F0718B43F0E9011413
:101360002143D0E902452C432143046921434469C8
:101370002143846921431943116000214163012203
:1013800042770177084630BD08040240F8FFFDBFF0
:101390000000024070B5044690F8200000250128A6
:1013A0000CD0012084F8200094F821600020012E48
:1013B00006D084F820000225284670BD022070BDAA
:1013C000022684F82160A0632068066826F00106E2
:1013D00006602046FFF798FBE06A00282068016855
:1013E00002D041F00E0106E021F004010160206806
:1013F000016841F00A0101602068016841F00101C3
:101400000160D9E770B5044600F062F90546601C3A
:1014100002D004480078044400F05AF9401BA0426E
:10142000FAD370BD2C000020024610B54FF40071B5
:1014300016488A421BD00ADC202A1DD04FF4807146
:101440008A4222D100F03AF9014602200BE0B2F5BF
:10145000805F16D04FF400418A4216D10C4800F04C
:101460002DF901460320BDE8104002F07BBC00F0DE
:1014700025F901460120F6E7BDE8104005A0FFF779
:101480002BBB09480168491C016010BD000C0140DC
:101490000008014044435F4354524CD6D0B6CFB409
:1014A000A5B7A20D0A0000000C000020044910B5E9
:1014B0000A68024202D00860FFF7B6FF10BD0000C4
:1014C000140401402DE9F84FDFF8C8910024A9F178
:1014D000040B23460F2709F1040AABF1040ED1E0F7
:1014E0000125A54006EA0502AA4276D1DFF8A8C187
:1014F0004E68A6EB0C0866452BD00DDC032E34D0CD
:1015000005DC36B3012E19D0022E2FD11BE0112E8F
:1015100016D0122E2AD119E0B8F5881F19D006DC92
:10152000B8F5803F15D0B8F5801F1FD111E0B8F590
:10153000001F0ED0B8F5041F18D10AE0CB6815E0E3
:10154000CB681B1D12E0CB6808330FE0CB680C336F
:101550000CE08B682BB1012B4FF0080303D04561E1
:1015600004E0042302E0056100E00023FF2A01D823
:10157000064601E000F104064FEA840501D9A5F111
:101580002005D6F8008007FA05FC28EA0C0803FAC3
:1015900005F548EA0508C6F800804D68ED0070D5ED
:1015A0003E4DAE6946F00106AE61AD6924F003061A
:1015B00005F0010500953A4D06EB050CDCF80850E6
:1015C000A607360F07FA06F825EA0805DFF8D480E3
:1015D000404503D14FF0000825E052E0DFF8C88015
:1015E000404502D14FF001081DE0DFF8C0804045C2
:1015F00002D14FF0020816E0DFF8B480404502D176
:101600004FF003080FE0DFF8AC80404502D14FF007
:10161000040808E0DFF8A080404502D14FF005083B
:1016200001E04FF0060808FA06F848EA0508CCF889
:1016300008804D68D9F80060ED024D4601D516438B
:1016400000E096432E604D68DAF80060AD02554622
:1016500001D5164300E096432E604D68DBF800602C
:10166000AD035D4601D5164300E096432E604D68FC
:10167000DEF80060ED03754601D5164300E09643A1
:101680002E60641C0A681646E2407FF429AFBDE86C
:10169000F88F000008040140000011100010024003
:1016A0000000014000080140000C01400010014012
:1016B0000014014000180140001C014080680840EF
:1016C00000D0012070470AB1016170470904FBE7AF
:1016D00001488068704700002C00002070B50400AD
:1016E00025D094F83D00002520B984F83C502046D0
:1016F00000F006FA242084F83D002068016821F0FB
:10170000010101602068016841F400410160206826
:10171000016821F40041016000F0C4FB4D4A61689A
:10172000914201D84C4900E04C49884201D2012045
:1017300070BD4B492368B0FBF1F15E6826F03F06AF
:101740000E435E606368934206D94FF49673594323
:101750004FF47A73B1FBF3F12368491C1E6A26F03B
:101760003F06314319626168914210D84900401E1A
:10177000B0FBF1F2521CC2F30B02042A01D2042086
:1017800022E0B0FBF1F0401CC0F30B001CE0A268AB
:10179000F2B301EBC10303EB0116431EB3FBF6F3F7
:1017A0005B1C43F480431B0549D092B301EBC1029B
:1017B00002EB0111401EB0FBF1F0401CC0F30B0026
:1017C00040F4804040F400402168CA694CF6FF7341
:1017D0009A431043C861D4E90710014320680268A6
:1017E00022F0C00211430160D4E9030101432068E3
:1017F000826848F2FF339A4311438160D4E90501BE
:1018000008432168CA6822F0FF021043C86001E063
:101810000EE016E02068016841F0010101602564D6
:10182000202084F83D00256384F83E50002070BDE0
:1018300001EB4106431EB3FBF6F35B1CB3E701204B
:10184000C2E701EB4101401EB0FBF1F0401CC0F3C8
:101850000B00B7E7A086010080841E0000093D0050
:1018600040420F002DE9FF4F81B089460446FFF743
:101870002FFF054694F83D004FF0000820287DD149
:101880001923012250492046009501F051FA002801
:1018900074D194F83C00012870D0012084F83C00F9
:1018A00020680168C90703D1016841F001010160A6
:1018B0002068016821F400610160242084F83D0063
:1018C000002626644148E0624FF0011B2027206873
:1018D000016841F48071016000950022594620465C
:1018E000049B01F025FA50B120680068C00502D5BC
:1018F0004FF400702064032005B0BDE8F08F21682C
:1019000009F0FE000861FFF7E3FE2168054648691B
:101910004969C0F34000C1F380214FF0A00A0FE0F5
:10192000FFF7D6FE411B0498814200D808B984F81D
:101930003DA0216848694969C0F34000C1F3802196
:1019400094F83D20A02A02D008B90029E8D084F8F4
:101950003D7020684169C943890716D4016841F484
:1019600000710160206841698069192301221649CC
:101970002046009501F0DCF9B8B900E021E084F8D8
:101980003D7084F83C600020B6E7016841F40071C6
:10199000016021686FF480604861192301220A49BF
:1019A0002046009501F0C4F908B10120A4E703988E
:1019B00008F1010880458AD384F83D7084F83C60C2
:1019C000F3E7022098E70000020010000000FFFF8C
:1019D0002DE9FF4F83B09A46DDE9119793460446FF
:1019E000DDF84080FFF774FE054694F83D0020289E
:1019F0007FD11923012240492046009501F098F932
:101A0000002876D194F83C00012872D0012084F897
:101A10003C0020680168C90703D1016841F0010159
:101A200001602068016821F400610160212084F8D0
:101A30003D00402084F83E0000262664C4F824803F
:101A4000A4F82A90608D20852C48E062CDE90075CD
:101A500053465A462046049901F0EAF870B930E03E
:101A60002A463946204601F009FA58B1206C04286C
:101A700004D12068016841F400710160012007B0C1
:101A8000BDE8F08F606A216800780861606A401CD8
:101A90006062218D491E89B22185628D521E628548
:101AA00022685369DB435B070BD469B1007810618E
:101AB000606A401C6062208D401E2085608D401E43
:101AC0006085208D0028CBD12A463946204601F07A
:101AD00003F90028CAD154F83D0B016841F40071A4
:101AE0000160202004F81E09E67766770020C6E72B
:101AF000FFE70220C3E70000020010000000FFFF24
:101B000010B586B000210091019102910391006807
:101B10000F4988421AD10F4CA06940F00800A0611B
:101B2000A069694600F008000490C02000901220CF
:101B30000190032003900848FFF7C4FCE06940F4DB
:101B40000010E061E06900F40010049006B010BDE0
:101B50000054004000100240000C0140024881681F
:101B600002781144816070472C000020074810B5AE
:101B7000016841F010010160032000F075F80F20AA
:101B800000F006F800F024F8002010BD002002400C
:101B900070B50D4D04464FF47A712878B1FBF0F022
:101BA0000A490968B1FBF0F000F0E6FB48B9102CD7
:101BB00007D200222146501E00F036F800206C604B
:101BC00070BD012070BD00002C00002038000020F6
:101BD0000C4808B5816941F001018161816901F01A
:101BE00001010091C16941F08051C161C06900F0FB
:101BF000805000900448416821F0E06141F000719C
:101C0000416008BD0010024000000140002809DBCF
:101C100000F01F02012191404009800000F1E02006
:101C2000C0F8001170470000F0B40E4B1B680C4662
:101C3000C3F30223C3F10705042D00D90425191DA0
:101C4000072901D2002300E0DB1E012606FA05F178
:101C5000491E214099409E40761E16403143F0BCFB
:101C600003F08ABA0CED00E0064900F007020868AC
:101C70004FF6FF03184040EA0220034A1043086071
:101C8000704700000CED00E00000FA052DE9F84374
:101C900005460078354CC00754D0E0690026C000E6
:101CA00008D4E06940F08050E061E069012600F06E
:101CB000805000902E480168C90512D40168804602
:101CC00041F480710160FFF703FD074605E000BFA6
:101CD000FFF7FEFCC01B642823D8D8F80000C0051D
:101CE000F6D5206A10F4407021D0A98801F4407123
:101CF00081421CD0206A1F49012220F440700A60F2
:101D000000220A602062C00711D0FFF7E1FC0746FD
:101D100041F2883808E000BFFFF7DAFCC11B4145FB
:101D200002D90320BDE8F883206A8007F4D5206A31
:101D3000696820F44070084320621EB1E06920F019
:101D40008050E0612878800705D56068A96820F494
:101D50004040084360602878C00605D5606869691E
:101D600020F48000084360600020DBE700100240A0
:101D700000700040400442422DE9F0470F46050044
:101D800061D0434E306800F00700B84209D2306895
:101D900020F0070038433060306800F00700B84298
:101DA00051D128683B4C810712D5400703D56068A4
:101DB00040F4E06060602878000703D5606840F474
:101DC000605060606068A96820F0F00008436060BF
:101DD0002878C00728D06868012810D02168022818
:101DE00010D0890700292EDA616821F00301014330
:101DF0006160FFF76DFC804641F288390DE0216893
:101E00008903EFE78901EDE7FFF762FCA0EB08012A
:101E1000494502D90320BDE8F0876068696800F091
:101E20000C00B0EB810FEFD1306800F00700B84232
:101E30000BD9306820F0070038433060306800F07C
:101E40000700B84201D00120E5E72878400705D512
:101E50006068E96820F4E060084360602878000763
:101E600006D56068296920F4605040EAC1006060CE
:101E700000F038F86168084AC1F30311515CC840AA
:101E80000649086006480068FFF782FE0020C2E7A6
:101E90000020024000100240906B00083800002033
:101EA000300000200448054900684968044AC1F32D
:101EB0000221515CC84070473800002000100240E9
:101EC000A06B00080448054900684968044AC1F34A
:101ED000C221515CC8407047380000200010024009
:101EE000A06B00080E4A51680E4801F00C03042B49
:101EF00011D0082B0FD10C48C1F38343C903C05C38
:101F00000AD55168084AC1F34041921E515C054A06
:101F10005043B0FBF1F0704704494843704700005C
:101F20000010024000127A00806B000800093D009A
:101F30002DE9F84F040070D02078C04DC00749D07B
:101F40006868C0F38100012807D06868C0F3810089
:101F5000022809D16868C00306D52868800339D5EE
:101F600060680028E7D035E06068B0F5803F0BD0AE
:101F700010B1B0F5A02F11D0286820F4803028606F
:101F8000286820F4802002E0286840F4803028602F
:101F9000606890B1FFF79CFB06460AE0286840F4B1
:101FA00080202860F0E700BFFFF792FB801B6428C9
:101FB00073D828688003F7D50CE0FFF789FB064645
:101FC00005E000BFFFF784FB801B6428F0D8286879
:101FD0008003F7D420789A4E80074FF001094FF024
:101FE000000839D5686810F00C0F07D06868C0F396
:101FF0008100022809D16868C00306D428688007D8
:1020000014D52069012808D110E02069B0B1C6F8C4
:102010000090FFF75DFB074605E00AE1FFF758FB7C
:10202000C01B0228C4D828688007F7D528686169D2
:1020300020F0F80040EAC10028600DE0C6F80080FA
:10204000FFF746FB074604E0FFF742FBC01B0228F0
:1020500023D828688007F7D4207800072CD5794842
:10206000A169D9B1C0F80090FFF732FB074604E040
:10207000FFF72EFBC01B02280FD8686A8007F7D530
:1020800071484FF4FA510068B0FBF1F0009000BFC6
:102090000098411E0091FAD20EE080E0C0F8008066
:1020A000FFF716FB074604E0FFF712FBC01B0228F0
:1020B00075D8686A8007F7D42078400760D5E8694A
:1020C0000027C00008D4E86940F08050E861E86962
:1020D000012700F0805000905C480168C90513D4C6
:1020E0000168834641F480710160FFF7F1FA82468E
:1020F00006E000BFFFF7ECFAA0EB0A0064284ED818
:10210000DBF80000C005F5D5E06801280AD008B169
:10211000052813D0286A20F001002862286A20F0E0
:10212000040002E0286A40F001002862E06841F201
:10213000883B98B1FFF7CCFA82460BE0286A40F062
:1021400004002862EEE700BFFFF7C2FAA0EB0A0125
:1021500059455AD8286A8007F6D50CE0FFF7B8FA37
:10216000824605E0FFF7B4FAA0EB0A0159454CD8C6
:10217000286A8007F6D41FB1E86920F08050E86132
:10218000E06988B36968C1F38101022944D002285B
:10219000C6F8608004D0FFF79BFA044638E034E0CC
:1021A000FFF796FA074604E0FFF792FAC01B0228F1
:1021B0002BD828688001F7D4206AB0F5803F05D17C
:1021C0006868A16820F4003008436860D4E9080119
:1021D0000843696821F4741108436860C6F8609088
:1021E000FFF776FA044606E025E000BFFFF770FA35
:1021F000001B022809D828688001F7D51BE000BF22
:10220000FFF766FA001B022802D90320BDE8F88F09
:1022100028688001F4D40EE00128F7D06868226AAB
:1022200000F48031914204D1616A00F47010884258
:1022300001D00120EAE70020E8E70000001002409A
:1022400000004242800442423800002000700040FA
:1022500070B5040009D0606A002540B12561656150
:10226000A56294F8510040B10CE0012070BD606897
:10227000B0F5827FF4D0E561F2E784F85050204653
:1022800000F040F8022084F851002068016821F035
:1022900040010160A088218900F4827001F40441AA
:1022A0000843A18901F400610843217C01F0020187
:1022B0000843217D01F001010843218B01F40071E5
:1022C0000843217F01F03801084394F8201001F001
:1022D00080010843218D01F4005108432168086002
:1022E000A069042101EA1040216848602068C169A2
:1022F00021F40061C1616565012084F8510000206E
:1023000070BD000030B585B00024009401940294A3
:10231000039400681549884225D11548C16941F4E4
:102320008041C161C16901F480410491816941F03A
:102330000801816180690F4D00F0080004904FF49E
:102340002040009002200190032003906946284617
:10235000FFF7B8F84FF48040CDE9000469462846FD
:102360000294FFF7AFF805B030BD00000038004020
:1023700000100240000C014010B5401EB0F1807FFB
:1023800001D3012010BD4FF0E02460610F216017E0
:1023900002F0F2FE0020A06107202061002010BDA5
:1023A00070B590F83C20012A2CD0012480F83C40E4
:1023B000022280F83D2003685A689D6822F070066A
:1023C0000A6832435A60104B02689A420ED00F4B93
:1023D0009A420BD0B2F1804F08D00D4B9A4205D0F3
:1023E0000C4B9A4202D00C4B9A4204D1496825F01A
:1023F00080031943916080F83D40002180F83C1033
:10240000084670BD022070BD002C01400034014020
:102410000004004000080040000C004010B504001B
:1024200003D094F83D0010B107E0012010BD00205A
:1024300084F83C00204600F01FF8022084F83D009C
:10244000211D206802F0B4FA012084F8460084F8C7
:102450003E0084F83F0084F8400084F8410084F88E
:10246000420084F8430084F8440084F8450084F86E
:102470003D00002010BD000008B5006806498842F4
:1024800008D10648C16941F00201C161C06900F08C
:102490000200009008BD000000040040001002404F
:1024A00070B5044690F83C000025012817D001269D
:1024B00084F83C60022084F83D002068826822F0A5
:1024C000770222F47F4282600868502838D00DDC01
:1024D00020284FD005DC90B3102811D14AE002200B
:1024E00070BD302846D040280AD13BE060282FD06C
:1024F00070280DD0B0F5805F03D0B0F5005F12D02A
:10250000012584F83D60002084F83C00284670BD19
:10251000CB68D1E90121206802F0A5FA2068816822
:1025200041F0770109E0CB68D1E90121206802F090
:102530009AFA2068816841F480418160E1E719E0FE
:10254000CA684968206802F063FB5021206806E0F1
:10255000CA684968206802F06CFB6021206802F0BC
:102560008CFACEE7CA684968206802F051FB402126
:102570002068F4E7226801461046F0E700B585B010
:102580000021009101910291039100680B4988425A
:1025900011D10B48816941F004018161806969466C
:1025A00000F004000490402000900220019003906D
:1025B0000448FEF787FF05B000BD0000000400409E
:1025C000001002400008014070B5044690F83C003D
:1025D00000260D4601280FD0012084F83C006AB186
:1025E000042A1DD0082A2FD00C2A3FD00126002013
:1025F00084F83C00304670BD022070BD206802F0B7
:1026000045FA2068816941F008018161206881698B
:1026100021F004018161206881692A69114311E078
:10262000206802F063FA2068816941F400618161E9
:102630002068816921F480618161206881692A694B
:1026400041EA02218161D2E7206802F085FA206820
:10265000C16941F00801C1612068C16921F004012C
:10266000C1612068C1692A69114311E0206802F044
:10267000A7FA2068C16941F40061C1612068C1699D
:1026800021F48061C1612068C1692A6941EA02219F
:10269000C161ACE710B5040003D094F83D0010B15F
:1026A00007E0012010BD002084F83C00204600F027
:1026B0001EF8022084F83D00211D206802F078F900
:1026C000012084F8460084F83E0084F83F0084F836
:1026D000400084F8410084F8420084F8430084F804
:1026E000440084F8450084F83D00002010BD704788
:1026F00010B50446022249B104290ED0082913D08E
:1027000094F84100012816D0012010BD94F83E0035
:102710000128F9D184F83E200FE094F83F00012809
:10272000F2D184F83F2008E094F840000128EBD172
:1027300084F8402001E084F841200122206802F062
:1027400085F913492068134A884201D0904203D189
:10275000436C43F400434364206888420DD09042A8
:102760000BD0B0F1804F08D00B49884205D00B49FF
:10277000884202D00A49884204D1816801F00701E9
:10278000062903D0016841F001010160002010BD5D
:10279000002C0140003401400004004000080040CB
:1027A000000C004070477047F8B50168044608689F
:1027B000CA684B6910F00F0F4FF0000559D003F0B5
:1027C000010602F49077374365D0C10705D0D105E3
:1027D00003D5616C41F001016164410705D5D9075A
:1027E00003D0616C41F002016164810705D5D9070E
:1027F00003D0616C41F004016164010707D502F068
:102800002001314303D0616C41F008016164616CC7
:1028100000293AD0800604D5900602D5204602F061
:1028200086FB20684069616CC0F38010090700D402
:1028300060B3204602F054FB20684069400621D571
:102840002068143050E8001F21F0400140E80012D9
:10285000002AF5D1E06BA8B16D494163E06BFEF74A
:10286000C3FC002811D0E06B416B01B0BDE8F04023
:10287000084783060FD593060DD52046BDE8F840DE
:1028800002F055BB2046FFF78EFFF8BD2046FFF74C
:102890008AFF6564F8BD266B2023012E7CD1C60615
:1028A0007AD5D60678D508684868009048694FF010
:1028B0000206400640D5E16B086840680004000C41
:1028C000E8D0A28D8242E5D9E085886920282DD004
:1028D00020680C3050E8001F21F4807140E800129D
:1028E000002AF5D12068143050E8001F21F00101C2
:1028F00040E80012002AF5D12068143050E8001F8B
:1029000021F0400140E80012002AF5D184F842305D
:10291000256320680C3050E8001F21F0100140E8CA
:102920000012002AF5D1E06BFEF73AFC6663A08D39
:10293000E18D401A81B22AE0A08DE18D401A81B26A
:10294000E08D0028A6D00029A4D022680C3252E8DD
:10295000000F20F4907042E80007002FF5D12068A6
:10296000143050E8002F22F0010240E80027002F29
:10297000F5D184F84230256320680C3050E8002FF0
:1029800022F0100240E80023002BF5D166632046B8
:10299000FFF708FFF8BDFFE705062BD5150629D57B
:1029A00094F841002128F5D1A068B0F5805F01D1ED
:1029B0002069B0B1206A411C21622168007848601A
:1029C000E08C401E0004000CE084E3D12068C16864
:1029D00021F08001C1602068C16841F04001C16000
:1029E000D8E7206A0088C0F308004860206A801C8D
:1029F0002062E5E74006CDD55006CBD5CA68204613
:102A000022F04002CA6084F8413000F0F8F8C1E7D3
:102A1000D14E000870B5040004D094F841000025A0
:102A200010B106E0012070BD84F84050204600F04F
:102A300023F8242084F841002068C16821F4005163
:102A4000C160204602F0D4FA2068016921F4904167
:102A500001612068416921F02A0141612068C16853
:102A600041F40051C1606564202084F8410084F87D
:102A700042006563002070BD70B586B000240094EC
:102A800001940294039403682F482E4E02210322DE
:102A90000515B34221D1836943F48043836183697F
:102AA00003F480430493836943F0040383618069E2
:102AB000264E00F0040004900802CDE900010392C4
:102AC00069463046FEF7FEFCCDE9005469463046C3
:102AD0000294FEF7F7FC06B070BD1D4EB342FAD16A
:102AE000C36943F48023C361C36903F4802304935F
:102AF000836943F0100383618069CDE9005100F0E0
:102B00001000CDE90320134D69462846FEF7DAFC94
:102B1000E814CDE90004694628460294FEF7D2FC89
:102B20000D48416821F0300141F0E06141F01001B1
:102B30004160002211462720FFF776F82720FFF793
:102B400065F8C8E700380140001002400008014065
:102B500000480040001001400000014070472DE98E
:102B6000F843044690F84100984616460D46202842
:102B700002D00220BDE8F88385B17EB100206064F8
:102B8000212084F84100FEF7A3FDA6848146E68457
:102B9000A0682027B0F5805F02D003E00120E9E7BC
:102BA000206910B12E4600250EE000260CE08021A1
:102BB000204602F079FAA8B9C6B116F8010B2168CF
:102BC0004860E08C401EE084E08C4B464FF00002F1
:102BD000CDF800800028EAD14FF04001204602F0F5
:102BE00063FA40B184F841700320C3E735F8020B63
:102BF000C0F30800E3E784F841700020BAE77047AB
:102C0000FEE701684A69D24352050FD46FF480622F
:102C10004A61002140F8301F20224273817302690B
:102C200042F00402026101730120704700207047E6
:102C30002DE9F843044600680D46DDE90897016870
:102C40009846164641F4807101604B4600224FF0D1
:102C500001112046009700F06BF848B12068006829
:102C6000C00502D54FF4007020640320BDE8F8834E
:102C7000216805F0FE0008613B464A46154920469A
:102C800000F09EF888B920684169806900903A4652
:102C90004946204600F0F2F848B1206C042804D1DF
:102CA0002068016841F4007101600120DEE7F5B29F
:102CB000B8F1010F09D02168300A08613A46494647
:102CC000204600F0DBF80028E7D1206805610020ED
:102CD000CCE700000200010070B516460D46044620
:102CE0001EE02046FFF78DFF08B1012070BD681C73
:102CF00016D0FEF7EDFC801BA84200D885B92068ED
:102D00004069C04340070BD5002044F8300F202114
:102D10006173A073216941F0200121612073E4E710
:102D200020684069C0434007DBD4002070BD00002C
:102D30002DE9F047984617460D460446C1F307466D
:102D4000DDF820902AE000BFB8F1FF3F26D0FEF763
:102D5000BFFCA0EB0901414502D8B8F1000F1DD11D
:102D60002068012E16D0806925EA00000004000CBE
:102D700012D00020B84211D1002044F8300F202199
:102D80006173A073216941F020012161207301204A
:102D9000BDE8F0874069E7E70120EBE72068012EF6
:102DA0000AD0806925EA00000004000C06D000204B
:102DB000B842C9D00020EBE74069F3E70120F7E70C
:102DC0002DE9F047984616460D4604464FF0000997
:102DD0004FF0200AC1F3074723E020684069C04351
:102DE000400515D42068016841F400710160216834
:102DF0006FF480604861C4F8309084F83DA084F896
:102E00003E90216C41F00401216484F83C9021E063
:102E1000701C06D0FEF75CFCA0EB0800B04203D8A3
:102E200016B1012F1FD021E02068012F15D0806935
:102E300025EA00000004000C18D000BF44F8309FC1
:102E400084F80DA084F80E90216941F020012161E1
:102E500084F80C900120BDE8F087406925EA000065
:102E60000004000CEAD12068406901E02068806914
:102E700025EA00000004000CAFD1ECE770B516465F
:102E80000D4604461EE02046FFF7BBFE08B10120B8
:102E900070BD681C16D0FEF71BFC801BA84200D832
:102EA00085B920684069C04300060BD5002044F86E
:102EB000300F20216173A073216941F0200121614D
:102EC0002073E4E720684069C0430006DBD400209B
:102ED00070BD0000FEB500251B48009501951949FD
:102EE000029501608915816001240473057503262C
:102EF00006614FF460214560C161FDF7E9FF08B14B
:102F0000FDF739FE022705200094CDE901706946DE
:102F10000D48FDF7EDFE08B1FDF72DFECDE9007679
:102F200069460948FDF7E4FE08B1FDF724FECDE946
:102F3000005469460448FDF7DBFE002801D0FDF788
:102F40001AFEFEBD00240140D4040020054808B547
:102F5000416941F001014161406900F001000090C8
:102F600008BD0000001002402DE9F04F85B000269A
:102F700061480096019602960396816941F010011E
:102F80008161816901F010010491816941F02001A2
:102F90008161816901F020010491816941F004019E
:102FA0008161816901F004010491816941F00801A6
:102FB00081618069DFF844A100F0080004900122DB
:102FC000CF215046FEF77FFBDFF834B10122B82154
:102FD0005846FEF778FB41F218080122414649485D
:102FE000FEF771FB4FF40069002249465846FEF790
:102FF0006AFB012204214448FEF765FB4FF4E040E0
:10300000009042480124CDE9010469465046FEF78C
:1030100059FACF20CDE90004032569465046CDE991
:103020000245FEF74FFAB820CDE90004694658463C
:10303000CDE90245FEF746FA4FF44C7002278DE8C1
:10304000C10069465046FEF73DFA40F603408DE860
:10305000C10069462B48FEF735FACDE90084694680
:103060002848CDE90245FEF72DFA20028DE8C1007F
:1030700069465846FEF726FACDF800900395CDE94B
:10308000014769465846FEF71DFA214EE003CDE997
:103090000006694602945846FEF714FA0420CDE96A
:1030A000000469461848CDE90245FEF70BFA2020D6
:1030B00000901848CDE9010469461248FEF702FA6B
:1030C0002802CDE90006694602940E48FEF7FAF997
:1030D000002204211720FEF7A7FD1720FEF796FD1A
:1030E000002204212820FEF79FFD2820FEF78EFDF8
:1030F00005B0BDE8F08F0000001002400010014054
:1031000000080140000C01400014014000002110A3
:1031100000003110000011100D4810B50B4901607E
:103120000C49416000214FF480428160C0E90312E4
:1031300041618161C1610162FEF7D0FA002803D0CC
:10314000BDE81040FDF717BD10BD00000054004061
:1031500048050020A0860100104810B50E49016006
:103160004FF48271416000218160C1604FF40072B0
:103170000161C0E905121822C0E90721416281629C
:103180000A21C162FFF764F8002803D0BDE81040AF
:10319000FDF7F1BC10BD0000003800409C05002088
:1031A00010B58EB000240794089409940A940B94E7
:1031B0001C2168460C94FCF7F0FF1F481D49016074
:1031C0002321C0E901146321C0E903148021816136
:1031D000FFF724F908B1FDF7CEFC4FF480500790BB
:1031E00007A91548FFF75CF908B1FDF7C4FC1248C0
:1031F000FFF750FA08B1FDF7BEFC0B940BA90E487F
:103200000C94FFF7CDF808B1FDF7B5FC60200090F5
:103210003220CDE901040022694607480494FFF7F3
:10322000D3F908B1FDF7A7FC0348FFF7A7F90EB0E3
:1032300010BD000000040040F40500200C4810B54B
:103240000A4901604FF416514160002181600C224F
:10325000C160C0E904128161C161FFF7DBFB002896
:1032600003D0BDE81040FDF786BC10BD003801401A
:103270003C0600200C4810B50A4901604FF4E131CA
:103280004160002181600C22C160C0E904128161AB
:10329000C161FFF7BFFB002803D0BDE81040FDF778
:1032A0006ABC10BD0048004084060020FEE7FEE72F
:1032B0002DE9F0411A498046884202DB1948BDE8F1
:1032C000F081194D012400BF05EBC4004168404660
:1032D000FDF76EF81ED805EBC40055F8344070E9D0
:1032E00002763146C068FCF7D4FF054639462046D1
:1032F000FCF7CFFF044631464046FCF7CAFF2146A3
:10330000FCF7CDFF2946FCF7FCFF3946BDE8F0414C
:10331000FCF76DBF641CA62CD6D30448CFE7000091
:10332000D7634543000020C2745C00080000FA42E5
:1033300010B54FF480610348FCF72FFFBDE8104043
:1033400000F0B0B884000020F0B4284C04EBC115A4
:1033500045E0062B02D0082B1DD03FE0203C5E2C20
:1033600017D8802815D2082913D2E6B2204F06EBD1
:103370004606002407EB460608E000BF16F804C026
:10338000641CE4B205F807C0062C02D20719802F8E
:10339000F4D3801D1FE0203C5E2C1BD8802819D25E
:1033A000072917D2E6B2134F002407EB06170EE0E9
:1033B00017F804C005F806C007EB040C2E44641C83
:1033C0009CF808C0E4B286F880C0082C02D2061926
:1033D000802EEDD30830C0B2802803D2521C14785E
:1033E000002CB6D1F0BC00F05DB8000084000020D5
:1033F000A4610008DE63000810B56420FEF702F83F
:10340000AE2000F08DF9D52000F08AF9802000F080
:1034100087F9A82000F084F93F2000F081F9D3203B
:1034200000F07EF9002000F07BF9402000F078F9F0
:103430008D2000F075F9142000F072F9202000F0C2
:103440006FF9002000F06CF9A12000F069F9C820A4
:1034500000F066F9DA2000F063F9122000F060F95C
:10346000812000F05DF9CF2000F05AF9D92000F05A
:1034700057F9F12000F054F9DB2000F051F9402019
:1034800000F04EF9A42000F04BF9A62000F048F916
:103490006420FDF7B7FFAF2000F042F9BDE810400F
:1034A000FFF746BFFEB5002464250F4F802600BFFE
:1034B00004F1B000C0B200F033F9002000F030F9A0
:1034C000102000F02DF907EBC410CDE90006012310
:1034D0004022782102950548FEF77AFA641CE4B28E
:1034E000082CE5D3FEBD0000840000204805002024
:1034F0002DE9F84FFFF71CFF4FF0000ADFF8A4E0BA
:103500004FF0120B524600210EEB02170BEB020696
:1035100017F8019000200AEBC1052B18DBB2F4B2BA
:10352000802B2FD2402C2DD24FF0800C2CFA00FC97
:103530001CEA090FDFF870C04FEAD40811D00CEB79
:10354000C818CDF8008018F803C004F0070801245B
:1035500004FA08F4DDF800804CEA040C08F803C013
:1035600010E00CEBC81CCDF800C01CF8038004F080
:10357000070C012404FA0CF4DDF800C028EA040862
:103580000CF80380401CC0B20828C6D3491CC9B23D
:103590001029BDD3521CD2B21B2AB4D3BDE8F84FB8
:1035A000FFF780BFCE690008840000202DE9F047B6
:1035B0001C46DDE9088917460D460646FFF7B8FEAA
:1035C00036B13046FCF70CFE10B10823324601E05C
:1035D000082318A200210846FFF7B6FE2DB10623E6
:1035E0002A4602210020FFF7AFFE2FB106233A46FC
:1035F00003210020FFF7A8FE2CB106232246042158
:103600000020FFF7A1FEB8F1000005D00623024616
:1036100019460020FFF798FEB9F1000005D00246D8
:10362000062307210020FFF78FFEBDE8F047FFF7D4
:1036300039BF000053797374656D204E6F726D61F0
:103640006C00000030B404231D490025102201EB5A
:10365000C314A554521CD2B2702AFAD35B1CDBB23D
:10366000042BF3D9102280248B18521CD2B283F879
:103670000042702AF8D3042201EBC213521C1C7CB6
:10368000D2B244F001041C7493F86F40042A44F051
:10369000010483F86F40EFD95E2250436422B0FBEF
:1036A000F2F0C2B21120FF23113204E00C18401CCA
:1036B00084F80032C0B29042F8D330BCFFF7F2BEBB
:1036C000840000202DE9F04113A086B0006800249A
:1036D000642603ADAE274FF001080390295D6423F3
:1036E00003220E48FEF7BEF860B904A9CDE9001820
:1036F0008DF810700296295D012300220748FEF71D
:1037000067F930B1641C042CE8DB002006B0BDE88A
:10371000F081285DFAE70000787A787A4805002081
:1037200001B584B001210A2204A88DE807000B46E8
:10373000002278210248FEF74BF905B000BD0000D9
:1037400048050020704700002DE9F04F89B006467B
:103750000024FDF763FA0190FDF740FA8246FDF779
:1037600037FA8146FDF752FA8046FDF721FA0090BC
:10377000FDF718FA8346FDF741FA0746FDF704FA0C
:103780000546FDF7FBF9034604A8DDF804C080E810
:103790000017009903918DE8A008534D06EB4600F1
:1037A00005EB8000314610F80B2C5048FDF794F9DA
:1037B000012E04D0022E31D0032E78D15DE068783E
:1037C000012801D0B0B18AE0FDF7D8F9012803D073
:1037D00047A0FDF781F90124FDF7D6F9012803D0B0
:1037E0004BA0FDF779F90124FDF708FA012876D0FE
:1037F0004FA071E0FDF7C2F918B155A0FDF76CF9C3
:103800000124FDF7C1F918B15AA0FDF765F90124AB
:10381000FDF7F4F9002862D05FA05DE0687B012825
:1038200001D0B0B15BE0FDF7BDF9012803D063A082
:10383000FDF752F90124FDF7BBF9012803D067A079
:10384000FDF74AF90124FDF7E1F9012847D06BA003
:1038500042E0FDF7A7F918B170A0FDF73DF901248A
:10386000FDF7A6F918B176A0FDF736F90124FDF7AA
:10387000CDF9002833D07BA02EE0687E012801D04E
:10388000C0B12CE0FDF7A4F9012803D07EA0FDF71C
:1038900023F90124FDF7A2F9012803D082A0FDF746
:1038A0001BF90124FDF7BAF9012818D000E015E052
:1038B00085A011E0FDF78CF918B18BA0FDF70CF98C
:1038C0000124FDF78BF918B190A0FDF705F901244B
:1038D000FDF7A4F918B196A0FDF7FEF8012409B090
:1038E0002046BDE8F08F000048000020A86B0008CB
:1038F0005BB7B4C0A1D2ECB3A35D204B315F315FA5
:10390000535441CEB4B5BDB8DFB5E7C6BD0D0A000E
:103910005BB7B4C0A1D2ECB3A35D204B315F325F83
:10392000535441CEB4B5BDB8DFB5E7C6BD0D0A00EE
:103930005BB7B4C0A1D2ECB3A35D205357315F5342
:103940005441CEB4B5BDB8DFB5E7C6BD0D0A000021
:103950005BB7B4C0A1D2ECB3A35D204B315F315F44
:10396000535441CEB4BBD8B5BDB5CDB5E7C6BD0D3A
:103970000A0000005BB7B4C0A1D2ECB3A35D204B3A
:10398000315F325F535441CEB4BBD8B5BDB5CDB570
:10399000E7C6BD0D0A0000005BB7B4C0A1D2ECB30E
:1039A000A35D205357315F535441CEB4BBD8B5BD4E
:1039B000B5CDB5E7C6BD0D0A000000005BB7B4C0C9
:1039C000A1D2ECB3A35D204B325F315F535441CEA3
:1039D000B4B5BDB8DFB5E7C6BD0D0A005BB7B4C06E
:1039E000A1D2ECB3A35D204B325F325F535441CE82
:1039F000B4B5BDB8DFB5E7C6BD0D0A005BB7B4C04E
:103A0000A1D2ECB3A35D205357325F535441CEB4DF
:103A1000B5BDB8DFB5E7C6BD0D0A00005BB7B4C0E1
:103A2000A1D2ECB3A35D204B325F315F535441CE42
:103A3000B4BBD8B5BDB5CDB5E7C6BD0D0A00000015
:103A40005BB7B4C0A1D2ECB3A35D204B325F325F51
:103A5000535441CEB4BBD8B5BDB5CDB5E7C6BD0D49
:103A60000A0000005BB7B4C0A1D2ECB3A35D205341
:103A700057325F535441CEB4BBD8B5BDB5CDB5E7D1
:103A8000C6BD0D0A000000005BB7B4C0A1D2ECB304
:103A9000A35D204B335F315F535441CEB4B5BDB805
:103AA000DFB5E7C6BD0D0A005BB7B4C0A1D2ECB369
:103AB000A35D204B335F325F535441CEB4B5BDB8E4
:103AC000DFB5E7C6BD0D0A005BB7B4C0A1D2ECB349
:103AD000A35D205357335F535441CEB4B5BDB8DF17
:103AE000B5E7C6BD0D0A00005BB7B4C0A1D2ECB308
:103AF000A35D204B335F315F535441CEB4BBD8B587
:103B0000BDB5CDB5E7C6BD0D0A0000005BB7B4C0BA
:103B1000A1D2ECB3A35D204B335F325F535441CE4F
:103B2000B4BBD8B5BDB5CDB5E7C6BD0D0A00000024
:103B30005BB7B4C0A1D2ECB3A35D205357335F533E
:103B40005441CEB4BBD8B5BDB5CDB5E7C6BD0D0AA1
:103B50000000000010B50024012804D002281AD06B
:103B6000032840D127E0FDF72BF8E0B3FDF73EF83E
:103B7000C8B3FDF717F8B0BBFDF71AF898BBFDF70F
:103B800045F816E0FDF724F868BBFDF727F850BBB1
:103B9000FDF744F826E0FCF7FDFF20B3FDF726F81B
:103BA00008B3FCF7EBFFF0B9FCF7EEFFD8B9FDF76F
:103BB00025F8C0B9E6E7FCF7EDFFA0B1FDF700F886
:103BC00088B1FCF7DBFF70B9FCF7DEFF58B9FDF7F1
:103BD00015F840B9FCF7E6FF28B9FCF7E9FF10B982
:103BE000FDF714F800B10124204610BD70B504465D
:103BF000401E032801D3042070BDC5B2214631A068
:103C0000FCF76AFF012C04D0022C09D0032C14D13C
:103C10000DE00020FDF70AF80020FDF717F80CE092
:103C20000020FDF723F80020FDF730F805E0002024
:103C3000FDF73CF80020FDF749F8FDF749FD2E4956
:103C400005EB450201EB82054FF4FA7668603046D9
:103C5000FDF7D8FB012C04D0022C09D0032C14D181
:103C60000DE00120FCF7E2FF0120FCF7EFFF0CE084
:103C70000120FCF7FBFF0120FDF708F805E001201B
:103C8000FDF714F80120FDF721F821461BA0FCF7F1
:103C900023FF3046FDF7B6FB00266E702046FFF787
:103CA00053FD40B102202872687021461BA0FCF72A
:103CB00013FF022070BD2E7221461DA0FCF70CFFE1
:103CC000002070BDCDA8B5C02564B9D8B1D5D6D077
:103CD000202D20CAE4B3F63530306D73B5CDB5E78D
:103CE000C6BDC2F6B3E5A3A8C8FDBCABB9DCB5BC84
:103CF000CDA8A3A90D0A000048000020CDA8B5C09A
:103D00002564C2F6B3E5CAE4B3F6CDEAB3C9A3AC01
:103D1000B5C8B4FDB7B4C0A10D0A0000CDA8B5C0A8
:103D20002564B7B4C0A1B4EDCEF30D0A00000000C5
:103D3000CDA8B5C02564B9D8B1D5B3C9B9A60D0A07
:103D400000000000411E032901D3022070470449EE
:103D500000EB400001EB800010F80B0C70470000F6
:103D60004800002070B50446401E0D46032828D2A6
:103D7000FDF7AEFC134901EB840151F8042C821AC3
:103D8000642A02D2214610A011E00E4A41F8040C28
:103D900004EB44010C3202EB810141F8080C144899
:103DA000204445B1022100F8011C214611A0BDE8C4
:103DB0007040FCF791BE012100F8011C214616A0BD
:103DC000F5E770BD3C0000205BB7C0B6B65D20CD06
:103DD000A8B5C02564203130306D73C4DAD6D8B8A8
:103DE000B4D6D0B6CFA3ACD2D1BAF6C2D40D0A00A5
:103DF000030000205BD6D0B6CF5D20CDA8B5C0258E
:103E000064BCECB2E2B5BDC9CFC9FDD1D8A3ACB496
:103E1000FDB9D8B1D50D0A005BD6D0B6CF5D20CDA7
:103E2000A8B5C02564BCECB2E2B5BDCFC2BDB5D16A
:103E3000D8A3ACB4FDBFAAC6F40D0A002DE9F04129
:103E4000244F0020224E054607F1030800EB4001F5
:103E5000441C06F8214006EB8101012C4D704D6099
:103E60000D723D5408F8005004D0022C0FD0032CE2
:103E700026D119E00120FCF7E1FE0120FCF7D6FE77
:103E80000120FCF7EBFE0120FCF7E0FE18E001202A
:103E9000FCF7F4FE0120FCF7E9FE0120FCF7FEFE32
:103EA0000120FCF7F3FE0BE00120FCF707FF0120E7
:103EB000FCF7FCFE0120FCF711FF0120FCF706FFD8
:103EC000E0B20328C2D3BDE8F0410348FCF704BECA
:103ED0004800002000000020086C00082DE9F04197
:103EE0000446401E032802D30420BDE8F08120468A
:103EF000FFF730FE0100A4F10100C0B2364A00EB2A
:103F000040004FF0010602EB800506D02E722146DC
:103F100032A0FCF7E1FD0120E7E7214634A0FCF7E1
:103F2000DBFD012C04D0022C09D0032C14D10DE0B0
:103F30000020FCF783FE0020FCF790FE0CE0002040
:103F4000FCF79CFE0020FCF7A9FE05E00020FCF732
:103F5000B5FE0020FCF7C2FEFDF7BAFB4FF4FA777E
:103F600068603846FDF74EFA012C04D0022C09D0C7
:103F7000032C14D10DE00120FCF760FE0120FCF7BA
:103F80006DFE0CE00120FCF779FE0120FCF786FEB7
:103F900005E00120FCF792FE0120FCF79FFE214680
:103FA00020A0FCF799FD3846FDF72CFA6E702046EC
:103FB000FFF7CAFB40B1022028726870214621A099
:103FC000FCF78AFD022090E700202872214622A0FB
:103FD000FCF782FD002088E748000020CDA8B5C08E
:103FE0002564BBA5CBF8B4EDCEF30D0A00000000AC
:103FF000CDA8B5C02564BFAAC6F4D6D0202D20CA4E
:10400000E4B3F63530306D73B5CDB5E7C6BDC2F655
:10401000B3E5A3A8C8FDBCABB9DCB5BCCDA8A3A9CA
:104020000D0A0000CDA8B5C02564C2F6B3E5CAE408
:10403000B3F6CDEAB3C9A3ACB5C8B4FDB7B4C0A15B
:104040000D0A0000CDA8B5C02564B7B4C0A1B4ED79
:10405000CEF30D0A00000000CDA8B5C02564BFAAAC
:10406000C6F4B3C9B9A60D0A0000000070B500245B
:10407000144D2646285D012802D002280DD018E0F4
:10408000601C2E55C0B2FFF729FF020004F10101A8
:1040900001D00DA00BE013A011E0601C2E55C0B2A2
:1040A000FFF7A4FD020004F1010107D012A0FCF704
:1040B00013FD641CE4B2032CDCD370BD15A0FCF727
:1040C0000BFDF6E703000020CDA8B5C02564BFAA0C
:1040D000C6F4CAA7B0DCA3ACB4EDCEF3C2EB3D2569
:1040E000640D0A00CDA8B5C02564BFAAC6F4B3C943
:1040F000B9A60D0A00000000CDA8B5C02564B9D846
:10410000B1D5CAA7B0DCA3ACB4EDCEF3C2EB3D256C
:10411000640D0A00CDA8B5C02564B9D8B1D5B3C91E
:10412000B9A60D0A000000007047FDF717BD30B5B5
:1041300095B028216846FCF730F814210AA8FCF74E
:104140002CF818210FA8FCF728F801210804CDE964
:1041500000100025029502240491CDE907404FF498
:10416000E01009906846FDF7E3FE08B172B6FEE77D
:104170000AA90F2081E831004FF48060CDE90D05D8
:1041800002210AA8FDF7F8FD08B172B6FEE74FF468
:10419000004011900F940FA8FDF778FD002801D082
:1041A00072B6FEE715B030BD2DE9FF5FFCF7E6FC07
:1041B0000746FCF7E9FC8346FCF7F4FC8146FCF774
:1041C000F7FC0646FCF704FD0546FCF707FD044630
:1041D000FCF714FD0390FCF719FD8246FCF71EFD69
:1041E0000096CDE9015480464B465A46394612485E
:1041F000FCF772FC4346524610A00399FCF76CFC96
:1042000047EA0B0040EA09003043284308D13CB993
:10421000039828B9BAF1000F02D1B8F1000F06D007
:1042200010A0FCF759FC002004B0BDE8F09F13A0DB
:10423000FCF752FC0120F7E74C6C0008BDD3B4A595
:10424000C6F7D7B4CCAC3A205357313D25642C2067
:104250005357323D25642C205357333D25640D0AB6
:1042600000000000B7B4C0A1D0C5BAC5BCECB2E232
:104270003A20D2ECB3A30D0A00000000B7B4C0A1ED
:10428000D0C5BAC5BCECB2E23A20D5FDB3A30D0A45
:104290000000000070B5FCF77DFC0646FCF790FCC2
:1042A0000546FCF7A3FC044603462A46314609A00E
:1042B000FCF712FC012E03D1012D01D1012C04D0F9
:1042C00010A0FCF709FC002070BD14A0FCF704FC52
:1042D000012070BDCAE4C8EBD0C5BAC5BCECB2E2DF
:1042E0003A204B315F454E3D25642C204B325F45D3
:1042F0004E3D25642C204B335F454E3D25640D0A11
:1043000000000000CAE4C8EBD0C5BAC5BCECB2E2FC
:104310003A20D2ECB3A30D0A00000000CAE4C8EBB7
:10432000D0C5BAC5BCECB2E23A20D5FDB3A30D0AA4
:1043300000000000F0B58BB000F010FD002104A8D3
:1043400000F0BCFC012106A800F0B8FC022108A87E
:1043500000F0B4FC0898FCF717F806460F460698DC
:10436000FCF712F804460D460498FCF70DF88DE8AA
:10437000F00002460B460CA0FCF7AEFB1748049970
:1043800081420BDA0699814208DA0899814205DAFE
:1043900013A0FCF7A1FB01200BB0F0BD15A0FCF7AA
:1043A0009BFB0020F8E70000CEC2B6C8BCECB2E22E
:1043B0003A204E5443313D252E3166A1E62C204E45
:1043C0005443323D252E3166A1E62C204E54433312
:1043D0003D252E3166A1E60D0A0000000000704266
:1043E000CEC2B6C8BCECB2E23A20D5FDB3A30D0AEA
:1043F00000000000CEC2B6C8BCECB2E23A20D2EC5B
:10440000B3A30D0A0000000070B50B4D0446052053
:104410002870FDF75DF9686034B13F22214605F14F
:104420000C00FBF7D1FE00E004A42146BDE870407B
:1044300005A0FCF751BB000084040020CEB4D6AA2E
:10444000B4EDCEF3000000003D3D3D20CFB5CDB32F
:10445000BDF8C8EBB4EDCEF3D7B4CCAC3A2025739D
:10446000203D3D3D0D0A000010B5064C0420207093
:10447000FDF72EF9606004A0FCF72EFBBDE81040AC
:10448000FEF756BF840400203D3D3D20CFB5CDB39F
:10449000BDF8C8EBD5FDB3A3D4CBD0D0D7B4CCAC4A
:1044A000203D3D3D0D0A000070B520A0FCF714FB37
:1044B000254C01204021E07204F10C000646FBF778
:1044C0006CFEFFF7E7FE2072002520B91FA13046E1
:1044D000FBF76EFEE572FFF767FE607220B91FA161
:1044E0003046FBF765FEE572FFF724FFA07220B9A6
:1044F0001EA13046FBF75CFEE572E07A08B11EA112
:1045000000E01FA120A0FCF7E7FAE07A28B93146C5
:1045100021A0FCF7E1FAE07A18B1BDE87040FFF79E
:10452000A3BFBDE8704000F041B800003D3D3D2014
:10453000BFAACABCCFB5CDB3D7D4BCECBCECB2E2F9
:10454000203D3D3D0D0A000084040020CAE4C8EB74
:10455000D0C5BAC5D2ECB3A33B000000B7B4C0A12C
:10456000D0C5BAC5D2ECB3A33B000000CEC2B6C8DA
:10457000D2ECB3A33B000000CDA8B9FD00000000C1
:10458000CAA7B0DC00000000D7D4BCECBDE1B9FB89
:104590003A2025730D0A0000D7D4BCECB4EDCEF35D
:1045A000D0C5CFA23A2025730D0A000000B591B006
:1045B0000DA0FCF791FA154810F84C1F017014A0DB
:1045C000FFF722FFFEF7B4FE104A14A10C32684632
:1045D00000F0ACFD08236A4614210020FEF7B4FE6B
:1045E000FEF760FF11B000BD3D3D3D20D7D4BCECCF
:1045F000D2ECB3A3A3ACB2FAC9FA4ED2ECB3A3B1D6
:10460000EAD6BE203D3D3D0D0A0000008404002096
:10461000D7D4BCECCAA7B0DC000000004ED2ECB38B
:10462000A33A25730000000010B550210848FBF79D
:10463000B4FD074C002020706070FDF749F8606001
:1046400004A0FCF749FABDE8104000F0D7B800001C
:1046500084040020CFB5CDB3BFD8D6C6C4A3BFE96C
:10466000B3F5CABCBBAFCDEAB3C90D0A0000000068
:1046700070B5FDF72DF8104D04462868201A0A2859
:1046800002D32C60FFF7F2FC6868201A642804D378
:104690006C6000F063FB00F0DFFAA868201AC828FD
:1046A00002D3AC6000F0F0F8E868201AB0F5FA7FA9
:1046B00000D3EC6070BD00001C00002010B5FDF7B9
:1046C00007F8244A51681378411A072B3AD2DFE8D9
:1046D00003F004080F292D313500BDE8104000F02B
:1046E0008DB8B1F5FA6F34D3BDE8104000F0AAB828
:1046F00040F6B83399420DD264204143B1FBF3F048
:10470000C4B22046FEF79EFF214613A0BDE810402C
:10471000FCF7E2B9032111705060BDE8104013A00E
:10472000FCF7DAB9BDE81040FFF7BEBEBDE81040A7
:10473000FFF79EBF074912A00C31E7E716A0FCF770
:10474000CBF9F3E719A0FCF7C7F9BDE8104000F07A
:104750003BB810BD84040020D7D4BCECBDF8B6C86B
:104760003A20256425250D0A00000000BFAACABC16
:10477000D6B4D0D0D7D4BCECBCECB2E20D0A000069
:10478000CFB5CDB3B4A6D3DAB4EDCEF3D7B4CCACB9
:104790003A2025730D0A0000CFB5CDB3B4A6D3DA05
:1047A000B1A8BEAFD7B4CCAC0D0A0000CEB4D6AA27
:1047B000CFB5CDB3D7B4CCACA3ACD6D8D6C3CFB5D8
:1047C000CDB30D0A0000000010B508A0FCF784F975
:1047D00050210948FBF7E1FC074C00202070FCF752
:1047E00077FF6060BDE8104000F008B8CFB5CDB3EA
:1047F000B8B4CEBB0D0A00008404002010B5074CED
:1048000001202070FCF764FF6060FEF771FEBDE8D8
:104810001040022102A0FCF75FB9000084040020D0
:10482000BFAACABC4C4F474FCFD4CABEBDD7B6CE25
:10483000A3ACB3D6D0F8CAB1BCE43A202564C3EB2C
:104840000D0A000010B5074C02202070FCF740FF55
:104850006060FEF76DFDBDE81040032102A0FCF78B
:104860003BB9000084040020BFAACABCD7D4BCEC6A
:10487000BDD7B6CEA3ACB3D6D0F8CAB1BCE43A200B
:104880002564C3EB0D0A0000F0B53548AFB00078E1
:10489000042801D006285BD1202104A8FBF77DFC69
:1048A0000120FFF74FFA06460220FFF74BFA0446B5
:1048B0000320FFF747FA0546012E4BD029A22AA173
:1048C0001EA800F033FC012C46D026A228A122A865
:1048D00000F02CFC012D41D022A227A126A800F037
:1048E00025FC00211CA800F0E9F9012116A800F020
:1048F000E5F9022118A800F0E1F91898FBF744FD4A
:1049000006460F461698FBF73FFD04460D461C98D9
:10491000FBF73AFD8DE8F00002460B4618A10CA803
:1049200000F004FC00F0BCF904461AA800F0BEF93F
:10493000224619A12AA81A9B00F0F8FB2AA90CA864
:10494000CDE9000126AB22AA1EA904A8FEF72EFE7F
:104950002FB0F0BD14A2B2E713A2B7E712A2BCE7D2
:10496000840400204F4646004348313A2573000036
:104970004348323A257300004348333A2573000018
:1049800054313A252E31662054323A252E31662094
:1049900054333A252E31660046414E3A256425258A
:1049A00020256452504D00004F4E0000704700001B
:1049B000F0B50268204C214D214E224F224B4FF082
:1049C000804CA04209D0984207D0604505D0A8424B
:1049D00003D0B04201D0B84204D122F0700E4A6830
:1049E00042EA0E02A04209D0984207D0604505D0A5
:1049F000A84203D0B04201D0B84203D122F440759E
:104A0000CA682A434D6922F080022A4302608A68FC
:104A1000C2620A688262A04201D0984201D109694B
:104A20000163012141610169C90703D0016921F0D6
:104A300001010161F0BD0000002C014000040040B4
:104A400000080040000C00400034014010B501F0A7
:104A50001F030121046A99408C430462016A9A4051
:104A60001143016210BD10B5846842EA032224F4A8
:104A70007F440A432243826010BD826822F07002A4
:104A80000A4342F00701816070470000F0B5036AF5
:104A9000026A22F00102026242688469124E24F026
:104AA00073050C682C4323F002058B682B430D4DD6
:104AB000A84201D0B04205D123F00807CB683B43A0
:104AC00023F00403A84201D0B04205D14D6922F47D
:104AD000407215438A692A43426084614968416390
:104AE0000362F0BD002C014000340140F0B5026AC1
:104AF000036A23F010030362436884690D6824F499
:104B0000E64444EA05248D6822F0200242EA0512B8
:104B10000F4D104EA84201D0B04206D1CF6822F00E
:104B2000800242EA071222F04002A84201D0B042BD
:104B300007D14D6923F4406343EA85038D6943EA55
:104B4000850343608461496881630262F0BD0000AF
:104B5000002C014000340140F0B5026A036A23F4DE
:104B6000807303624368C46922F4007224F0730501
:104B70000C68124E2C438D6842EA05220E4DA84265
:104B800001D0B04206D1CF6822F4006242EA072287
:104B900022F48062A84201D0B04207D14D6923F4CB
:104BA000405343EA05138D6943EA05134360C4612A
:104BB0004968C1630262F0BD002C0140003401402D
:104BC00030B5046A026A22F4805202624268C36904
:104BD0000D6823F4E64343EA05238D6824F400546A
:104BE00044EA0534084DA84202D0084DA84204D139
:104BF0004D6922F4804242EA85124260C3614968ED
:104C00000164046230BD0000002C0140003401400A
:104C100010B5036A046A24F001040462846924F074
:104C2000F00444EA021423F00A020A438461026297
:104C300010BD10B5036A046A24F01004046284698C
:104C400023F0A00324F4704444EA023243EA011141
:104C50008261016210BD000070B5084D002400BFE4
:104C600005EBC4000079022803D1611C04A0FBF706
:104C700033FF641C032CF3DB70BD00006C000020CC
:104C80005BCEC2B6C8D2ECB3A35D20CDA8B5C0251B
:104C90006420B3ACCEC2B1A8BEAF210D0A000000A3
:104CA000014800787047000008000020024A91681F
:104CB0005268C0E90012704708000020032905D39C
:104CC000064AD2E90012C0E900127047044A02EB1A
:104CD000C101D1E90021C0E9002170476C5C0008E6
:104CE0006C00002070B500200D4C0E490E4B0246A2
:104CF00001EBC00541F830402A711A54401C0328CA
:104D0000F6DB09493220491E032208700C3107489E
:104D1000FCF7C0F9BDE8704005A0FBF7DDBE000060
:104D20000000C8416C00002009000020D4040020CD
:104D30005BCEC2B6C8BCE0BFD85D20B3F5CABCBB71
:104D4000AFCDEAB3C9A3ACD2D1C6F4B6AF414443A8
:104D500020444D41B2C9BCAF0D0A00002DE9FC5FF3
:104D6000DFF8E4A0DFF8E4B0DFF8E4900024AAF173
:104D70000B0600BF3AF81400FBF701FB3549FBF7BF
:104D80008EFA3549FBF7BDFAFBF78CFEFEF790FA79
:104D900009EBC40549F834002A7922B1012A0BD065
:104DA000022A48D00FE0584501DB02220AE02B4AD4
:104DB000904208DB012205E05845F6DA284A904285
:104DC00001DA00222A712979375D8846B9420BD071
:104DD000FBF7DAFACDE9007802460B46611C21A008
:104DE000FBF77AFE28793055641C032CC2DB0020C7
:104DF00001464A4602EBC1031B79834200D918469B
:104E0000491C0329F6DB10490C3902281AD0012865
:104E100018D0322008701E480068C36A09785A1CEE
:104E20004A436424B2FBF4F2426302B019A0BDE825
:104E3000F05FFBF751BE254A9042C4DA074A904220
:104E4000BFDBB7E75F20E5E71400002000007042F9
:104E50006C0000203333534000F07F4500000C42CB
:104E6000000004425BCEC2B6C8BCE0BFD85D20CD16
:104E7000A8B5C0256420D7B4CCACB1E4BBAF3A2010
:104E8000252E3166A1E62025642D3E25640D0A00FD
:104E9000F40500205BB7E7C9C8B2E2CAD45D20D7E9
:104EA000D4B6AFC9E8D6C3B7E7C9C850574D3A2002
:104EB0002564252520284343523D256C752C20412F
:104EC00052523D256C75290D0A0000000000684211
:104ED00010B5406A0021C185C184FDF764FC10BD96
:104EE00001680C3151E8002F22F4907241E8002350
:104EF000002BF5D10168143151E8002F22F0010296
:104F000041E80023002BF5D1016B012909D101688B
:104F10000C3151E8002F22F0100241E80023002B51
:104F2000F5D1202180F8421000210163704708B5B7
:104F300090F84210222901D0022008BD82684FF467
:104F400080539A4201D1016921B1816A9A421BD0F2
:104F50004AB10AE00268816A5268C2F308020A8014
:104F6000816A891C08E0026972B10268526802F025
:104F70007F020A70816A491C8162C18D491E090441
:104F8000090CC18503D01BE002685268F1E7016893
:104F9000CA6822F02002CA600168CA6822F48072DE
:104FA000CA6001684A6922F001024A61202180F842
:104FB000421000214163026B012A03D0FDF7CEFDB0
:104FC000002008BD016301680C3151E8002F22F078
:104FD000100241E80023002BF5D101680A68D206CF
:104FE00002D50A6849680091818DFDF7DBFBE7E790
:104FF00070B5044600680169E26821F4405111432C
:1050000001612169A0680843616908432168CA6891
:1050100041F20C639A430243CA6020684169A26965
:1050200021F44071114341611E492068884202D138
:10503000FCF748FF01E0FCF735FF00EBC00101EB96
:105040000012606864218000B2FBF0F3B3FBF1F35F
:105050006FF018067343B2FBF0F5B2FBF0F605EB08
:105060008305322303EB0515B5FBF1F5B6FBF1F62D
:1050700005F0F00505EB0615B2FBF0F6B2FBF0F01B
:10508000B0FBF1F06FF01802504306EB800003EB29
:105090000010B0FBF1F0216800F00F002844886098
:1050A00070BD0000003801402DE9F84398461746CE
:1050B0000D460446089E24E0701C22D0FCF708FB35
:1050C000A0EB0800B0421AD8CEB12068C1684907E9
:1050D00017D5802D15D0402D13D00168C94309077D
:1050E0000FD401680025406800902046FFF7F8FEC5
:1050F0000820606484F840500120BDE8F883032054
:10510000FBE72068006835EA000004D00020B842C0
:10511000D2D00020F1E70120F9E700000148FDF7B7
:1051200043BB000084060020FEE700000FB4084BDC
:1051300010B504A902AA039800F000F9044602A9D8
:10514000002000F07EFC204610BC5DF814FB00003F
:10515000435A000837B514460846064B6A462146AE
:1051600000F0ECF804466946002000F06AFC204696
:105170003EBD0000435A00080907090E002804DB61
:1051800000F1E02080F80014704700F00F0000F1FB
:10519000E02080F8141D704702E008C8121F08C103
:1051A000002AFAD170477047002001E001C1121FA8
:1051B000002AFBD1704700002DE9FF5F82B000217B
:1051C000DDE90430020DDDF840B0034318D044F6A9
:1051D0001050A2F2FF3242431514119801281FD03B
:1051E000A5EB0B00401C5FEA000A4FF000064E4F93
:1051F000DFF83891B046504615D5CAF1000413E0E7
:10520000119801244AA3012801D16FEA0B010298E9
:10521000119AC0E90031C0E9024206B0BDE8F09F32
:10522000CBF10000DFE704460021404A491842EB79
:105230000450CDE9001012E0E00707D032463B46AB
:1052400040464946FBF7E3F98046894632463B46ED
:1052500010461946FBF7DBF906460F466410002C92
:10526000EAD1DDE90401DDE90023BAF1000F06DA35
:10527000FBF7CDF942464B46FBF7C9F905E0FBF7D2
:1052800038FA42464B46FBF734FA04460E460022F3
:10529000284BFBF7B5FA03D84FF0FF30014607E083
:1052A0000022254B20463146FBF70AF9FBF790FA1E
:1052B000102409E0002C0ADB0A220023FBF798F8EF
:1052C000039B30321A55641E50EA0102F2D1641C6D
:1052D000039AC4F111031444119A012A03D0012244
:1052E00008430DD10AE0084304D000204FF0110B11
:1052F000119072E7A3EB0B056D1E0DE05B4504DD1D
:105300004FF0000205F1010504E003DA4FF000025E
:10531000A5F10105002AECD002981199C0E90231EB
:10532000C0E9004579E70000000014400000F03FAC
:10533000300000000000F0430000E03F2DE9FF4F87
:1053400095B09A46884606460025EEE1252877D195
:1053500000242746F94A0121039400E0044316F88B
:10536000013F203B01FA03F01042F7D130782A28A0
:1053700011D06FF02F033078A0F13002092A16D82F
:10538000039A44F0020402EB820203EB420210444F
:10539000761C0390EFE758F8042B0392002A03DAF7
:1053A000504244F40054039044F00204761C3078D8
:1053B0002E2816D116F8010F44F004042A280DD027
:1053C0006FF02F023078A0F13003092B09D807EBDA
:1053D000870302EB4303C718761CF3E758F8047BF6
:1053E000761C30786C280FD006DC4C2817D0682843
:1053F0000DD06A2814D104E0742810D07A280FD177
:105400000DE044F400140AE044F4801401E044F494
:1054100040147278824202D104F58014761C761C06
:10542000307866280BD013DC582877D009DC0028A8
:1054300075D04528F6D04628F4D047281AD193E1F4
:1054400018E0632835D0642879D0652812D18BE123
:10545000702873D008DC6728F1D069286FD06E28D7
:105460000DD06F2806D1ACE073282CD0752874D0ED
:10547000782853D05246179990476D1C54E1C4F3D5
:105480000250022809D003280DD0D8F800100428B3
:105490000DD00D6008F1040846E1D8F80010EA17B5
:1054A000C1E90052F6E7D8F800100D80F2E70D7060
:1054B000F0E718F8041B8DF8001000208DF80100AB
:1054C000EB46012003E058F804BB4FF0FF306107C2
:1054D0004FF0000102D40DE009F101018946B94203
:1054E0000FDA8145F8DB1BF809100029F4D108E038
:1054F00009F1010189468142FADB1BF809100029F4
:10550000F6D103985346A0EB090721463846179A6F
:1055100000F080FA284400EB090507E044E008E1C8
:105520000DE01BF8010B524617999047B9F101099C
:10553000F7D2534621463846179AF2E039E00A215D
:10554000C4F302524FF0000B0091022A06D058F823
:10555000040BC117032A09D00AE023E008F1070071
:1055600020F00702F2E80201904605E000B2C11700
:10557000042A01D140B2C117002906DA0A460021E7
:10558000404261EB02012D2202E0220504D52B22CC
:105590008DF80420012203E0E20701D02022F7E782
:1055A000914657E00A2100E010214FF0000B0091D6
:1055B0000BE010214FF0000B44F004040827009189
:1055C00003E008204FF0000B0090C4F30252022ABF
:1055D00005D058F8040B0021032A08D008E008F190
:1055E000070020F00702F2E80201904603E080B2D3
:1055F000042A00D1C0B24FF0000922072AD5327820
:10560000702A07D0DDF800C08CF0100C5CEA0B0C9F
:1056100005D00EE040228DF80420012208E050EA77
:10562000010306D030238DF804308DF805200222C6
:105630009146009B83F0080353EA0B030AD150EA1A
:10564000010201D1620705D530228DF804204FF008
:1056500001097F1E3278582A04D039A20C920CAA74
:1056600002920BE03BA2F9E75B46009AFAF7C0FE14
:105670000C9B9B5C029A521E0292137050EA01022C
:10568000F2D1029804A9081A00F1200B600702D594
:1056900024F4803400E001275F4502DDA7EB0B0016
:1056A00000E0002000EB0B01009003984944401AF1
:1056B0000390E00306D453462146179A039800F05E
:1056C000A9F90544002706E001A85246C05D1799D4
:1056D00090476D1C7F1C4F45F6DBE0030CD553460D
:1056E0002146179A039800F095F9054404E030200C
:1056F0005246179990476D1C0099481E009000294A
:10570000F5DC08E00298029952460078491C0291A3
:10571000179990476D1CBBF10001ABF1010BF1DC57
:105720005BE100F065F90544761C307800287FF4D1
:105730000DAE19B02846BDE8F08F00000928010021
:1057400030313233343536373839616263646566F7
:1057500000000000303132333435363738394142B9
:105760004344454600000000600700D4062708F1C6
:10577000070020F00700F0E80223804603F0004C09
:105780005FEA0C0001D097A009E0200501D596A0A2
:1057900005E0E00701D095A001E0AFF24C001390C6
:1057A000307823F0004365280CD006DC452809D06A
:1057B00046281DD047287FD13BE0662818D06728AF
:1057C0007AD136E00021112F01DB112000E0781C96
:1057D000CDE9000104A90CA8FFF7EEFCDDE90D01FD
:1057E0000C9A4FF0000B07F10109109200914EE066
:1057F0004FF000400097CDE9011004A90CA8FFF775
:10580000DBFCDDE90D020C9B0F994FF0000B91467C
:105810001093009211B9791C00EB0109B7EB090054
:1058200003D4C0F1FF3B07F10109A9EB0700019088
:1058300042E0012F00DA01270021112F01DD1120A4
:1058400000E03846CDE9000104A90CA8FFF7B4FC3C
:10585000DDE90D010C9A00914FF0000BB946109252
:1058600021070FD4009A4A4503DA914601E0A9F1D5
:105870000109B9F1010F05DD109AA9F10101515C8F
:105880003029F4D0B84202DA10F1040F03DA012112
:10589000CDE9011010E0002803DC8344A9EB0001EE
:1058A00002E0411C494500DD8946A0EB0B00401C8D
:1058B00001904FF000400290200705D40198484520
:1058C00002DB4FF0FF30019000208DF84B00029872
:1058D0000DF14B07B0F1004F25D002200C902B208A
:1058E0000D90029800280CDA404202902D200D9075
:1058F00007E00A210298FAF765FD3031029007F8B7
:10590000011D0C99481E0C900029F2DC0298002819
:10591000EFD1791E0D980870307800F0200040F02B
:10592000450007F8020D11A8C01BC01D0290139876
:10593000007800B1012000EB0901019801EBE07152
:10594000029801440398401A401E0390E00306D4D5
:1059500053462146179A039800F05CF805441398C3
:10596000007818B15246179990476D1CE00323D573
:1059700053462146179A039800F04CF805441BE063
:10598000BBF1000F07DB0098584504DD109817990C
:1059900010F80B0001E0179930205246904701980B
:1059A0000BF1010B401E05F10105019004D12E20E1
:1059B0005246179990476D1CB9F10001A9F10109F0
:1059C000DEDC05E017F8010B5246179990476D1C75
:1059D0000299481E02900029F4DC53462146179A8A
:1059E00003989EE62D0000002B0000002000000020
:1059F0002DE9F041044600251E461746880404D4CC
:105A000005E039462020B0476D1C641EF9D52846B4
:105A1000BDE8F0812DE9F041044600251E46904680
:105A2000C80301D5302700E02027880404D505E00D
:105A300041463846B0476D1C641EF9D52846BDE87E
:105A4000F0810A68531C0B6010707047FCF78EF8E9
:105A5000FEF76DFBFDF788FAFDF778FAFDF73AFAE5
:105A6000FDF75AFBFDF778FBFDF79AFBFDF7E6FB28
:105A7000FDF700FCC820FBF7C5FC20A0FBF72CF8C5
:105A800028A0FBF729F8FCF72DFA2C49B0FBF1F11F
:105A90002BA0FBF721F82FA231A134A0FBF71CF8B3
:105AA00037A0FBF719F83DA0FBF716F80021424894
:105AB000FCF71EFE41A0FBF70FF8FDF703FE28B12F
:105AC00044A0FBF709F8FDF797FC02E049A0FBF7BB
:105AD00003F8FFF707F94CA0FAF7FEFFFEF7AEF95F
