:020000040800F2
:10000000E8140020490100085F54000889380008FE
:100010005D540008890C000849B800080000000081
:10002000000000000000000000000000497D000802
:100030001B0D000800000000995F0008CB8B000832
:100040006301000863010008630100086301000800
:1000500063010008630100086301000863010008F0
:1000600063010008630100086301000863010008E0
:1000700063010008630100086301000863010008D0
:100080006301000863010008390B000863010008E0
:10009000630100086301000863010008430D0008C4
:1000A00063010008630100086301000863010008A0
:1000B0006301000863010008630100086301000890
:1000C0006301000863010008630100086301000880
:1000D0006301000863010008630100083DB80008DF
:1000E0001D0D00086301000863010008630100089A
:1000F0006301000863010008630100086301000850
:10010000630100086301000863010008630100083F
:10011000630100086301000863010008630100082F
:10012000630100086301000863010008630100081F
:10013000DFF810D000F036FC0048004775D1000809
:10014000AFF30080E81400200648804706480047C7
:10015000FEE7FEE7FEE7FEE7FEE7FEE7FEE7FEE777
:10016000FEE7FEE7F5B0000831010008202A04DBB5
:10017000203A21FA02F00021704721FA02F3D04020
:10018000C2F12002914008431946704740EA01033A
:100190009B0703D009E008C9121F08C0042AFAD23D
:1001A00003E011F8013B00F8013B521EF9D2704701
:1001B000D2B201E000F8012B491EFBD270470022A9
:1001C000F6E710B513460A4604461946FFF7F0FF56
:1001D000204610BD421E12F8013F002BFBD111F842
:1001E000013B02F8013B002BF9D1704730B50546C1
:1001F0002A460B4612F8010B13F8014B08B1A04236
:10020000F8D01CB1002802D06D1CF1E7284630BDA3
:1002100010B5044604E00B7800F8013B03B1491C1B
:10022000521EF8D2204610BD421C10F8011B0029B6
:10023000FBD1801A7047034611F8012B00F8012BFF
:10024000002AF9D1184670472DE9F05F93460F4612
:100250008046044600260CF023FBD0F8009082462E
:1002600014F8015B2DB100F05BF90068405DC00738
:10027000F6D12B2D02D02D2D1AD0641E0021CAF8E4
:1002800000105A463946204600F04EF9014627B183
:100290003868A04201D1C7F80080DAF800000228CF
:1002A00009D0CAF80090700505D54842BDE8F09F16
:1002B00046F48066E2E70846F8E7F0B480EA010217
:1002C000D40F4200B2EB410F02D20246084611465B
:1002D0004A0042D0C30DDDB2C1F3C752AD1A202D82
:1002E00035DAC1F3160141F4000204B15242C5F1FE
:1002F000200602FA06F12A411044B3EBD05F23D066
:10030000C4B1012DA0EBC35009DCF0BC4FF000429A
:1003100002EAC352DBB200F5000000F05DB9400014
:1003200000F1807000EBC350A0F1807040EAD17002
:10033000490009E0490841EAC071A0EBC35000F54B
:100340000000400800EBC350F0BC00F03CB9614233
:10035000012202EB4101001BF6E7F0BC704781F07F
:100360000041AAE780F00040A7E780EA010210B54B
:1003700002F00043400022D04A001FD0010E01EBE2
:100380001261C0F35600C2F3560240F4000042F47A
:100390000002A0FB022000047F39140400D0401C9E
:1003A00050EA124001D44000491EC2B20C0604EBD0
:1003B000D010401C4008802A02D003E0002010BD6D
:1003C00020F00100002900DA0020184310BD30B4ED
:1003D00080EA010202F0004530F0004221F00040C6
:1003E00013D090B1C30DD40DC2F31601C0F31600A3
:1003F000E41A41F4000140F400027D34914201D33B
:10040000641C00E04900002C02DA30BC0020704778
:100410004FF400000023914201D3891A034340089E
:100420004FEA4101F7D151B1914202D14FF0004161
:1004300005E002D24FF0010101E06FF0010103EB92
:10044000C450284430BC00F0BEB8962300221146A8
:1004500000F0C2B800F0004230F000400AD0C10DF8
:1004600001F56071C0F3160042EA0151C20840076D
:10047000114370470020014670470000002801DB4F
:10048000C0F10040002901DBC1F100418842704702
:1004900030B50B46014600202022012409E021FA54
:1004A00002F59D4205D303FA02F5491B04FA02F551
:1004B0002844151EA2F10102F1DC30BD2DE9F05FE8
:1004C0000546002092469B468846064681464024C3
:1004D0001BE02846414647462246FFF747FE534663
:1004E0005A46C01A914110D311461846224600F0D0
:1004F0006BFA2D1A67EB01084F46224601200021B6
:1005000000F062FA17EB00094E41201EA4F101042D
:10051000DFDC484631462A464346BDE8F09F0000EE
:1005200000487047CCF500082DE9F05F824600785E
:10053000002715468B460AF10104B946302801D040
:100540009DB113E014F8010B0127782803D0582837
:1005500001D045B10AE00DB1102D07D100271025BB
:1005600014F8010B02E0082500E00A250026B04639
:100570000EE005FB080005FB06F1012701EB104624
:100580001FFA80F8B6F5803F00D3B94614F8010B86
:10059000294600F03AFA0028EBDABBF1000F05D04B
:1005A0000FB1641E00E05446CBF80040B9F1000FD3
:1005B00006D00CF075F902210160C81EBDE8F09F5D
:1005C00048EA0640FAE70029A8BF7047401C4900E6
:1005D00008BF20F00100704710B4B0FA80FC00FAA8
:1005E0000CF050EA010404BF10BC704749B1CCF1D3
:1005F000200421FA04F411FA0CF118BF012121435F
:100600000843A3EB0C01CB1D4FEA00614FEA102019
:1006100042BF002010BC704700EBC35010440029BB
:10062000A4BF10BC7047401C490008BF20F0010067
:1006300010BC70472DE9FE4F804681EA0300C00FD1
:100640000C46009021F0004123F00045B8EB020079
:10065000A94105D24046214690461C460B4602461B
:1006600023F00040104347D0270DC7F30A00C3F31F
:100670000A510290401A019040286BDAC3F313002C
:1006800040F4801B0098924620B10023D2EB030A6D
:1006900063EB0B0B01985946C0F14002504600F045
:1006A00093F906460D4650465946019A00F09BF9CB
:1006B00010EB08006141002487EA115284EAE773D5
:1006C0001A4340D0009A62B3019A012A4FEA0752B6
:1006D00015DC001B61EB02014FF0004202EA0752F9
:1006E000CDE90042001C41F5801132462B4600F056
:1006F000A9F903B0BDE8F08F40462146F9E7001B99
:1007000061EB0201001C41F5801300185B412018C9
:10071000A2F5001747EB030140EAD570B6196D4109
:1007200011E06D084FEA360645EAC0754FEA0752F8
:10073000001B61EB0201001C41F5801149084FEAE2
:1007400030000019514132462B4603B0BDE8F04F4E
:1007500000F069B90098012240000023D0EB0202AA
:1007600063EBE073009821464FEAE074B8EB0000B9
:1007700061EB0401E9E783F000435BE781F00041AE
:1007800058E72DE9FE4F81EA030404F0004421F00C
:10079000004100944FF0000B23F0004350EA0104A5
:1007A0005ED052EA03045BD0C3F30A54C1F30A5586
:1007B0002C44A4F2F3340194A0FB0254C1F31301BE
:1007C00041F48011C3F3130343F4801301FB02448B
:1007D00000FB034E840A970A44EA815447EA835790
:1007E000A4FB076802958D0A05FB07854FEA932C49
:1007F00004FB0C542705029D4FEA065847EA1637BA
:10080000B5EB08056EEB070C870E920E47EA8117D1
:1008100042EA8312A7FB0201B6EB0B0164EB000472
:100820002B0D43EA0C335E1844EB1C50DA4651465C
:10083000E7FB0201C5F313044FEA0B3343EA1453F9
:100840004FEA0432019C43EA0603A4F10C0402942B
:10085000009CCDE900B400F0F5F803B0BDE8F08FDE
:1008600000200146F9E72DE9F04D81EA030404F088
:10087000004B21F0004514464FF0000A23F00041E0
:1008800050EA050220D054EA01021DD0C5F30A57F0
:100890000246C5F31303C1F31300C1F30A5640F433
:1008A000801543F48013A7EB0608101BD64608F208
:1008B000FD3873EB050002D308F1010801E092183E
:1008C0005B41B8F1000F03DA00200146BDE8F08D6E
:1008D00000204FF48011064684460EE0171B73EB90
:1008E000050705D3121B63EB050306434CEA010C15
:1008F00049084FEA300092185B4150EA0107EDD1F8
:1009000052EA030012D082EA040083EA0501084398
:1009100005D0101BAB4106D20122002306E00022C5
:100920004FF0004302E06FF0010253101AEB060093
:100930004CEB085110EB0A0041EB0B01BDE8F04D08
:1009400000F071B8C1F30A52C1F3130140F2FF3352
:1009500041F480119A4202DA00200146704740F2C9
:1009600033439A42A2F2334202DC5242FFF7FEBB0B
:1009700000F02AB830B5041E71F1000404DB4FF01A
:100980000044404264EB0101141E73F1000405DBD6
:100990001C464FF00043524263EB0403994208BFE8
:1009A000904230BD064C074D06E0E06840F0010380
:1009B00094E8070098471034AC42F6D3FFF7BCFB2D
:1009C00080FC0008A0FC0008202A04DB203A00FA82
:1009D00002F1002070479140C2F1200320FA03F396
:1009E000194390407047202A06DBCB17203A41FA82
:1009F00002F043EAE07306E041FA02F3D040C2F1AC
:100A0000200291400843194670473A2800D23038F6
:100A100020F02002412A01D3A2F13700884201D3FD
:100A20004FF0FF30704710B5141E73F1000408DA60
:100A3000401C41F1000192185B411A4301D120F0A2
:100A4000010010BD2DE9F04D92469B4611B1B1FA5F
:100A500081F202E0B0FA80F220329046FFF7B4FF54
:100A600004460F4640EA0A0041EA0B0153465A4643
:100A7000084313D0114653EA010019D0C8F14002CF
:100A80005046FFF773FB05460E4650465946424610
:100A9000FFF79AFF084305D0012004E020463946BD
:100AA000BDE8F08D0020054346EAE0762C4337434D
:100AB0000A986305E40AA0EB08000022FD0A44EA54
:100AC00047540A3002D500200146E9E70105101914
:100AD0006941DDE9084500196941BDE8F04DA2E72B
:100AE00070B58C1810F8015B15F0070301D110F8F0
:100AF000013B2A1106D110F8012B03E010F8016B1D
:100B000001F8016B5B1EF9D12B0705D40023521E9F
:100B10000DD401F8013BFAE710F8013BCB1A921C07
:100B200003E013F8015B01F8015B521EF9D5A14205
:100B3000D8D3002070BD0000014800F00CBD0000BB
:100B4000E00E002070B5044600688168C943C907FB
:100B500017D1816821F00101816001F071F905462A
:100B60000AE000BF01F06CF9401B022804D920689C
:100B70008068C043C00706D020688068C043C007B3
:100B8000F0D0002070BDA06A40F01000A062E06AC2
:100B900040F00100E062012070BD10B50146406ADE
:100BA000826A12F0500F05D0006A026BBDE8104057
:100BB00008461047816A41F40071816201688968C2
:100BC000C1F3424107290CD1017B51B9816A21F45B
:100BD00080718162816AC90403D4816A41F0010194
:100BE000816200F0B5FC10BD10B5406A816A41F029
:100BF00040018162C16A41F00401C16200F0AAFCB7
:100C000010BD10B5406A00F0A4FC10BDF8B5002678
:100C10000446009600688168C943C9072DD08168E1
:100C200041F001018160164816490068B0FBF1F0FF
:100C300000E0401E00900028FBD101F001F90546BC
:100C400016E000BF01F0FCF8401B022810D9206814
:100C50008068C043C0070BD0A06A40F01000A062BB
:100C6000E06A40F00100E06284F824600120F8BDF1
:100C700020688068C043C007E4D10020F8BD0000B0
:100C80004001002040420F00FEE7000070B505461D
:100C9000B0F5000F01DA074870BD0749FFF762FBA6
:100CA000044606492846FFF760FB2146BDE8704030
:100CB000FFF78DBB002474493333534000002041BB
:100CC0000FB400B5C1B043AA684642990BF0AEFD1F
:100CD0006846FFF7A9FA82B24FF6FF7369460348E8
:100CE00002F081FD41B05DF814FB00009C10002073
:100CF00030B590F840500124AC40C56B6C6004687E
:100D000063604368102B036803D099600068C26079
:100D100030BD9A600068C16030BD704710B54FF4B7
:100D2000805000F07BFF4FF4005000F077FF4FF44D
:100D3000804000F073FFBDE810404FF4004000F029
:100D40006DBF10B5202000F069FF4FF4807000F0F7
:100D500065FFBDE810404FF4007000F05FBF72B651
:100D6000FEE7000010B50146074B002003EB001220
:100D7000147814B152788A4204D0401CC0B20328BF
:100D8000F4D3032010BD0000D80100200649002044
:100D900001EB00121278002A04D0401CC0B20328D4
:100DA000F6D3032070470000D80100200F494FF40C
:100DB000007008600D481438026822F40072026066
:100DC00082150A60026822F4807202604FF40042C9
:100DD0000A60026822F40042026020220A60016870
:100DE00021F02001016002A0FFF76ABF1404014056
:100DF000D2D1BDFBD3C34B5F454EBACD44435F4315
:100E000054524CCCD8B6A8D2FDBDC5D6D0B6CFA3CF
:100E1000ACB1A3C1F4B0B4BCFCBACDB7E7C9C8D675
:100E2000D0B6CF0D0A00000038B500211E4C0A468E
:100E3000012500BF04EB0110491C05704570857049
:100E400042608260C9B202730429F3D300F040FA11
:100E50002070A070607000F051FA2074A07460746B
:100E600000F062FA84F8200084F8220084F821005F
:100E700000F01CFA84F8300084F8320084F8310065
:100E800000F0DEFF094948610D7009A0FFF718FF67
:100E900094F83200009094F82230A27CA1780BA044
:100EA000FFF70EFF38BD00004801002000000020C1
:100EB0004750494FC2D6D1AFCFB5CDB3B3F5CABCB9
:100EC000BBAFCDEAB3C90D0A00000000B3F5CABC40
:100ED000D7B4CCAC3A204B315F454E3D25642C2035
:100EE0004B325F454E3D25642C204B335F454E3DD4
:100EF00025642C2044435F4354524C3D25640D0A25
:100F00000000000070B586B01DA0FFF7D9FE234C8D
:100F1000207808B122A100E022A123A0FFF7D0FE93
:100F200025A0A169FFF7CCFE28A0E169FFF7C8FE64
:100F30002BA0216AFFF7C4FE2E4D95F832000090D9
:100F400095F82230AA7CA9782BA0FFF7B9FE394B7F
:100F500001AE00240FCB86E80F0000BF05EB0410A4
:100F6000017B00918378027856F8241032A0FFF7B5
:100F7000A7FE641CE4B2042CF0D306B070BD0000E0
:100F80003D3D3D204750494FC2D6D1AFCFB5CDB33F
:100F9000D7B4CCAC203D3D3D0D0A00000000002040
:100FA000CAC70000B7F10000C2D6D1AFCAB9C4DCCD
:100FB0003A2025730D0A0000D7DCC2D6D1AFB4CEDB
:100FC000CAFD3A20256C750D0A000000D7B4CCACE0
:100FD000B1E4BBAFB4CECAFD3A20256C750D0A0052
:100FE000B7C0B6B6BEDCBEF8B4CECAFD3A20256C9A
:100FF000750D0A0048010020B5B1C7B0CEC8B6A82B
:10100000D7B4CCAC3A204B315F454E3D25642C2003
:101010004B325F454E3D25642C204B335F454E3DA2
:1010200025642C2044435F4354524C3D25640D0AF3
:1010300000000000D0E4000825733A20B5B1C7B025
:101040003D25642C20CEC8B6A83D25642C20B7C011
:10105000B6B6BCC6CAFD3D25640D0A002DE9F843AD
:101060004C4C207800287DD000F0EAFE05466069EF
:10107000281A0A2876D36561A169A046491CA16196
:1010800000F026F98DF8000000F038F98DF8010025
:1010900000F04AF98DF8020000F008F9DFF8F89046
:1010A0008DF8030000266F4609EB0614B85D6178E1
:1010B000884209D02070002065602073D8F81C1089
:1010C000491CC8F81C103CE0207B052804D2401CB9
:1010D000C0B22073052834D36068281A322830D370
:1010E0002278A1788A4239D0A27036B1012E0CD074
:1010F000022E14D0032E31D119E028A0D8F81830D0
:10110000FFF7DEFDA178012006E031A0D8F8183005
:10111000FFF7D6FDA178022005F02EF81EE039A0D9
:10112000D8F81830FFF7CCFDA1780320F4E742A0EF
:10113000D8F81830FFF7C4FDA07878B907F0CAF9DD
:101140000CE02078A178884208D06068281A3228FC
:1011500004D2D8F82010491CC8F82010B85D60707F
:10116000761C00E013E0F6B2A560042E9CD3D8F8FC
:10117000241047F23052691A4046914207D3456223
:10118000D0E907233AA0D8F81810FFF799FDBDE879
:10119000F883000000000020480100203F205BC2CF
:1011A000D6D1AFBCECB2E25D204B315F454ED7B437
:1011B000CCACB1E4BBAF3A2025642D3E2564202899
:1011C000C2D6D1AFBCC6CAFD3A256C75290D0A003E
:1011D0003F205BC2D6D1AFBCECB2E25D204B325FA8
:1011E000454ED7B4CCACB1E4BBAF3A2025642D3E1C
:1011F00025642028C2D6D1AFBCC6CAFD3A256C757D
:10120000290D0A003F205BC2D6D1AFBCECB2E25D33
:10121000204B335F454ED7B4CCACB1E4BBAF3A20E2
:1012200025642D3E25642028C2D6D1AFBCC6CAFD98
:101230003A256C75290D0A003F205BC2D6D1AFBCA0
:10124000ECB2E25D2044435F4354524CD7B4CCAC83
:10125000B1E4BBAF3A2025642D3E25642028C2D6D8
:10126000D1AFBCC6CAFD3A256C75290D0A00000035
:101270003F205BC2D6D1AFCDB3BCC65D20D7DCC2A8
:10128000D6D1AF3A256C75B4CE2C20D7B4CCACB146
:10129000E4BBAF3A256C75B4CE2C20B7C0B6B6BE51
:1012A000DCBEF83A256C75B4CE0D0A002021014849
:1012B00000F0BCBD000C01401021014800F0B6BD9B
:1012C000001001400221014800F0B0BD000C0140B7
:1012D0004FF40071014800F0A9BD0000000C01406E
:1012E0002021014800F0A2BD001001404FF48061B0
:1012F000014800F09BBD0000000C01404FF48071DC
:10130000014800F093BD0000000C0140012101489C
:1013100000F08CBD000C01404FF40061014800F06A
:1013200085BD0000000C01404FF40041014800F071
:101330007DBD0000000801404FF48071014800F0BD
:1013400075BD0000000801404FF40071014800F035
:101350006DBD0000001001404FF48071014800F0A5
:1013600065BD00000010014020B10022102102489C
:1013700000F061BD0122F9E7000C014020B100221C
:101380000821024800F057BD0122F9E7000C014096
:1013900002460221014800F04EBD0000001001404D
:1013A00002460121014800F046BD00000010014046
:1013B00002460821014800F03EBD0000000801403F
:1013C00002464FF48051014800F035BD000801404D
:1013D00002460821014800F02EBD00000010014027
:1013E00002460421014800F026BD00000010014023
:1013F00002462021014800F01EBD00000008014007
:1014000002461021014800F016BD0000000801400E
:1014100002464021014800F00EBD000000100140CE
:1014200002468021014800F006BD00000010014086
:1014300002468021014800F0FEBC00000008014087
:1014400002460421014800F0F6BC000000140140EF
:1014500070470000F8B50024009490F82420254639
:10146000012A12D0012280F824204A681F23072A6B
:101470000DD20668776B521E02EB820293409F43A7
:101480000B6893401F43776319E00220F8BD06689C
:101490000D2A0AD2376BD21F02EB820293409F4380
:1014A0000B6893401F43376309E0F76A0D3A02EB7C
:1014B000820293409F430B6893401F43F7620A6880
:1014C000072306680A2A0AD3F7680A3A02EB42029F
:1014D00093409F438B6893401F43F76008E0376950
:1014E00002EB420293409F438B6893401F43376156
:1014F0000A68102A01D0112A20D1124B02689A42A0
:1015000017D193681B0219D4936843F400039360C6
:101510000968102912D10C490C4A0968B1FBF2F193
:1015200001EB8101490000E0491E00910029FBD137
:1015300004E0816A41F020018162012480F8245096
:101540002046F8BD002401404001002040420F0029
:1015500070477047704770B5044600680668456874
:10156000A90625D5B10723D5A16AC90603D4A16A66
:1015700041F40071A1628168C1F34241072910D191
:10158000217B71B9416821F020014160A06A20F4FB
:101590008070A062A06AC00403D4A06A40F0010079
:1015A000A0622046FFF7D4FF21686FF012000860A8
:1015B00028062ED570072CD5A06AC00603D4A06AD1
:1015C00040F40050A06220688168C1F3023107290D
:1015D00009D04168490515D48168C1F34241072902
:1015E00010D1217B71B9416821F080014160A06A6E
:1015F00020F48050A062A06AC00503D4A06A40F025
:101600000100A0622046FFF723FF21686FF00C0065
:10161000086068060CD5F0070AD0A06A40F4803054
:10162000A062204600F096F821686FF00100086083
:1016300070BD00002DE9F04104004FF000057FD09F
:10164000A06A002628B9E66284F82460204600F0EB
:1016500083F82046FFF776FAA16AC90600D420B1C4
:10166000A06A40F01000A0626AE0A16A21F48851EB
:1016700041F00201A162334923688B42E16904D140
:10168000B1F5402F01D14FF40021277B4FF4807C2E
:1016900041EA470261680A43A168614508D001290F
:1016A00006D0002194F814E0BEF1010F02D00AE048
:1016B0006146F7E7C7B1A76A47F02007A762E76A64
:1016C00047F00107E7625F6827F469470F435F60EF
:1016D000236899681C4F394011439960A16861459E
:1016E0000BD0012909D00CE0DFF860E0A7690EEB10
:1016F00047370F4347F40061E5E7218A0D05A5F55B
:1017000080152168CB6A23F470032B43CB622168D8
:1017100089680F4B1940914208D1E662A16A21F015
:10172000020141F00101A162BDE8F081A06A20F050
:10173000020040F01000A062E06A40F00100E062A8
:101740000120F1E7003C0140FDF7E1FF00E0FFFF71
:10175000FE0E1FFF7047000070B586B000250646DC
:10176000009501950295039500681E49884236D17F
:101770001D49886940F400708861886900F4007030
:101780000490886940F0040088618869694600F027
:10179000040004900720009003200190134800F0FB
:1017A00049FA144C1248C4E900058020C4E90250EB
:1017B00040002061800060612020C4E906052046C9
:1017C00000F05CF908B1FFF7CAFA34620022052183
:1017D0001220666200F016FE122000F005FE06B030
:1017E00070BD0000002401400010024000080140CC
:1017F00008000240100F00202DE9F04789460446FA
:101800003B4900683B4F0E1D9046884201D0B842CC
:1018100007D1306810F4702F03D001252846BDE8A9
:10182000F08794F8240001280CD0012084F82400CB
:101830002046FFF7EBF905004FF0000004D084F8D4
:101840002400EBE70220EAE7A16A40F60162914337
:1018500041F48071A1622168B94218D1326812F452
:10186000702F14D0A16A41F48011A162316849053A
:1018700005D5A16A21F4005141F48051A162A16A09
:10188000C9040AD5E16A21F00601E16206E0A26A14
:1018900022F48012A2624968E9E7E06284F8240039
:1018A000216A15488862216A1448C862216A14486E
:1018B000086321686FF0020008602068816841F4C5
:1018C00080718160216843464A464C31206A00F0AD
:1018D00013F920688168C1F342410729816803D068
:1018E00041F48011816099E741F4A001FAE700001A
:1018F00000240140002801409B0B0008030C000855
:10190000E90B000810B590F821100022022905D03B
:101910000421816380F82020012010BD01680B683C
:1019200023F00E030B6001680B6823F001030B60CA
:1019300090F84030C46B012101FA03F3636080F832
:10194000211080F82020104610BD00002DE9F05F26
:1019500090F821100024022903D00421816301247E
:1019600085E001680A6822F00E020A6001680A68D0
:1019700022F001020A603F4E3E4FB215DFF8F4C07C
:10198000DFF8F090DFF8ECA0DFF8E8B0DFF8E4E093
:101990000168783F13011502ACF1640CA9F15009FC
:1019A000AAF13C0AABF1280BAEF1140E4FF48018EB
:1019B000B14227D9B9420ED0614512D049451DD058
:1019C000514518D0594518D0714501D1424615E00E
:1019D000294EB14201D1012210E0274E1436B14206
:1019E00001D110220AE0244E2836B14206D0224A04
:1019F0003C32914201D11A4600E02A461E49091F95
:101A00000A602BE0B94213D0614517D0494522D076
:101A100051451DD059451DD0714501D142461AE0AE
:101A2000B14202D14FF0807215E0134EB14201D1A4
:101A3000012210E0104E1436B14201D110220AE00A
:101A40000D4E2836B14206D00B4A3C32914201D1AC
:101A50001A4600E02A46074980394A60012180F889
:101A60002110002180F82010416B01B188472046E9
:101A7000BDE8F09F800002400804024030B560B12C
:101A80001A4B026814219A4209D2194B1344B3FB32
:101A9000F1F18900016417490AE0012030BD134BC0
:101AA0005B421344B3FBF1F1890001640F4908392B
:101AB000C163022180F82110136843F6F0718B4353
:101AC000F0E901142143D0E902452C432143046984
:101AD0002143446921438469214319431160002152
:101AE0004163012242770177084630BD0804024075
:101AF000F8FFFDBF0000024070B5044690F82000DA
:101B0000002501280CD0012084F8200094F82160E1
:101B10000020012E06D084F820000225284670BD42
:101B2000022070BD022684F82160A0632068066848
:101B300026F0010606602046FFF7DAF8E06A002882
:101B40002068016802D041F00E0106E021F0040196
:101B500001602068016841F00A01016020680168A5
:101B600041F001010160D9E770B5044600F068F961
:101B70000546601C02D004480078044400F060F977
:101B8000401BA042FAD370BD3401002070B5B0F5FF
:101B9000805F26D04FF400510026174A0125174CCC
:101BA000884208D04900884220D1104600F03EF912
:101BB00078B1667070BD104600F038F908B1267033
:101BC00070BD20780028FBD1257000F039F96060E5
:101BD00070BD60780028FBD1657000F031F9A0601D
:101BE00070BD07480168491C016070BDBDE87040C8
:101BF000014604A0FFF764B8001001402401002052
:101C000050000020CEB4D6AA4750494FD6D0B6CF08
:101C10003A2050696E3D25640D0A0000044910B554
:101C20000A68024202D00860FFF7B0FF10BD000052
:101C3000140401402DE9F84FDFF8C8910024A9F100
:101C4000040B23460F2709F1040AABF1040ED1E07F
:101C50000125A54006EA0502AA4276D1DFF8A8C10F
:101C60004E68A6EB0C0866452BD00DDC032E34D055
:101C700005DC36B3012E19D0022E2FD11BE0112E18
:101C800016D0122E2AD119E0B8F5881F19D006DC1B
:101C9000B8F5803F15D0B8F5801F1FD111E0B8F519
:101CA000001F0ED0B8F5041F18D10AE0CB6815E06C
:101CB000CB681B1D12E0CB6808330FE0CB680C33F8
:101CC0000CE08B682BB1012B4FF0080303D045616A
:101CD00004E0042302E0056100E00023FF2A01D8AC
:101CE000064601E000F104064FEA840501D9A5F19A
:101CF0002005D6F8008007FA05FC28EA0C0803FA4C
:101D000005F548EA0508C6F800804D68ED0070D575
:101D10003E4DAE6946F00106AE61AD6924F00306A2
:101D200005F0010500953A4D06EB050CDCF808506E
:101D3000A607360F07FA06F825EA0805DFF8D4806B
:101D4000404503D14FF0000825E052E0DFF8C8809D
:101D5000404502D14FF001081DE0DFF8C08040454A
:101D600002D14FF0020816E0DFF8B480404502D1FE
:101D70004FF003080FE0DFF8AC80404502D14FF090
:101D8000040808E0DFF8A080404502D14FF00508C4
:101D900001E04FF0060808FA06F848EA0508CCF812
:101DA00008804D68D9F80060ED024D4601D5164314
:101DB00000E096432E604D68DAF80060AD025546AB
:101DC00001D5164300E096432E604D68DBF80060B5
:101DD000AD035D4601D5164300E096432E604D6885
:101DE000DEF80060ED03754601D5164300E096432A
:101DF0002E60641C0A681646E2407FF429AFBDE8F5
:101E0000F88F00000804014000001110001002408B
:101E10000000014000080140000C0140001001409A
:101E20000014014000180140001C01408068084077
:101E300000D0012070470AB1016170470904FBE737
:101E400001488068704700003401002070B504002C
:101E500025D094F83D00002520B984F83C50204658
:101E600000F006FA242084F83D002068016821F083
:101E7000010101602068016841F4004101602068AF
:101E8000016821F40041016000F0FAFB4D4A6168ED
:101E9000914201D84C4900E04C49884201D20120CE
:101EA00070BD4B492368B0FBF1F15E6826F03F0638
:101EB0000E435E606368934206D94FF496735943AC
:101EC0004FF47A73B1FBF3F12368491C1E6A26F0C4
:101ED0003F06314319626168914210D84900401EA3
:101EE000B0FBF1F2521CC2F30B02042A01D204200F
:101EF00022E0B0FBF1F0401CC0F30B001CE0A26834
:101F0000F2B301EBC10303EB0116431EB3FBF6F37F
:101F10005B1C43F480431B0549D092B301EBC10223
:101F200002EB0111401EB0FBF1F0401CC0F30B00AE
:101F300040F4804040F400402168CA694CF6FF73C9
:101F40009A431043C861D4E907100143206802682E
:101F500022F0C00211430160D4E90301014320686B
:101F6000826848F2FF339A4311438160D4E9050146
:101F700008432168CA6822F0FF021043C86001E0EC
:101F80000EE016E02068016841F00101016025645F
:101F9000202084F83D00256384F83E50002070BD69
:101FA00001EB4106431EB3FBF6F35B1CB3E70120D4
:101FB000C2E701EB4101401EB0FBF1F0401CC0F351
:101FC0000B00B7E7A086010080841E0000093D00D9
:101FD00040420F002DE9FF4F81B089460446FFF7CC
:101FE0002FFF054694F83D004FF0000820287DD1D2
:101FF0001923012250492046009501F0DDFC0028FC
:1020000074D194F83C00012870D0012084F83C0081
:1020100020680168C90703D1016841F0010101602E
:102020002068016821F400610160242084F83D00EB
:10203000002626644148E0624FF0011B20272068FB
:10204000016841F4807101600095002259462046E4
:10205000049B01F0B1FC50B120680068C00502D5B6
:102060004FF400702064032005B0BDE8F08F2168B4
:1020700009F0FE000861FFF7E3FE216805464869A4
:102080004969C0F34000C1F380214FF0A00A0FE07E
:10209000FFF7D6FE411B0498814200D808B984F8A6
:1020A0003DA0216848694969C0F34000C1F380211F
:1020B00094F83D20A02A02D008B90029E8D084F87D
:1020C0003D7020684169C943890716D4016841F40D
:1020D0000071016020684169806919230122164955
:1020E0002046009501F068FCB8B900E021E084F8D2
:1020F0003D7084F83C600020B6E7016841F400714F
:10210000016021686FF480604861192301220A4947
:102110002046009501F050FC08B10120A4E7039887
:1021200008F1010880458AD384F83D7084F83C604A
:10213000F3E7022098E70000020010000000FFFF14
:102140002DE9FF4F83B09A46DDE911979346044687
:10215000DDF84080FFF774FE054694F83D00202826
:102160007FD11923012240492046009501F024FC2B
:10217000002876D194F83C00012872D0012084F820
:102180003C0020680168C90703D1016841F00101E2
:1021900001602068016821F400610160212084F859
:1021A0003D00402084F83E0000262664C4F82480C8
:1021B000A4F82A90608D20852C48E062CDE9007556
:1021C00053465A462046049901F076FB70B930E038
:1021D0002A463946204601F095FC58B1206C042867
:1021E00004D12068016841F400710160012007B04A
:1021F000BDE8F08F606A216800780861606A401C61
:102200006062218D491E89B22185628D521E6285D0
:1022100022685369DB435B070BD469B10078106116
:10222000606A401C6062208D401E2085608D401ECB
:102230006085208D0028CBD12A463946204601F002
:102240008FFB0028CAD154F83D0B016841F400719E
:102250000160202004F81E09E67766770020C6E7B3
:10226000FFE70220C3E70000020010000000FFFFAC
:1022700010B586B000210091019102910391006890
:102280000F4988421AD10F4CA06940F00800A061A4
:10229000A069694600F008000490C0200090122058
:1022A0000190032003900848FFF7C4FCE06940F464
:1022B0000010E061E06900F40010049006B010BD69
:1022C0000054004000100240000C014070B50400B2
:1022D00013D021684CF6CC400860216845F2555077
:1022E0000860D4E9000141602168A0688860FFF7B8
:1022F000A7FD054641F23C360DE0012070BD00BF50
:10230000FFF79EFD401BB04205D92068C0688007DA
:1023100001D0032070BD2068C0688007F0D121681B
:102320004AF6AA200860002070BD00684AF6AA217B
:102330000160002070470000024881680278114463
:102340008160704734010020074810B5016841F0F2
:1023500010010160032000F075F80F2000F006F86E
:1023600000F024F8002010BD0020024070B50D4D93
:1023700004464FF47A712878B1FBF0F00A490968F5
:10238000B1FBF0F000F03BFE48B9102C07D2002260
:102390002146501E00F036F800206C6070BD012010
:1023A00070BD000034010020400100200C4808B539
:1023B000816941F001018161816901F001010091B0
:1023C000C16941F08051C161C06900F08050009046
:1023D0000448416821F0E06141F00071416008BDAE
:1023E0000010024000000140002809DB00F01F023D
:1023F000012191404009800000F1E020C0F8001167
:1024000070470000F0B40E4B1B680C46C3F3022368
:10241000C3F10705042D00D90425191D072901D290
:10242000002300E0DB1E012606FA05F1491E2140CB
:1024300099409E40761E16403143F0BC0AF01FBA08
:102440000CED00E0064900F0070208684FF6FF03B4
:10245000184040EA0220034A104308607047000019
:102460000CED00E00000FA052DE9F8430546007880
:10247000354CC00754D0E0690026C00008D4E0699C
:1024800040F08050E061E069012600F0805000904B
:102490002E480168C90512D40168804641F4807154
:1024A0000160FFF7CDFC074605E000BFFFF7C8FC61
:1024B000C01B642823D8D8F80000C005F6D5206AD0
:1024C00010F4407021D0A98801F4407181421CD0E1
:1024D000206A1F49012220F440700A6000220A602D
:1024E0002062C00711D0FFF7ABFC074641F28838E5
:1024F00008E000BFFFF7A4FCC11B414502D903203F
:10250000BDE8F883206A8007F4D5206A696820F462
:102510004070084320621EB1E06920F08050E06105
:102520002878800705D56068A96820F440400843F2
:1025300060602878C00605D56068696920F480006D
:10254000084360600020DBE700100240007000409C
:10255000400442422DE9F0470F46050061D0434E4A
:10256000306800F00700B84209D2306820F0070058
:1025700038433060306800F00700B84251D1286815
:102580003B4C810712D5400703D5606840F4E060FA
:1025900060602878000703D5606840F46050606090
:1025A0006068A96820F0F000084360602878C007E0
:1025B00028D06868012810D02168022810D0890727
:1025C00000292EDA616821F0030101436160FFF701
:1025D00037FC804641F288390DE021688903EFE736
:1025E0008901EDE7FFF72CFCA0EB0801494502D972
:1025F0000320BDE8F0876068696800F00C00B0EB6C
:10260000810FEFD1306800F00700B8420BD9306875
:1026100020F0070038433060306800F00700B8420F
:1026200001D00120E5E72878400705D56068E96812
:1026300020F4E060084360602878000706D56068F1
:10264000296920F4605040EAC100606000F038F869
:102650006168084AC1F30311515CC840064908602B
:1026600006480068FFF782FE0020C2E70020024013
:102670000010024032F5000840010020380100201F
:102680000448054900684968044AC1F30221515CC5
:10269000C8407047400100200010024042F5000889
:1026A0000448054900684968044AC1F3C221515CE5
:1026B000C8407047400100200010024042F5000869
:1026C0000E4A51680E4801F00C03042B11D0082B60
:1026D0000FD10C48C1F38343C903C05C0AD55168CC
:1026E000084AC1F34041921E515C054A5043B0FB79
:1026F000F1F0704704494843704700000010024061
:1027000000127A0022F5000800093D002DE9F84F7B
:10271000040070D02078C04DC00749D06868C0F36D
:102720008100012807D06868C0F38100022809D120
:102730006868C00306D52868800339D5606800281A
:10274000E7D035E06068B0F5803F0BD010B1B0F550
:10275000A02F11D0286820F480302860286820F449
:10276000802002E0286840F480302860606890B1E2
:10277000FFF766FB06460AE0286840F480202860E0
:10278000F0E700BFFFF75CFB801B642873D8286864
:102790008003F7D50CE0FFF753FB064605E000BFCA
:1027A000FFF74EFB801B6428F0D828688003F7D41D
:1027B00020789A4E80074FF001094FF0000839D574
:1027C000686810F00C0F07D06868C0F38100022819
:1027D00009D16868C00306D42868800714D5206929
:1027E000012808D110E02069B0B1C6F80090FFF7C9
:1027F00027FB074605E00AE1FFF722FBC01B022882
:10280000C4D828688007F7D52868616920F0F800E7
:1028100040EAC10028600DE0C6F80080FFF710FB19
:10282000074604E0FFF70CFBC01B022823D82868EA
:102830008007F7D4207800072CD57948A169D9B151
:10284000C0F80090FFF7FCFA074604E0FFF7F8FA3B
:10285000C01B02280FD8686A8007F7D571484FF46B
:10286000FA510068B0FBF1F0009000BF0098411EE3
:102870000091FAD20EE080E0C0F80080FFF7E0FAA5
:10288000074604E0FFF7DCFAC01B022875D8686A27
:102890008007F7D42078400760D5E8690027C0009A
:1028A00008D4E86940F08050E861E869012700F049
:1028B000805000905C480168C90513D401688346C4
:1028C00041F480710160FFF7BBFA824606E000BF69
:1028D000FFF7B6FAA0EB0A0064284ED8DBF8000038
:1028E000C005F5D5E06801280AD008B1052813D045
:1028F000286A20F001002862286A20F0040002E023
:10290000286A40F001002862E06841F2883B98B1F3
:10291000FFF796FA82460BE0286A40F0040028622E
:10292000EEE700BFFFF78CFAA0EB0A0159455AD831
:10293000286A8007F6D50CE0FFF782FA824605E0A8
:10294000FFF77EFAA0EB0A0159454CD8286A8007A8
:10295000F6D41FB1E86920F08050E861E06988B3DF
:102960006968C1F38101022944D00228C6F8608059
:1029700004D0FFF765FA044638E034E0FFF760FA68
:10298000074604E0FFF75CFAC01B02282BD8286832
:102990008001F7D4206AB0F5803F05D16868A1684E
:1029A00020F4003008436860D4E9080108436968EE
:1029B00021F4741108436860C6F86090FFF740FA8C
:1029C000044606E025E000BFFFF73AFA001B0228A4
:1029D00009D828688001F7D51BE000BFFFF730FA5F
:1029E000001B022802D90320BDE8F88F2868800167
:1029F000F4D40EE00128F7D06868226A00F4803130
:102A0000914204D1616A00F47010884201D0012023
:102A1000EAE70020E8E70000001002400000424220
:102A200080044242400100200070004070B5040064
:102A300009D0606A002540B125616561A56294F8FE
:102A4000510040B10CE0012070BD6068B0F5827F9C
:102A5000F4D0E561F2E784F85050204600F040F8E9
:102A6000022084F851002068016821F040010160D3
:102A7000A088218900F4827001F404410843A189EF
:102A800001F400610843217C01F002010843217D2B
:102A900001F001010843218B01F400710843217FFB
:102AA00001F03801084394F8201001F08001084338
:102AB000218D01F40051084321680860A0690421B8
:102AC00001EA1040216848602068C16921F4006172
:102AD000C1616565012084F85100002070BD0000CF
:102AE00030B585B0002400940194029403940068EA
:102AF0001549884225D11548C16941F48041C16119
:102B0000C16901F480410491816941F0080181614A
:102B100080690F4D00F0080004904FF420400090B1
:102B2000022001900320039069462846FFF782F8AF
:102B30004FF48040CDE90004694628460294FFF72F
:102B400079F805B030BD00000038004000100240A8
:102B5000000C01402DE9F84F044690F851001D4645
:102B600016460F46012838D160684FF00408B0F5CA
:102B7000827F01D1A06830B3FFF762F98246002F4F
:102B800075D0002E73D094F85000012825D04FF056
:102B9000010984F8509084F851804FF00008C4F87F
:102BA0005480A763A687E687C4F83080A4F83480F1
:102BB000A4F83680C4F84080C4F84480A068B0F51A
:102BC000004F0CD015E084F85180009313460A465C
:102BD000204600F01CF9BDE8F88F0220FBE72068D2
:102BE000016821F0400101602068016821F4804102
:102BF000016020680168490603D4016841F0400182
:102C00000160E068C0B134E020688168C90709D07C
:102C1000007BA16B0870A06B401CA063E08F401E7E
:102C2000E08709E0FFF70CF9A0EB0A00A84202D305
:102C3000681C01D032E085B3E08F0028E4D11BE0AE
:102C400020688168C90709D0C068A16B0880A06BA3
:102C5000801CA063E08F401EE0870AE0FFF7F0F8D9
:102C6000A0EB0A00A84203D3681C02D016E012E0D1
:102C70009DB1E08F0028E3D152462946204604F05A
:102C8000BFFF08B12020606584F8519084F850801F
:102C9000606D00289FD001209DE7FFE784F85190E8
:102CA00084F85080032096E72DE9F84F98461646A1
:102CB0008A460446FFF7C4F8814694F8510001287B
:102CC0001ED1BAF1000F73D0002E71D094F85000CD
:102CD000012815D0012784F85070032084F8510092
:102CE00000256565C4F830A0A686E686A563A5879D
:102CF000E58765642564A068B0F5004F03D00CE05B
:102D00000220BDE8F88F2068016821F040010160D1
:102D10002068016841F4804101602068016849062B
:102D200003D4016841F040010160E068B0F5006F34
:102D3000606803D048B3012E27D047E008B1012EC8
:102D40001FD1206B21680088C86006E02068816878
:102D5000890709D5216B0988C160206B801C20631D
:102D6000E08E401EE0860CE0FFF76AF8A0EB090158
:102D7000414503D3B8F1FF3F03D035E0B8F1000F70
:102D800032D0E08E0028E1D123E0206B216800786A
:102D9000087306E02068816889070AD5216B0978E5
:102DA0000173206B401C2063E08E401EE0860DE026
:102DB0002BE0FFF745F8A0EB0901414503D3B8F13B
:102DC000FF3F03D010E0B8F1000F0DD0E08E0028D7
:102DD000E0D14A464146204604F040FF08B1202099
:102DE0006065A06830B109E084F8517084F85050F3
:102DF000032086E72068C1688068009084F85170DD
:102E000004F8505F60680028F3D0012079E72DE9CD
:102E1000FF4F81B01D46934604464FF001090E9EB8
:102E2000FFF70EF8074694F851006168012806D0B4
:102E3000B1F5827F3CD1A168C9BB042838D1029882
:102E4000002871D0BBF1000FFBD0002DF9D094F811
:102E5000500001282CD04FF0010A84F850A094F8BB
:102E60005100042802D0052084F851004FF00008DA
:102E7000C4F85480C4F838B0E587A5870299216367
:102E8000E586A586C4F84080C4F8448020680168BF
:102E9000490603D4016841F040010160E068B0F5E3
:102EA000006F606808D0F0B3012D49D081E0FFE7E2
:102EB000022005B0BDE8F08F08B1012D39D1206B9B
:102EC00021680088C860206B801C2063E08E401E53
:102ED000E0862EE02068816889070FD5E18E69B110
:102EE000B9F1010F0AD1216B0988C160206B801CE8
:102EF0002063E08E401EE0864FF000092068816864
:102F0000C9070CD0E18F51B1C068A16B0880A06BDC
:102F1000801CA063E08F401EE0874FF00109FEF7A0
:102F20008FFFC01B01E00BE067E0B04201D3701CD3
:102F300050D1E08E0028CDD1E08F0028CAD13EE0EC
:102F4000206B216800780873206B401C2063E08EA2
:102F5000401EE0862DE02068816889070FD5E18E4C
:102F600069B1B9F1010F0AD1216B09780173206BA6
:102F7000401C2063E08E401EE0864FF00009206870
:102F80008168C9070CD0E18F51B1C068A16B08708E
:102F9000A06B401CA063E08F401EE0874FF001094A
:102FA000FEF74EFFC01BB04202D3701C01D011E0EF
:102FB00086B1E08E0028CED1E08F0028CBD13A46F2
:102FC0003146204604F04AFE50B12020606584F866
:102FD000508012E084F851A084F85080032068E704
:102FE000A06818B92068C1688068009084F851A072
:102FF00084F85080606D0028F1D0012059E710B5A9
:10300000401EB0F1807F01D3012010BD4FF0E024BD
:1030100060610F21601709F032FC0020A0610720D9
:103020002061002010BD000070B590F83C20012AFE
:103030002CD0012480F83C40022280F83D20036817
:103040005A689D6822F070060A6832435A60104B35
:1030500002689A420ED00F4B9A420BD0B2F1804FC9
:1030600008D00D4B9A4205D00C4B9A4202D00C4B23
:103070009A4204D1496825F080031943916080F891
:103080003D40002180F83C10084670BD022070BD14
:10309000002C0140003401400004004000080040C2
:1030A000000C004010B5040003D094F83D0010B1AE
:1030B00007E0012010BD002084F83C00204600F00D
:1030C0001FF8022084F83D00211D206808F014F844
:1030D000012084F8460084F83E0084F83F0084F81C
:1030E000400084F8410084F8420084F8430084F8EA
:1030F000440084F8450084F83D00002010BD000025
:1031000008B500680649884208D10648C16941F0FF
:103110000201C161C06900F00200009008BD00001A
:10312000000400400010024070B5044690F83C00D6
:103130000025012817D0012684F83C60022084F87D
:103140003D002068826822F0770222F47F4282608C
:103150000868502838D00DDC20284FD005DC90B30B
:10316000102811D14AE0022070BD302846D04028F6
:103170000AD13BE060282FD070280DD0B0F5805FD9
:1031800003D0B0F5005F12D0012584F83D60002027
:1031900084F83C00284670BDCB68D1E90121206845
:1031A00008F005F82068816841F0770109E0CB68F4
:1031B000D1E90121206807F0FAFF2068816841F415
:1031C00080418160E1E719E0CA684968206808F039
:1031D000C3F85021206806E0CA684968206808F0F2
:1031E000CCF86021206807F0ECFFCEE7CA68496898
:1031F000206808F0B1F840212068F4E72268014611
:103200001046F0E700B585B00021009101910291D0
:10321000039100680B49884211D10B48816941F044
:10322000040181618069694600F004000490402037
:1032300000900220019003900448FEF7FBFC05B0CB
:1032400000BD0000000400400010024000080140E2
:1032500070B5044690F83C0000260D4601280FD0BA
:10326000012084F83C006AB1042A1DD0082A2FD01E
:103270000C2A3FD00126002084F83C00304670BD67
:10328000022070BD206807F0A5FF2068816941F029
:10329000080181612068816921F004018161206851
:1032A00081692A69114311E0206807F0C3FF206893
:1032B000816941F4006181612068816921F4806144
:1032C0008161206881692A6941EA02218161D2E72E
:1032D000206807F0E5FF2068C16941F00801C1617D
:1032E0002068C16921F00401C1612068C1692A69AF
:1032F000114311E0206808F007F82068C16941F423
:103300000061C1612068C16921F48061C1612068E8
:10331000C1692A6941EA0221C161ACE710B5040024
:1033200003D094F83D0010B107E0012010BD00204B
:1033300084F83C00204600F01EF8022084F83D008E
:10334000211D206807F0D8FE012084F8460084F88B
:103350003E0084F83F0084F8400084F8410084F87F
:10336000420084F8430084F8440084F8450084F85F
:103370003D00002010BD704710B50446022249B13F
:1033800004290ED0082913D094F84100012816D042
:10339000012010BD94F83E000128F9D184F83E20A8
:1033A0000FE094F83F000128F2D184F83F2008E0B4
:1033B00094F840000128EBD184F8402001E084F823
:1033C00041200122206807F0E5FE13492068134AD6
:1033D000884201D0904203D1436C43F400434364DC
:1033E000206888420DD090420BD0B0F1804F08D0B9
:1033F0000B49884205D00B49884202D00A498842CD
:1034000004D1816801F00701062903D0016841F069
:1034100001010160002010BD002C0140003401407A
:103420000004004000080040000C00407047704756
:10343000F8B5016804460868CA684B6910F00F0FB8
:103440004FF0000559D003F0010602F4907737439E
:1034500065D0C10705D0D10503D5616C41F00101EC
:103460006164410705D5D90703D0616C41F00201C1
:103470006164810705D5D90703D0616C41F004016F
:103480006164010707D502F02001314303D0616C6C
:1034900041F008016164616C00293AD0800604D5CE
:1034A000900602D5204608F0D2F820684069616C89
:1034B000C0F38010090700D460B3204608F0A0F8DC
:1034C00020684069400621D52068143050E8001F6C
:1034D00021F0400140E80012002AF5D1E06BA8B1CC
:1034E0006D494163E06BFEF731FA002811D0E06BC3
:1034F000416B01B0BDE8F040084783060FD5930645
:103500000DD52046BDE8F84008F0A1B82046FFF7E9
:103510008EFFF8BD2046FFF78AFF6564F8BD266B75
:103520002023012E7CD1C6067AD5D60678D5086828
:103530004868009048694FF00206400640D5E16BAC
:10354000086840680004000CE8D0A28D8242E5D9EA
:10355000E085886920282DD020680C3050E8001FB5
:1035600021F4807140E80012002AF5D1206814305F
:1035700050E8001F21F0010140E80012002AF5D1B7
:103580002068143050E8001F21F0400140E800128C
:10359000002AF5D184F84230256320680C3050E8C9
:1035A000001F21F0100140E80012002AF5D1E06B65
:1035B000FEF7A8F96663A08DE18D401A81B22AE07A
:1035C000A08DE18D401A81B2E08D0028A6D000299F
:1035D000A4D022680C3252E8000F20F4907042E828
:1035E0000007002FF5D12068143050E8002F22F09A
:1035F000010240E80027002FF5D184F8423025630E
:1036000020680C3050E8002F22F0100240E8002320
:10361000002BF5D166632046FFF708FFF8BDFFE7F2
:1036200005062BD5150629D594F841002128F5D19A
:10363000A068B0F5805F01D12069B0B1206A411C5B
:103640002162216800784860E08C401E0004000C74
:10365000E084E3D12068C16821F08001C160206866
:10366000C16841F04001C160D8E7206A0088C0F31A
:1036700008004860206A801C2062E5E74006CDD53E
:103680005006CBD5CA68204622F04002CA6084F8B2
:10369000413000F0F8F8C1E7F1B5000870B504005A
:1036A00004D094F84100002510B106E0012070BD5F
:1036B00084F84050204600F023F8242084F841008C
:1036C0002068C16821F40051C160204608F020F84C
:1036D0002068016921F4904101612068416921F06D
:1036E0002A0141612068C16841F40051C1606564EC
:1036F000202084F8410084F842006563002070BDFA
:1037000070B586B000240094019402940394036879
:103710002F482E4E022103220515B34221D1836981
:1037200043F480438361836903F480430493836992
:1037300043F0040383618069264E00F00400049086
:103740000802CDE90001039269463046FEF772FA9D
:10375000CDE90054694630460294FEF76BFA06B094
:1037600070BD1D4EB342FAD1C36943F48023C361D7
:10377000C36903F480230493836943F010038361D6
:103780008069CDE9005100F01000CDE90320134D10
:1037900069462846FEF74EFAE814CDE9000469466A
:1037A00028460294FEF746FA0D48416821F03001A0
:1037B00041F0E06141F010014160002211462720F4
:1037C000FEF720FE2720FEF70FFEC8E70038014075
:1037D0000010024000080140004800400010014075
:1037E0000000014070472DE9F843044690F841007D
:1037F000984616460D46202802D00220BDE8F883E0
:1038000085B17EB100206064212084F84100FEF77C
:1038100017FBA6848146E684A0682027B0F5805F68
:1038200002D003E00120E9E7206910B12E4600250F
:103830000EE000260CE08021204607F0C5FFA8B965
:10384000C6B116F8010B21684860E08C401EE08488
:10385000E08C4B464FF00002CDF800800028EAD102
:103860004FF04001204607F0AFFF40B184F84170AF
:103870000320C3E735F8020BC0F30800E3E784F840
:1038800041700020BAE77047FEE701684A69D243F9
:1038900052050FD46FF480624A61002140F8301F56
:1038A000202242738173026942F0040202610173B3
:1038B00001207047002070472DE9F8430446006856
:1038C0000D46DDE9089701689846164641F4807177
:1038D00001604B4600224FF001112046009700F096
:1038E0006BF848B120680068C00502D54FF400703D
:1038F00020640320BDE8F883216805F0FE0008611C
:103900003B464A461549204600F09EF888B9206893
:103910004169806900903A464946204600F0F2F835
:1039200048B1206C042804D12068016841F400717A
:1039300001600120DEE7F5B2B8F1010F09D021687E
:10394000300A08613A464946204600F0DBF8002874
:10395000E7D1206805610020CCE7000002000100EB
:1039600070B516460D4604461EE02046FFF78DFF53
:1039700008B1012070BD681C16D0FEF761FA801BEB
:10398000A84200D885B920684069C04340070BD5DC
:10399000002044F8300F20216173A073216941F0A9
:1039A000200121612073E4E720684069C04340079B
:1039B000DBD4002070BD00002DE9F0479846174683
:1039C0000D460446C1F30746DDF820902AE000BF0B
:1039D000B8F1FF3F26D0FEF733FAA0EB09014145CD
:1039E00002D8B8F1000F1DD12068012E16D08069D1
:1039F00025EA00000004000C12D00020B84211D1CA
:103A0000002044F8300F20216173A073216941F038
:103A10002001216120730120BDE8F0874069E7E7BC
:103A20000120EBE72068012E0AD0806925EA00001A
:103A30000004000C06D00020B842C9D00020EBE7FB
:103A40004069F3E70120F7E72DE9F047984616466D
:103A50000D4604464FF000094FF0200AC1F3074716
:103A600023E020684069C043400515D42068016800
:103A700041F40071016021686FF480604861C4F80E
:103A8000309084F83DA084F83E90216C41F0040110
:103A9000216484F83C9021E0701C06D0FEF7D0F938
:103AA000A0EB0800B04203D816B1012F1FD021E0CF
:103AB0002068012F15D0806925EA00000004000C61
:103AC00018D000BF44F8309F84F80DA084F80E9001
:103AD000216941F02001216184F80C900120BDE8AA
:103AE000F087406925EA00000004000CEAD1206854
:103AF000406901E02068806925EA00000004000CAC
:103B0000AFD1ECE770B516460D4604461EE02046E0
:103B1000FFF7BBFE08B1012070BD681C16D0FEF790
:103B20008FF9801BA84200D885B920684069C0433E
:103B300000060BD5002044F8300F20216173A073DC
:103B4000216941F0200121612073E4E72068406988
:103B5000C0430006DBD4002070BD00000148FEF722
:103B6000E4BB0000A80F002010B5124C2078E0B193
:103B700000F0BEF8C8B1FFF7F1FF02202070206905
:103B8000401C2061FEF75CF9E061FEF759F90A4933
:103B90000860A07818B109A02169FDF791F801200B
:103BA000FDF7E2FF0120207010BDBDE810400BA022
:103BB000FDF786B8400E0020EC0000205B4957441A
:103BC000475D20CEB9B9B7B3C9B9A6A3ACBCC6CAC4
:103BD000FD3A20256C750D0A00000000B0B2C8AB9C
:103BE000CCF5BCFEB2BBC2FAD7E3A3ACBEDCBEF8D8
:103BF000CEB9B9B7A3A10D0A00000000014890F8A2
:103C00002C007047400E002010B530211648FCF7FC
:103C1000D6FA154C002040F6B83120706070A070C4
:103C2000A1604FF4FA716160E060FEF709F90F4995
:103C3000086000F0E9F994F82C00042809D10CA0E0
:103C4000FDF73EF84FF47A7004F070FF0FA0FDF717
:103C500037F814A0FDF734F8D4E90121BDE810408D
:103C60001AA0FDF72DB80000400E0020EC00002047
:103C7000BFB4C3C5B9B7B8B4CEBBBBD6B8B4B4A68D
:103C8000C0EDD6D02E2E2E0D0A000000BFB4C3C545
:103C9000B9B7B8B4CEBBBBD6B8B4CDEAB3C90D0A78
:103CA000000000003D3D3D2049574447BFB4C3C517
:103CB000B9B7BFD8D6C6C4A3BFE9B3F5CABCBBAFBA
:103CC000CDEAB3C9203D3D3D0D0A0000B3ACCAB1F9
:103CD000CAB1BCE43A20256C756D732C20CEB9B9FD
:103CE000B7BCE4B8F43A20256C756D730D0A00007A
:103CF00010B506F001F8044604F034FB052C05D09D
:103D00000A21012303FA01F2024201D0002010BD72
:103D1000491C0C29F6DD012010BD000000B589B05A
:103D200020220B496846FCF731FA0AA0FCF7C8FFCD
:103D30000F4890F82C005DF820100EA0FCF7C0FF93
:103D40001148416811A0FCF7BBFF09B000BD00009D
:103D500000F500083D3D3D20CFB5CDB3B8B4CEBB96
:103D6000D4ADD2F2B7D6CEF6203D3D3D0D0A0000CF
:103D7000400E0020C9CFB4CEB8B4CEBBD4ADD2F281
:103D80003A2025730D0A0000EC000020C0FACAB7E3
:103D9000B8B4CEBBB4CECAFD3A20256C750D0A006E
:103DA00010B5094C012060702070A069401CA06112
:103DB000FFF7DAFE05A0FCF783FFA169BDE810401C
:103DC0000AA0FCF77DBF0000400E00203D3D3D20D5
:103DD00049574447D7D4B6AFCEB9B9B7D2D1BBD67D
:103DE000B8B4203D3D3D0D0A00000000BBD6B8B47C
:103DF000BCC6CAFD3A20256C750D0A0010B504F04A
:103E0000B1FA04000F480FD04078002819D021469D
:103E10000DA0FCF755FF600402D519A0FCF750FF78
:103E2000BDE8104000F08EB84178002909D1007833
:103E3000032806D11EA0FCF743FFBDE81040FFF7A2
:103E4000AFBF10BD400E00205B49574447BFD8D6D6
:103E5000C65D20BCECB2E2B5BDB0B2C8ABB1A8BE85
:103E6000AF2830782530345829A3ACD4DDCDA34910
:103E7000574447D7D4B6AFCEB9B9B70D0A00000042
:103E80005B49574447BFD8D6C65D203F3F204FC04F
:103E9000E0D2ECB3A3B5BCD6C249574447D7D4B699
:103EA000AFCEB9B9B7B1BBD4DDCDA30D0A000000C8
:103EB0005B49574447BFD8D6C65D20B0B2C8ABB146
:103EC000A8BEAFD2D1C7E5B3FDA3ACBBD6B8B44949
:103ED000574447D7D4B6AFCEB9B9B70D0A000000E2
:103EE00002494860014602A0FCF7EABEEC0000204F
:103EF00049574447C4A3BFE9D2D1C9E8D6C3B8B42F
:103F0000CEBBB4CECAFD3A20256C750D0A00000068
:103F1000034981F82C00014602A0FCF7D1BE000045
:103F2000400E002049574447C4A3BFE9D2D1C9E895
:103F3000D6C3B8B4CEBBD4ADD2F23A2025640D0AB4
:103F40000000000010B5134C8CB0002060700320FE
:103F500020706069401C6061FDF772FF20620EA056
:103F6000FCF7AEFE14A0A2686169FCF7A9FE00F0A0
:103F70005FFC00280CD01AA230216846636908F063
:103F800027FC6B4641F222020021012000F024FEB2
:103F90000CB010BD400E00203D3D3D204957444728
:103FA000D7D4B6AFCEB9B9B7D2D1D4DDCDA3203DE9
:103FB0003D3D0D0A00000000D4DDCDA3BCC6CAFD06
:103FC0003A20256C752C20CFB5CDB3BDABD4DA2506
:103FD0006C756D73BAF3B8B4CEBB0D0A0000000067
:103FE000BFB4C3C5B9B7D4DDCDA3A3ACCFB5CDB3F2
:103FF000B1A3BBA4C6F4B6AFA3ACD4DDCDA3B4CEFD
:10400000CAFD3A256C75000010B50CA0FCF758FEEF
:10401000114890F82C0004280BD110A0FCF750FE9A
:1040200017484168491C4160032902D915A0FCF7D3
:1040300047FEBDE810401DA0FCF742BE3D3D3D20BF
:1040400049574447CFB5CDB3C6F4B6AFBCECB2E9DF
:10405000203D3D3D0D0A0000400E0020BCECB2E2C8
:10406000B5BDBFB4C3C5B9B7B8B4CEBBA3ACCFB5AB
:10407000CDB3D5FDD4DABBD6B8B42E2E2E0D0A00A2
:10408000EC000020BEAFB8E6A3BAC6B5B7B1BFB466
:10409000C3C5B9B7B8B4CEBBA3ACB8B4CEBBB4CE6D
:1040A000CAFD3A20256C750D0A000000CFB5CDB3CE
:1040B000C6F4B6AFBCECB2E9CDEAB3C90D0A000054
:1040C00002004FF0000005D00021535C491C184449
:1040D0003829FAD3704700002DE9F0433B4CA3B0D8
:1040E00000263BA02568FCF7EBFD402212A92068C2
:1040F00007F044FF00281BD13C491298884217D191
:104100003B492198884213D1DDE9131239A0FCF70D
:10411000D7FD16A941A0FCF7D3FD2068A0600020C0
:10412000A06160611498606340A0FCF7C9FD48E09D
:1041300049A0FCF7C5FD4FF47A794FF0010826E05D
:10414000B6FBF9F109FB116010B94C48FEF7EDF828
:10415000402202A9284607F011FF20B1294648A0B5
:10416000FCF7AEFD19E002A800F0ACFEA8B19DF886
:104170000C0090B1032810D8E069761C3D46B0428F
:1041800005D247A0FCF79CFD84F8288005E0606814
:1041900005F14007401CB842D2D2B001A560C4E985
:1041A00005066068401C854206D384F82880206894
:1041B000A06046A0FCF784FD31464EA0A268FCF743
:1041C0007FFD23B00020BDE8F0830000700E0020CA
:1041D000C9A8C3E8C8D5D6BECFB5CDB3B4E6B4A29E
:1041E000C7F8D3F22E2E2E0D0A0000001A7C5E5E58
:1041F000EFBEADDEB7A2CFD6D6D8D6C3B1EABCC724
:10420000A3ACCAB1BCE4B4C13A2575A3ACD6D8D628
:10421000C3B4CECAFD3A25750D0A0000D6D8D6C360
:10422000D4ADD2F23A2025730D0A0000D2D1B4D316
:10423000D6D8D6C3D7B4CCACBBD6B8B4A3ACCFC257
:10424000B4CED0B4C8EBBDABB8B2B8C7D6D8D6C31D
:10425000B1EABCC70D0A0000CEB4B7A2CFD6D6D8FB
:10426000D6C3B1EABCC7A3ACBFAACABCCDEAD5FBD2
:10427000C9A8C3E82E2E2E0D0A000000A80F0020AA
:10428000C8D5D6BECFB5CDB3B6C1C8A1CAA7B0DC1C
:10429000A3ACB5D8D6B73A3078253038580D0A00D7
:1042A000C8D5D6BECFB5CDB3C9A8C3E8CCF5C4BF79
:1042B000CAFDB3ACCFDEA3ACBFC9C4DCB4E6B4A2C4
:1042C000C7F8D2D1C2FA0D0A00000000C8D5D6BE88
:1042D000CFB5CDB3B4E6B4A2C7F8D2D1C2FAA3AC7D
:1042E000C6F4D3C3D1ADBBB7B8B2B8C7C4A3CABDB7
:1042F0000D0A0000C8D5D6BECFB5CDB3C9A8C3E856
:10430000CDEAB3C93A20D5D2B5BD20256420CCF57D
:10431000C8D5D6BEA3ACD0B4C8EBCEBBD6C33A305A
:1043200078253038580D0A002DE9F041134E96F8E3
:10433000290058B1002086F8290030684FF48055D4
:10434000B0FBF5F47068B0FBF5F710E00420BDE8B1
:10435000F08100BF04FB05F007F0B6FA18B10120A8
:1043600086F82900F3E70648FDF7DFFF641CBC422E
:10437000F0D9BDE8F04100F0CDB80000700E00208B
:10438000A80F0020FEB50D001446014623D00A2CCC
:1043900021D34FF47A72B1FBF2F3B1FBF2F002FBDE
:1043A00013163C21B0FBF1F2B0FBF1F701FB170053
:1043B000B2FBF1F3B2FBF1F701FB17211822B3FBBB
:1043C000F2F7CDE9001002FB173303A20296214653
:1043D000284608F0FDF9FEBD253032643A2530321A
:1043E000643A253032642E2530336400024909686E
:1043F00001EB801070470000700E002001488069BA
:1044000070470000700E0020A0F580524FF48051DC
:104410008A4210D241F20F01884201D811A07047A0
:1044200041F22F01884201D811A07047B0F5825F98
:1044300015D212A07047A0F540528A4205D243F22D
:104440000F0188420BD810A07047A0F580428A4225
:1044500005D244F23F01884201D80FA0704711A055
:1044600070470000B0B2C8ABD2ECB3A300000000AC
:10447000CFB5CDB3B1A3BBA400000000D2ECB3A371
:10448000BDE2B3FD00000000CFB5CDB3C9FAC3FC57
:10449000D6DCC6DA00000000CFB5CDB3BDA1BFB5F4
:1044A00000000000CEB4D6AACAC2BCFE00000000C4
:1044B000014890F838007047700E0020014880696C
:1044C00070470000700E00200148406970470000EE
:1044D000700E00200D4810B590F82810A1B1836827
:1044E0000168591A89090162C269914204D3B1FB7A
:1044F000F2F402FB141101629101C0E90512D0E946
:1045000008120348FCF7DCFB002010BD700E0020F1
:1045100068FA000870B53FA0FCF7D2FB4548FDF7EC
:1045200004FF45A0FCF7CCFB07F006FA002810D0EA
:104530004AA0FCF7C5FB53A0FCF7C2FB54A0FCF754
:10454000BFFB59A0FCF7BCFB5CA0FCF7B9FB01204A
:1045500070BD5FA0FCF7B4FB3648FDF7E6FE62A035
:10456000FCF7AEFB3C216748FBF729FE654C4FF496
:1045700080166FF07F40C4E900604FF47000206146
:10458000A6600025E66080116561C4E906502562D9
:10459000656284F8285084F82950E5622563642018
:1045A000656384F8380058A0FCF78AFBFFF794FD98
:1045B00020B15EA0FCF784FBA660A56165A0FCF7B6
:1045C0007FFB00F041FC012084F8290066A0FCF785
:1045D00077FB94F838200F216BA0FCF771FBD4E92E
:1045E000001271A0FCF76CFB77A0A168FCF768FBD8
:1045F0007CA0A169FCF764FB7FA0E169FCF760FB8C
:1046000082A343F201020021022000F0E5FA00201B
:1046100070BD0000BFAACABCB3F5CABCBBAFCDB366
:10462000D2BBB4E6B4A2C8D5D6BECFB5CDB32E2E7C
:104630002E0D0A00A80F0020D5FDD4DAB3F5CABCB0
:10464000BBAF5732355131323820466C617368C781
:10465000FDB6AF2E2E2E0D0A00000000C8D5D6BE26
:10466000CFB5CDB3B3F5CABCBBAFCAA7B0DCA3BA54
:10467000466C617368B3F5CABCBBAFCAA7B0DC0DAA
:104680000A000000C7EBBCECB2E9A3BA0D0A0000B7
:10469000312E2057323551313238D0BEC6ACC1AC84
:1046A000BDD30D0A00000000322E2053504932BD08
:1046B000D3BFDAC5E4D6C30D0A000000332E204371
:1046C00053D2FDBDC5CAC7B7F1BDD3B5D80D0A00D9
:1046D000466C617368C7FDB6AFB3F5CABCBBAFB378
:1046E000C9B9A60D0A000000B3F5CABCBBAFCDB373
:1046F000D2BBB4E6B4A2B9DCC0EDC6F72E2E2E0DA7
:104700000A000000700E0020C9A8C3E8B4E6B4A2F5
:10471000C7F8D3F2A3ACB2E9D5D2D7EEBAF3D0B48E
:10472000C8EBCEBBD6C32E2E2E0D0A00B6A8CEBB2C
:10473000D7EEBAF3D0B4C8EBCEBBD6C3CAA7B0DCB1
:10474000A3ACD6D8D6C3CEAAC6F0CABCCEBBD6C3FD
:104750000D0A0000D5FDD4DAB8FCD0C2BDA1BFB5AA
:10476000B6C82E2E2E0D0A00CDB3D2BBB4E6B4A22D
:10477000C8D5D6BECFB5CDB3B3F5CABCBBAFB3C9F0
:10478000B9A63A0D0A0000002D20D7DCC8DDC1BF54
:104790003A202564204D422028BDA1BFB5B6C83AB5
:1047A00025642525290D0A002D20B4E6B4A2C7F8FA
:1047B000D3F23A20307825303858202D2030782513
:1047C0003038580D0A0000002D20B5B1C7B0D0B464
:1047D000C8EBCEBBD6C33A203078253038580D0A06
:1047E000000000002D20D2D1D3D0C8D5D6BE3A20AB
:1047F000256420CCF50D0A002D20D7EEB4F3C8DDDA
:10480000C1BF3A20256420CCF50D0A00CDB3D2BB40
:10481000B4E6B4A2C8D5D6BECFB5CDB3C6F4B6AF54
:1048200000000000014890F828007047700E00203A
:10483000014890F829007047700E002010B508A0BC
:10484000FCF73EFA1548416990F838308A0A8169C8
:1048500013A0FCF735FA1EA0FCF732FA002010BDB9
:104860002D2D2D2D2D2D2D2D2D2D2D2D2D2D2D2D78
:104870002D2D2D2D2D2D2D2D2D2D2D2D2D2D2D2D68
:104880002D2D2D2D2D2D2D2D2D2D2D2D2D2D2D2D58
:104890002D2D2D2D2D2D2D2D0D0A0000700E0020FB
:1048A000D7DCCCF5C4BFCAFD3A2025642C20D2D178
:1048B000D3C3BFD5BCE43A202564204B422C20BD95
:1048C000A1BFB5B6C83A20256425250D0A00000011
:1048D0003D3D3D3D3D3D3D3D3D3D3D3D3D3D3D3D08
:1048E0003D3D3D3D3D3D3D3D3D3D3D3D3D3D3D3DF8
:1048F0003D3D3D3D3D3D3D3D3D3D3D3D3D3D3D3DE8
:104900003D3D3D3D3D0D0A0D0A00000010B505A0DE
:10491000FCF7D6F912A0FCF7D3F91DA0FCF7D0F9EB
:10492000002010BD0D0A3D3D3D3D3D3D3D3D3D3D21
:104930003D3D3D3D3D3D3D3D3D3D20C8D5D6BECFF5
:10494000B5CDB3CAE4B3F6203D3D3D3D3D3D3D3DD3
:104950003D3D3D3D3D3D3D3D3D3D3D3D0D0A000064
:10496000CAB1BCE4B4C120202020202020207C201B
:10497000B7D6C0E02020202020207C204348207C87
:1049800020CAC2BCFE207C20CFFBCFA20D0A0000B3
:104990002D2D2D2D2D2D2D2D2D2D2D2D2D2D2D2D47
:1049A0002D2D2D2D2D2D2D2D2D2D2D2D2D2D2D2D37
:1049B0002D2D2D2D2D2D2D2D2D2D2D2D2D2D2D2D27
:1049C0002D2D2D2D2D2D2D2D0D0A000030B5044639
:1049D00026480D469BB090F8291039B1826994425F
:1049E0000AD3214622A0FCF76BF91CE027A0FCF7B4
:1049F00067F904201BB030BD0068402200EB841032
:104A000003A907F0BBFA10B1214625A009E02A4905
:104A10001298884203D19DF81000032805D9214639
:104A200026A0FCF74DF90120E4E7202213A9039802
:104A3000FFF7A8FC05AB95B1BDF812009DF8111069
:104A4000CDE900109DF810002249029313AA51F8F5
:104A50002030214620A0FCF733F90020CAE713AA32
:104A6000214628A0FCF72CF9F7E70000700E002083
:104A7000CBF7D2FDB3ACB3F6B7B6CEA73A202564D8
:104A8000203E3D2025640D0A00000000C8D5D6BE9A
:104A9000CFB5CDB3CEB4B3F5CABCBBAF0D0A0000E1
:104AA000B6C1C8A1C8D5D6BECAA7B0DC3A20CBF7DC
:104AB000D2FD2025640D0A00EFBEADDECEDED0A70C
:104AC000C8D5D6BECCF5C4BF3A20CBF7D2FD202541
:104AD000640D0A00F80000205B253035645D202558
:104AE00073207C202573207C2043483A2564207C59
:104AF000204556543A307825303458207C20257390
:104B00000D0A00005B25645D2025732025730D0AC6
:104B10000000000070B5104D04462868A04202D87D
:104B20006868A04201D2012070BD200501D06FF35A
:104B30000B04214609A0FCF7C3F8204606F0C4FE8A
:104B400020B121460DA0FCF7BBF8ECE7E86A401C59
:104B5000E862002070BD0000700E0020D7BCB1B824
:104B6000C8D5D6BECFB5CDB3D0C2C9C8C7F83A20D4
:104B70003078253038580D0A00000000C8D5D6BE60
:104B8000CFB5CDB3B2C1B3FDC9C8C7F8CAA7B0DCB1
:104B90003A203078253038580D0A000010B50C0046
:104BA00016D00C4991F8292052B1896981420FD958
:104BB000FFF71CFC4022214607F0E0F940B901E074
:104BC000042010BD204600F07DF908B1002010BD82
:104BD000012010BD700E0020F0B591B00E460746C2
:104BE0001C46154640216846FBF7E9FA144890F840
:104BF000290000B3384600F05BF9F0B1FDF720F969
:104C00008DF804708DF805600090ADF806503CB149
:104C10002F22214602A8FBF7FBFA00208DF837006F
:104C20006846FFF74DFA0E9006480F90684600F070
:104C300061F911B0F0BD0420FBE70120F9E70000A5
:104C4000700E0020EFBEADDE30B5354C91B094F85B
:104C50002900002828D033A0FCF732F8402168460C
:104C6000FBF7ADFA36480090FDF7EAF80190606B6B
:104C70000025401CCDE902051F2232A104A8FBF744
:104C8000C7FA374800210F908DF82F500C956A46CF
:104C90000D950846135C401C19443828FAD30E9130
:104CA0002088000503D00EE0042011B030BD2DA0F7
:104CB000FCF706F8206806F007FE08B132A009E00C
:104CC000E06A401CE06240226946206807F006FD69
:104CD00020B133A0FBF7F4FF0120E6E72068A060D5
:104CE0006561A56125626562E06084F828502563EE
:104CF000606B401C60632FA0FBF7E2FF33A00199BB
:104D0000FBF7DEFF3AA0616BFBF7DAFF3DA0A1687D
:104D1000FBF7D6FF42A0FBF7D3FF0020C5E700005A
:104D2000700E0020BFAACABCBFECCBD9C7E5BFD567
:104D3000C8D5D6BECFB5CDB32E2E2E0D0A0000009D
:104D40001A7C5E5E55736572206D616E75616C20B4
:104D5000726573657420766961204B455932000095
:104D6000EFBEADDEB2C1B3FDB5DAD2BBB8F6C9C88D
:104D7000C7F8D3C3D3DAD0B4C8EBD6D8D6C3B1EA18
:104D8000BCC72E2E2E0D0A00B2C1B3FDB5DAD2BBC0
:104D9000B8F6C9C8C7F8CAA7B0DC0D0A0000000001
:104DA000D0B4C8EBD6D8D6C3B1EABCC7CAA7B0DC6A
:104DB0000D0A0000C8D5D6BECFB5CDB3D2D1D5E649
:104DC000D5FDC7E5BFD5A3BA0D0A00002D20D6D862
:104DD000D6C3B1EABCC7D2D1D0B4C8EB466C6173BC
:104DE00068A3ACCAB1BCE4B4C13A2025750D0A0071
:104DF0002D20D6D8D6C3B4CECAFD3A2025750D0ACB
:104E0000000000002D20D0B4C8EBCEBBD6C3D6D84E
:104E1000D6C3CEAA3A203078253038580D0A000083
:104E20002D20CFB5CDB3D6D8C6F4BAF3BDABB4D32D
:104E3000D6D8D6C3B1EABCC7BBD6B8B4BFD5D7B4F1
:104E4000CCAC0D0A00000000104810B5C16A42F257
:104E50001072914201D2642104E04CF2503291422E
:104E600003D2502180F838100DE0094A914201D256
:104E70003221F7E71421074A80F83810012010701A
:104E800005A0FBF71DFF002010BD0000700E0020E4
:104E9000A08601005E000020466C617368BDA1BF62
:104EA000B5B6C8BEAFB8E63A20256425250D0A0080
:104EB000012805D0022803D0032801D00020704724
:104EC0000120704710B5040009D0E06B0849884202
:104ED00005D12046FFF7F4F8A16B814201D00020F4
:104EE00010BD2079FFF7E4FF0028F9D0012010BDA4
:104EF000EFBEADDE70B5050004D0284CA0680105FA
:104F000002D00AE0012070BDFFF704FE060004D0C5
:104F100023A0FBF7D5FE304670BD40222946A0688D
:104F200007F0DCFB20B125A0A168FBF7C9FEE9E78B
:104F3000A0684030A060216B491C216361688842F1
:104F400008D92068A060012084F8280025A0FBF77C
:104F5000B7FE0AE094F8280068B1606A401C6062FD
:104F6000E169884201D300206062FFF7B3FA287933
:104F7000012808D010E0A069401CA061616940319F
:104F800061616062F3E7E888FFF73EFA014605F1E8
:104F900008021EA0FBF794FE002070BD700E0020DA
:104FA000C8D5D6BECFB5CDB3D7BCB1B8D0C2C9C8AD
:104FB000C7F8CAA7B0DC0D0A00000000C8D5D6BEED
:104FC000CFB5CDB3D0B4C8EB466C617368CAA7B097
:104FD000DCA3ACB5D8D6B73A3078253038580D0AAE
:104FE00000000000C8D5D6BECFB5CDB3B4A5B7A2DA
:104FF000D1ADBBB7B8B2B8C7A3ACBBD8B5BDC6F0CE
:10500000CABCCEBBD6C30D0A0000000053414645C2
:105010005459C8D5D6BEBCC7C2BC3A205B25735D07
:105020002025730D0A000000FEB500251B480095E1
:105030000195194902950160891581600124047365
:105040000575032606614FF460214560C161FCF7D8
:10505000F1FA08B1FBF783FE022705200094CDE9A1
:10506000017069460D48FCF7F5F908B1FBF777FECA
:10507000CDE9007669460948FCF7ECF908B1FBF781
:105080006EFECDE9005469460448FCF7E3F90028B8
:1050900001D0FBF764FEFEBD00240140E00E0020BD
:1050A000054808B5416941F001014161406900F0DE
:1050B0000100009008BD0000001002402DE9F04FF3
:1050C00085B000266648009601960296039681698F
:1050D00041F010018161816901F010010491816941
:1050E00041F020018161816901F020010491816911
:1050F00041F004018161816901F004010491816939
:1051000041F0080181618069DFF858B100F00800C2
:1051100004900122CF215846FCF78DFE41F2B807DA
:10512000012239465048FCF786FE012241F218015F
:105130004E48FCF780FE4FF4006A002251464A4870
:10514000FCF779FE012204214948FCF774FEDFF8E0
:1051500024814FF4C040CDE900080124694602943F
:105160005846FCF767FDCF20CDE9000403256946CA
:105170005846CDE90245FCF75DFDCDE9007469466E
:105180003948CDE90245FCF755FD4FF44C70022734
:105190008DE8C10069465846FCF74CFD40F60340D7
:1051A0008DE8C10069463148FCF744FD4FF4805951
:1051B000CDF800900395CDE9014669462B48FCF7F0
:1051C00039FD20028DE8C10069462748FCF732FD11
:1051D000CDF800A00395CDE9014769462248FCF7C8
:1051E00029FDE003CDE90008694602941E48FCF75A
:1051F00021FD2148CDF80090CDE9010469465846CB
:10520000FCF718FD0420CDE9000469461848CDE9F3
:105210000245FCF70FFD1820CDE90004694613484C
:10522000CDE90245FCF706FD4FF44870CDE90008D2
:10523000694602940D48FCF7FDFC0022042117206A
:10524000FDF7E0F81720FDF7CFF800220421282011
:10525000FDF7D8F82820FDF7C7F805B0BDE8F08FB6
:10526000001002400010014000080140000C014005
:105270000014014000003110000021100D4810B54D
:105280000B4901600C49416000214FF4804281606C
:10529000C0E9031241618161C1610162FCF7D6FD81
:1052A000002803D0BDE81040FBF759BD10BD000039
:1052B00000540040540F0020A086010010B50AA041
:1052C000FBF7FEFC10480F4901600421416040F2E9
:1052D00053718160FCF7FAFF002803D0BDE810404D
:1052E000FBF73DBD10BD00003D3D3D204957444703
:1052F000B3F5CABCBBAFBFAACABC203D3D3D0D0A39
:105300000000000000300040A80F00200F4810B53A
:105310000D4901604FF48271416000218160C160DC
:105320004FF400720161C0E90512C161016241627E
:1053300081620A21C162FDF779FB002803D0BDE834
:105340001040FBF70CBD10BD00380040B40F00202A
:1053500010B58EB000240794089409940A940B9415
:105360001C2168460C94FAF72AFF1F481D4901606A
:105370002321C0E901146321C0E903148021816164
:10538000FDF790FE08B1FBF7EAFC4FF48050079060
:1053900007A91548FDF7C8FE08B1FBF7E0FC124865
:1053A000FDF7BCFF08B1FBF7DAFC0B940BA90E4824
:1053B0000C94FDF739FE08B1FBF7D1FC602000909A
:1053C0003220CDE901040022694607480494FDF724
:1053D0003FFF08B1FBF7C3FC0348FDF713FF0EB016
:1053E00010BD0000000400400C1000200C4810B557
:1053F0000A4901604FF416514160002181600C227E
:10540000C160C0E904128161C161FEF747F900285B
:1054100003D0BDE81040FBF7A2BC10BD003801402E
:10542000541000200C4810B50A4901604FF4E131D6
:105430004160002181600C22C160C0E904128161D9
:10544000C161FEF72BF9002803D0BDE81040FBF73F
:1054500086BC10BD004800409C100020FEE7FEE71F
:105460002DE9F0411A498046884202DB1948BDE81F
:10547000F081194D012400BF05EBC400416840468E
:10548000FAF7FCFF1ED805EBC40055F8344070E96C
:1054900002763146C068FAF762FF05463946204673
:1054A000FAF75DFF044631464046FAF758FF2146B9
:1054B000FAF75BFF2946FAF78AFF3946BDE8F04163
:1054C000FAF7FBBE641CA62CD6D30448CFE7000035
:1054D000D7634543000020C2E8E400080000FA4218
:1054E0002DE9F041802837D2082935D2002A33D05F
:1054F000002B31D08418802C02D9C0F18002D2B2A6
:10550000CC18082C02D9C1F10803DBB2134F144E9A
:105510000024BD7804EB840CB4449CF804C0BCF1B6
:10552000000F0ED0641CE4B2082CF3D3082D13D363
:1055300000F024F8BDE8F04108238022002108464D
:10554000CEE704EB84043055A0194170827001212C
:10555000C37001716D1CBD70BDE8F0815E0000205C
:105560002007002010B54FF480610348FAF727FEAA
:10557000BDE8104000F034B92002002010B5282109
:105580000348FAF71CFE03490020887010BD000094
:10559000200700205E000020F0B4284C04EBC11569
:1055A00045E0062B02D0082B1DD03FE0203C5E2CAE
:1055B00017D8802815D2082913D2E6B2204F06EB5F
:1055C0004606002407EB460608E000BF16F804C0B4
:1055D000641CE4B205F807C0062C02D20719802F1C
:1055E000F4D3801D1FE0203C5E2C1BD8802819D2EC
:1055F000072917D2E6B2134F002407EB06170EE077
:1056000017F804C005F806C007EB040C2E44641C10
:105610009CF808C0E4B286F880C0082C02D20619B3
:10562000802EEDD30830C0B2802803D2521C1478EB
:10563000002CB6D1F0BC00F0D3B80000200200204E
:1056400018EA000852EC00080623FFF7A5BF000087
:105650002DE9F003344E89460546002406EBC916B1
:105660004BE0062B02D0082B1FD043E020395E29E7
:1056700019D8802817D2B9F1080F14D2CFB2DFF8A9
:10568000ACC007EB470700210CEB470808E000BF60
:1056900018F801C0491CC9B206F807C0062902D291
:1056A0004718802FF4D3801D21E020395E291DD8B2
:1056B00080281BD2B9F1070F18D2CFB2DFF870C023
:1056C00000210CEB071C0EE01CF8018006F8078097
:1056D0000CEB01083744491C98F80880C9B287F8D8
:1056E0008080082902D24718802FEDD30830C0B23D
:1056F000802806D2641CE4B2521C117809B1322C05
:10570000AFD3401BC2B2082B08D00123002A07D018
:1057100049462846BDE8F003FFF7E2BE0223F5E75D
:10572000BDE8F003704700002002002018EA0008DE
:1057300052EC000810B56420FCF716FAAE2000F019
:1057400019FCD52000F016FC802000F013FCA820E6
:1057500000F010FC3F2000F00DFCD32000F00AFC0C
:10576000002000F007FC402000F004FC8D2000F039
:1057700001FC142000F0FEFB202000F0FBFB0020C9
:1057800000F0F8FBA12000F0F5FBC82000F0F2FBD0
:10579000DA2000F0EFFB122000F0ECFB812000F09B
:1057A000E9FBCF2000F0E6FBD92000F0E3FBF1207D
:1057B00000F0E0FBDB2000F0DDFB402000F0DAFB36
:1057C000A42000F0D7FBA62000F0D4FB6420FCF757
:1057D000CBF9AF2000F0CEFBBDE81040FFF7C2BE12
:1057E000FEB5002464250F4F802600BF04F1B000F1
:1057F000C0B200F0BFFB002000F0BCFB102000F0A6
:10580000B9FB07EBC410CDE9000601234022782143
:1058100002950548FCF794FC641CE4B2082CE5D31F
:10582000FEBD000020020020540F00202DE9FF5F84
:10583000DFF8C09099F80200002859D00026DFF860
:10584000B8A0B34606EB860101EB0A042079E0B369
:10585000002736E06078384400F0FF08B8F1080F00
:1058600032D208F1B000C0B200F084FB207800F022
:105870000F0000F07FFB2078102101EB101000F0EA
:1058800079FB1E49002501EBC81815E02078284453
:10589000C0B2802813D218F800008DF80C00012146
:1058A0000A2203A88DE807000B46402278211448FD
:1058B000FCF746FC6D1CEDB2A078A842E6D87F1C30
:1058C000FFB2E078B842C5D800E001E084F804B047
:1058D000761CF6B2082EB5D389F802B004B0074999
:1058E000BDE8F05F4FF4806201F5A560FAF74EBCA9
:1058F000BDE8FF9F5E00002020070020200200205E
:10590000540F002010B54FF480710348FAF757FC8C
:1059100002490020487010BD200600205E000020D3
:10592000FF2000F093B900002DE9FF4F364A374BB6
:1059300092F8029092F804B0C9F1800000EBD070A8
:10594000C0F347000290022000210C460190002085
:1059500003EBC1159A462C54401CC0B28028F9D3E1
:10596000491CC9B20429F2D309F1070002F1060E5D
:10597000C508002243E000213DE000BF02FB05F026
:105980000EEB0103C05C029B009003EBC107019B7F
:1059900000209E183B189BB2B4B2802B25D2402C1D
:1059A00023D200EBC108C8451FD24FF0800CDDF8B0
:1059B00000802CFA00FC1CEA080F4FEAD4080AEB1E
:1059C000C81CCDF80CC01CF8038004F0070C4FF085
:1059D000010404FA0CF402D048EA040801E028EAC1
:1059E0000408DDF80CC00CF80380401CC0B2082885
:1059F000D0D3491C89B2A942C0D3521C92B25A4595
:105A0000B9D3BDE8FF8F000054F300082002002046
:105A10002DE9F84FFFF7A6FD4FF0000ADFF8A4E0EC
:105A20004FF0120B524600210EEB02170BEB020651
:105A300017F8019000200AEBC1052B18DBB2F4B275
:105A4000802B2FD2402C2DD24FF0800C2CFA00FC52
:105A50001CEA090FDFF870C04FEAD40811D00CEB34
:105A6000C818CDF8008018F803C004F00708012416
:105A700004FA08F4DDF800804CEA040C08F803C0CE
:105A800010E00CEBC81CCDF800C01CF8038004F03B
:105A9000070C012404FA0CF4DDF800C028EA04081D
:105AA0000CF80380401CC0B20828C6D3491CC9B2F8
:105AB0001029BDD3521CD2B21B2AB4D3BDE8F84F73
:105AC000FFF78EBE42F00008200200202DE9FF47BC
:105AD000DDE90C9A1E4690460C460746FFF74EFD40
