:020000040800F2
:10000000D012002049010008033300085D2C0008CD
:1000100001330008C50A0008696E000800000000EE
:10002000000000000000000000000000F145000892
:10003000570B000800000000DD3B0008ED500008F1
:100040006301000863010008630100086301000800
:1000500063010008630100086301000863010008F0
:1000600063010008630100086301000863010008E0
:1000700063010008630100086301000863010008D0
:1000800063010008630100087509000863010008A6
:100090006301000863010008630100087F0B00088A
:1000A00063010008630100086301000863010008A0
:1000B0006301000863010008630100086301000890
:1000C0006301000863010008630100086301000880
:1000D0006301000863010008630100085D6E000809
:1000E000590B000863010008630100086301000860
:1000F0006301000863010008630100086301000850
:10010000630100086301000863010008630100083F
:10011000630100086301000863010008630100082F
:10012000630100086301000863010008630100081F
:10013000DFF810D000F08EFB00480047D9770008A8
:10014000AFF30080D01200200648804706480047E1
:10015000FEE7FEE7FEE7FEE7FEE7FEE7FEE7FEE777
:10016000FEE7FEE71567000831010008202A04DBDE
:10017000203A21FA02F00021704721FA02F3D04020
:10018000C2F12002914008431946704740EA01033A
:100190009B0703D009E008C9121F08C0042AFAD23D
:1001A00003E011F8013B00F8013B521EF9D2704701
:1001B000D2B201E000F8012B491EFBD270470022A9
:1001C000F6E710B513460A4604461946FFF7F0FF56
:1001D000204610BD421E12F8013F002BFBD111F842
:1001E000013B02F8013B002BF9D1704710B50446E2
:1001F00004E00B7800F8013B03B1491C521EF8D211
:10020000204610BD421C10F8011B0029FBD1801AAA
:100210007047F0B480EA0102D40F4200B2EB410F04
:1002200002D20246084611464A0042D0C30DDDB252
:10023000C1F3C752AD1A202D35DAC1F3160141F4CE
:10024000000204B15242C5F1200602FA06F12A4129
:100250001044B3EBD05F23D0C4B1012DA0EBC35049
:1002600009DCF0BC4FF0004202EAC352DBB200F5F9
:10027000000000F009B9400000F1807000EBC350AD
:10028000A0F1807040EAD170490009E0490841EAD4
:10029000C071A0EBC35000F50000400800EBC35054
:1002A000F0BC00F0E8B86142012202EB4101001B02
:1002B000F6E7F0BC704781F00041AAE780F000400B
:1002C000A7E780EA010210B502F00043400022D007
:1002D0004A001FD0010E01EB1261C0F35600C2F3B9
:1002E000560240F4000042F40002A0FB0220000489
:1002F0007F39140400D0401C50EA124001D4400061
:10030000491EC2B20C0604EBD010401C4008802AE3
:1003100002D003E0002010BD20F00100002900DA27
:100320000020184310BD30B480EA010202F00045FD
:1003300030F0004221F0004013D090B1C30DD40D35
:10034000C2F31601C0F31600E41A41F4000140F4B0
:1003500000027D34914201D3641C00E04900002C6E
:1003600002DA30BC002070474FF4000000239142B5
:1003700001D3891A034340084FEA4101F7D151B133
:10038000914202D14FF0004105E002D24FF001014D
:1003900001E06FF0010103EBC450284430BC00F0D1
:1003A0006AB896230022114600F06EB800F00042B1
:1003B00030F000400AD0C10D01F56071C0F31600A5
:1003C00042EA0151C208400711437047002001462C
:1003D00070470000002801DBC0F10040002901DB6C
:1003E000C1F100418842704730B50B4601460020FC
:1003F0002022012409E021FA02F59D4205D303FAE7
:1004000002F5491B04FA02F52844151EA2F1010267
:10041000F1DC30BD2DE9F05F0546002092469B4699
:1004200088460646814640241BE02846414647460A
:100430002246FFF79BFE53465A46C01A914110D3FD
:1004400011461846224600F017FA2D1A67EB0108EC
:100450004F4622460120002100F00EFA17EB00095A
:100460004E41201EA4F10104DFDC484631462A46F5
:100470004346BDE8F09F0029A8BF7047401C4900D3
:1004800008BF20F00100704710B4B0FA80FC00FAF9
:100490000CF050EA010404BF10BC704749B1CCF124
:1004A000200421FA04F411FA0CF118BF01212143B0
:1004B0000843A3EB0C01CB1D4FEA00614FEA10206B
:1004C00042BF002010BC704700EBC350104400290D
:1004D000A4BF10BC7047401C490008BF20F00100B9
:1004E00010BC70472DE9FE4F804681EA0300C00F23
:1004F0000C46009021F0004123F00045B8EB0200CB
:10050000A94105D24046214690461C460B4602466C
:1005100023F00040104347D0270DC7F30A00C3F370
:100520000A510290401A019040286BDAC3F313007D
:1005300040F4801B0098924620B10023D2EB030ABE
:1005400063EB0B0B01985946C0F14002504600F096
:1005500093F906460D4650465946019A00F09BF91C
:1005600010EB08006141002487EA115284EAE77326
:100570001A4340D0009A62B3019A012A4FEA075207
:1005800015DC001B61EB02014FF0004202EA07524A
:10059000CDE90042001C41F5801132462B4600F0A7
:1005A0009BF903B0BDE8F08F40462146F9E7001BF8
:1005B00061EB0201001C41F5801300185B4120181B
:1005C000A2F5001747EB030140EAD570B6196D415B
:1005D00011E06D084FEA360645EAC0754FEA07524A
:1005E000001B61EB0201001C41F5801149084FEA34
:1005F00030000019514132462B4603B0BDE8F04FA0
:1006000000F05BB90098012240000023D0EB020209
:1006100063EBE073009821464FEAE074B8EB00000A
:1006200061EB0401E9E783F000435BE781F00041FF
:1006300058E72DE9FE4F81EA030404F0004421F05D
:10064000004100944FF0000B23F0004350EA0104F6
:100650005ED052EA03045BD0C3F30A54C1F30A55D7
:100660002C44A4F2F3340194A0FB0254C1F313010F
:1006700041F48011C3F3130343F4801301FB0244DC
:1006800000FB034E840A970A44EA815447EA8357E1
:10069000A4FB076802958D0A05FB07854FEA932C9A
:1006A00004FB0C542705029D4FEA065847EA16370B
:1006B000B5EB08056EEB070C870E920E47EA811723
:1006C00042EA8312A7FB0201B6EB0B0164EB0004C4
:1006D0002B0D43EA0C335E1844EB1C50DA465146AE
:1006E000E7FB0201C5F313044FEA0B3343EA14534B
:1006F0004FEA0432019C43EA0603A4F10C0402947D
:10070000009CCDE900B400F0E7F803B0BDE8F08F3D
:1007100000200146F9E72DE9F04D81EA030404F0D9
:10072000004B21F0004514464FF0000A23F0004131
:1007300050EA050220D054EA01021DD0C5F30A5741
:100740000246C5F31303C1F31300C1F30A5640F484
:10075000801543F48013A7EB0608101BD64608F259
:10076000FD3873EB050002D308F1010801E092188F
:100770005B41B8F1000F03DA00200146BDE8F08DBF
:1007800000204FF48011064684460EE0171B73EBE1
:10079000050705D3121B63EB050306434CEA010C66
:1007A00049084FEA300092185B4150EA0107EDD149
:1007B00052EA030012D082EA040083EA05010843EA
:1007C00005D0101BAB4106D20122002306E0002217
:1007D0004FF0004302E06FF0010253101AEB0600E5
:1007E0004CEB085110EB0A0041EB0B01BDE8F04D5A
:1007F00000F063B8C1F30A52C1F3130140F2FF33B2
:1008000041F480119A4202DA00200146704740F21A
:1008100033439A42A2F2334202DC5242FFF7A6BCB3
:1008200000F02AB830B5041E71F1000404DB4FF06B
:100830000044404264EB0101141E73F1000405DB27
:100840001C464FF00043524263EB0403994208BF39
:10085000904230BD064C074D06E0E06840F00103D1
:1008600094E8070098471034AC42F6D3FFF764FCD5
:10087000EC8900080C8A0008202A04DB203A00FAE0
:1008800002F1002070479140C2F1200320FA03F3E7
:10089000194390407047202A06DBCB17203A41FAD3
:1008A00002F043EAE07306E041FA02F3D040C2F1FD
:1008B0002002914008431946704710B5141E73F189
:1008C000000408DA401C41F1000192185B411A4310
:1008D00001D120F0010010BD2DE9F04D92469B465C
:1008E00011B1B1FA81F202E0B0FA80F22032904602
:1008F000FFF7C2FF04460F4640EA0A0041EA0B0137
:1009000053465A46084313D0114653EA010019D002
:10091000C8F140025046FFF729FC05460E465046F6
:1009200059464246FFF7A8FF084305D0012004E0DE
:1009300020463946BDE8F08D0020054346EAE076C2
:100940002C4337430A986305E40AA0EB0800002211
:10095000FD0A44EA47540A3002D500200146E9E77F
:10096000010510196941DDE9084500196941BDE833
:10097000F04DA2E7014800F068BA0000700A0020BC
:1009800070B5044600688168C943C90717D18168FA
:1009900021F00101816000F0C9FE05460AE000BFB8
:1009A00000F0C4FE401B022804D920688068C043C0
:1009B000C00706D020688068C043C007F0D0002080
:1009C00070BDA06A40F01000A062E06A40F0010033
:1009D000E062012070BD10B50146406A826A12F0E3
:1009E000500F05D0006A026BBDE810400846104762
:1009F000816A41F40071816201688968C1F34241F2
:100A000007290CD1017B51B9816A21F4807181627F
:100A1000816AC90403D4816A41F00101816200F056
:100A200011FA10BD10B5406A816A41F0400181623F
:100A3000C16A41F00401C16200F006FA10BD10B5B0
:100A4000406A00F000FA10BDF8B500260446009692
:100A500000688168C943C9072DD0816841F0010150
:100A60008160164816490068B0FBF1F000E0401EB6
:100A700000900028FBD100F059FE054616E000BFAB
:100A800000F054FE401B022810D920688068C04343
:100A9000C0070BD0A06A40F01000A062E06A40F0EE
:100AA0000100E06284F824600120F8BD20688068BD
:100AB000C043C007E4D10020F8BD0000780000204A
:100AC00040420F00FEE7000070B50546B0F5000F8C
:100AD00001DA074870BD0749FFF7F0FB04460649F5
:100AE0002846FFF7EEFB2146BDE87040FFF71BBC30
:100AF0000024744933335340000020410FB400B543
:100B0000C1B043AA6846429906F0DEF96846FFF78D
:100B100079FB82B24FF6FF736946034802F04DF845
:100B200041B05DF814FB0000200C002030B590F8B7
:100B300040500124AC40C56B6C600468636043683E
:100B4000102B036803D099600068C26030BD9A60C2
:100B50000068C16030BD704710B54FF4805000F0A0
:100B6000D3FC4FF4005000F0CFFC4FF4804000F075
:100B7000CBFCBDE810404FF4004000F0C5BC10B500
:100B8000202000F0C1FC4FF4807000F0BDFCBDE8F7
:100B900010404FF4007000F0B7BC72B6FEE70000E2
:100BA0002021014800F0B8BD000C0140102101488F
:100BB00000F0B2BD001001400221014800F0ACBDC0
:100BC000000C01404FF40071014800F0A5BD000089
:100BD000000C01402021014800F09EBD00100140A2
:100BE0004FF48061014800F097BD0000000C014007
:100BF0004FF48071014800F08FBD0000000C0140EF
:100C00000121014800F088BD000C01404FF4006153
:100C1000014800F081BD0000000C01404FF400418C
:100C2000014800F079BD0000000801404FF48071D8
:100C3000014800F071BD0000000801404FF4007150
:100C4000014800F069BD0000001001404FF48071C0
:100C5000014800F061BD00000010014020B10022F9
:100C60001021024800F05DBD0122F9E7000C0140AF
:100C700020B100220821024800F053BD0122F9E70B
:100C8000000C014002460221014800F04ABD00006C
:100C90000010014002460121014800F042BD000061
:100CA0000010014002460821014800F03ABD000052
:100CB0000008014002464FF48051014800F031BD68
:100CC000000C014002460821014800F02ABD000046
:100CD0000010014002460421014800F022BD00003E
:100CE0000010014002462021014800F01ABD00001A
:100CF0000008014002461021014800F012BD00002A
:100D00000008014002464021014800F00ABD0000F1
:100D10000010014002468021014800F002BD0000A1
:100D20000010014002468021014800F0FABC00009A
:100D30000008014002460421014800F0F2BC000016
:100D40000014014070470000F8B50024009490F8AA
:100D500024202546012A12D0012280F824204A6846
:100D60001F23072A0DD20668776B521E02EB820200
:100D700093409F430B6893401F43776319E0022021
:100D8000F8BD06680D2A0AD2376BD21F02EB820229
:100D900093409F430B6893401F43376309E0F76A12
:100DA0000D3A02EB820293409F430B6893401F432E
:100DB000F7620A68072306680A2A0AD3F7680A3A1C
:100DC00002EB420293409F438B6893401F43F760BE
:100DD00008E0376902EB420293409F438B689340DF
:100DE0001F4337610A68102A01D0112A20D1124B03
:100DF00002689A4217D193681B0219D4936843F48E
:100E0000000393600968102912D10C490C4A096843
:100E1000B1FBF2F101EB8101490000E0491E0091B4
:100E20000029FBD104E0816A41F0200181620124A4
:100E300080F824502046F8BD0024014078000020AE
:100E400040420F0070477047704770B50446006815
:100E500006684568A90625D5B10723D5A16AC90644
:100E600003D4A16A41F40071A1628168C1F34241D7
:100E7000072910D1217B71B9416821F0200141601F
:100E8000A06A20F48070A062A06AC00403D4A06AA3
:100E900040F00100A0622046FFF7D4FF21686FF008
:100EA0001200086028062ED570072CD5A06AC0064F
:100EB00003D4A06A40F40050A06220688168C1F3A6
:100EC0000231072909D04168490515D48168C1F369
:100ED0004241072910D1217B71B9416821F080017D
:100EE0004160A06A20F48050A062A06AC00503D4CB
:100EF000A06A40F00100A0622046FFF723FF2168AE
:100F00006FF00C00086068060CD5F0070AD0A06AE4
:100F100040F48030A062204600F096F821686FF01F
:100F20000100086070BD00002DE9F04104004FF0A1
:100F300000057FD0A06A002628B9E66284F8246004
:100F4000204600F083F82046FFF71AFDA16AC90683
:100F500000D420B1A06A40F01000A0626AE0A16A4B
:100F600021F4885141F00201A162334923688B4288
:100F7000E16904D1B1F5402F01D14FF40021277B65
:100F80004FF4807C41EA470261680A43A1686145E9
:100F900008D0012906D0002194F814E0BEF1010F19
:100FA00002D00AE06146F7E7C7B1A76A47F0200719
:100FB000A762E76A47F00107E7625F6827F46947BD
:100FC0000F435F60236899681C4F39401143996053
:100FD000A16861450BD0012909D00CE0DFF860E081
:100FE000A7690EEB47370F4347F40061E5E7218A15
:100FF0000D05A5F580152168CB6A23F470032B43FA
:10100000CB62216889680F4B1940914208D1E66292
:10101000A16A21F0020141F00101A162BDE8F08165
:10102000A06A20F0020040F01000A062E06A40F0E8
:101030000100E0620120F1E7003C0140FDF7E1FF23
:1010400000E0FFFFFE0E1FFF7047000070B586B086
:1010500000250646009501950295039500681E49F6
:10106000884236D11D49886940F4007088618869DA
:1010700000F400700490886940F004008861886979
:10108000694600F0040004900720009003200190BE
:10109000134800F045FA144C1248C4E900058020BA
:1010A000C4E9025040002061800060612020C4E952
:1010B0000605204600F05CF908B1FFF76EFD3462CA
:1010C000002205211220666200F0DCFD122000F0F3
:1010D000CBFD06B070BD00000024014000100240AE
:1010E0000008014008000240A00A00202DE9F04756
:1010F000894604463B4900683B4F0E1D9046884296
:1011000001D0B84207D1306810F4702F03D0012508
:101110002846BDE8F08794F8240001280CD001206F
:1011200084F824002046FFF78FFC05004FF00000F4
:1011300004D084F82400EBE70220EAE7A16A40F635
:101140000162914341F48071A1622168B94218D1D2
:10115000326812F4702F14D0A16A41F48011A16298
:101160003168490505D5A16A21F4005141F4805147
:10117000A162A16AC9040AD5E16A21F00601E1620F
:1011800006E0A26A22F48012A2624968E9E7E062FE
:1011900084F82400216A15488862216A1448C862CC
:1011A000216A1448086321686FF002000860206813
:1011B000816841F480718160216843464A464C3120
:1011C000206A00F013F920688168C1F342410729C1
:1011D000816803D041F48011816099E741F4A00156
:1011E000FAE700000024014000280140D709000868
:1011F0003F0A0008250A000810B590F821100022C7
:10120000022905D00421816380F82020012010BD2F
:1012100001680B6823F00E030B6001680B6823F074
:1012200001030B6090F84030C46B012101FA03F315
:10123000636080F8211080F82020104610BD000067
:101240002DE9F05F90F821100024022903D0042139
:101250008163012485E001680A6822F00E020A60B9
:1012600001680A6822F001020A603F4E3E4FB21543
:10127000DFF8F4C0DFF8F090DFF8ECA0DFF8E8B0BA
:10128000DFF8E4E00168783F13011502ACF1640C6B
:10129000A9F15009AAF13C0AABF1280BAEF1140EEA
:1012A0004FF48018B14227D9B9420ED0614512D00F
:1012B00049451DD0514518D0594518D0714501D127
:1012C000424615E0294EB14201D1012210E0274EDD
:1012D0001436B14201D110220AE0244E2836B14220
:1012E00006D0224A3C32914201D11A4600E02A46F9
:1012F0001E49091F0A602BE0B94213D0614517D07F
:10130000494522D051451DD059451DD0714501D1C7
:1013100042461AE0B14202D14FF0807215E0134EFE
:10132000B14201D1012210E0104E1436B14201D178
:1013300010220AE00D4E2836B14206D00B4A3C324C
:10134000914201D11A4600E02A46074980394A6095
:10135000012180F82110002180F82010416B01B19B
:1013600088472046BDE8F09F800002400804024004
:1013700030B560B11A4B026814219A4209D2194B58
:101380001344B3FBF1F18900016417490AE001201D
:1013900030BD134B5B421344B3FBF1F18900016490
:1013A0000F490839C163022180F82110136843F600
:1013B000F0718B43F0E901142143D0E902452C433D
:1013C000214304692143446921438469214319432A
:1013D000116000214163012242770177084630BD48
:1013E00008040240F8FFFDBF0000024070B504464B
:1013F00090F82000002501280CD0012084F820005E
:1014000094F821600020012E06D084F820000225E7
:10141000284670BD022070BD022684F82160A063BA
:101420002068066826F0010606602046FFF77EFB6E
:10143000E06A00282068016802D041F00E0106E051
:1014400021F0040101602068016841F00A01016097
:101450002068016841F001010160D9E770B50446D8
:1014600000F064F90546601C02D00448007804448A
:1014700000F05CF9401BA042FAD370BD6C00002064
:10148000024610B54FF4007117488A421BD00ADC9F
:10149000202A1DD04FF480718A4224D100F03CF9FB
:1014A000014602200BE0B2F5805F18D04FF40041F6
:1014B0008A4218D10D4800F02FF901460320BDE8FB
:1014C000104002F09BBE00F027F901460120F6E72C
:1014D00007A0FFF713FBBDE8104003F0F7BB094876
:1014E0000168491C016010BD000C0140000801406A
:1014F00044435F4354524CD6D0B6CFB4A5B7A20DE7
:101500000A0000000C000020044910B50A680242DD
:1015100002D00860FFF7B4FF10BD000014040140C2
:101520002DE9F84FDFF8C8910024A9F1040B2346F8
:101530000F2709F1040AABF1040ED1E00125A54003
:1015400006EA0502AA4276D1DFF8A8C14E68A6EBEA
:101550000C0866452BD00DDC032E34D005DC36B3E9
:10156000012E19D0022E2FD11BE0112E16D0122ED3
:101570002AD119E0B8F5881F19D006DCB8F5803FEC
:1015800015D0B8F5801F1FD111E0B8F5001F0ED09F
:10159000B8F5041F18D10AE0CB6815E0CB681B1D15
:1015A00012E0CB6808330FE0CB680C330CE08B689B
:1015B0002BB1012B4FF0080303D0456104E0042355
:1015C00002E0056100E00023FF2A01D8064601E0A1
:1015D00000F104064FEA840501D9A5F12005D6F8EB
:1015E000008007FA05FC28EA0C0803FA05F548EA2A
:1015F0000508C6F800804D68ED0070D53E4DAE6917
:1016000046F00106AE61AD6924F0030605F0010560
:1016100000953A4D06EB050CDCF80850A607360F8E
:1016200007FA06F825EA0805DFF8D480404503D11B
:101630004FF0000825E052E0DFF8C880404502D1B5
:101640004FF001081DE0DFF8C080404502D14FF0A7
:10165000020816E0DFF8B480404502D14FF00308DD
:101660000FE0DFF8AC80404502D14FF0040808E0FD
:10167000DFF8A080404502D14FF0050801E04FF0AF
:10168000060808FA06F848EA0508CCF808804D680C
:10169000D9F80060ED024D4601D5164300E09643AF
:1016A0002E604D68DAF80060AD02554601D516434C
:1016B00000E096432E604D68DBF80060AD035D46A8
:1016C00001D5164300E096432E604D68DEF80060B9
:1016D000ED03754601D5164300E096432E60641C69
:1016E0000A681646E2407FF429AFBDE8F88F000093
:1016F00008040140000011100010024000000140E9
:1017000000080140000C014000100140001401409D
:1017100000180140001C01408068084000D00120F2
:1017200070470AB1016170470904FBE7014880680E
:10173000704700006C00002070B5040025D094F8BC
:101740003D00002520B984F83C50204600F006FA00
:10175000242084F83D002068016821F00101016027
:101760002068016841F4004101602068016821F4AB
:101770000041016000F0C4FB4D4A6168914201D80C
:101780004C4900E04C49884201D2012070BD4B49D0
:101790002368B0FBF1F15E6826F03F060E435E6001
:1017A0006368934206D94FF4967359434FF47A73A2
:1017B000B1FBF3F12368491C1E6A26F03F06314352
:1017C00019626168914210D84900401EB0FBF1F2E5
:1017D000521CC2F30B02042A01D2042022E0B0FB07
:1017E000F1F0401CC0F30B001CE0A268F2B301EB67
:1017F000C10303EB0116431EB3FBF6F35B1C43F47A
:1018000080431B0549D092B301EBC10202EB0111E9
:10181000401EB0FBF1F0401CC0F30B0040F48040D0
:1018200040F400402168CA694CF6FF739A431043A4
:10183000C861D4E9071001432068026822F0C002A1
:1018400011430160D4E9030101432068826848F232
:10185000FF339A4311438160D4E9050108432168AD
:10186000CA6822F0FF021043C86001E00EE016E0F3
:101870002068016841F0010101602564202084F89E
:101880003D00256384F83E50002070BD01EB410609
:10189000431EB3FBF6F35B1CB3E70120C2E701EB89
:1018A0004101401EB0FBF1F0401CC0F30B00B7E754
:1018B000A086010080841E0000093D0040420F0008
:1018C0002DE9FF4F81B089460446FFF72FFF0546FB
:1018D00094F83D004FF0000820287DD11923012203
:1018E00050492046009501F051FA002874D194F82F
:1018F0003C00012870D0012084F83C002068016879
:10190000C90703D1016841F0010101602068016845
:1019100021F400610160242084F83D000026266443
:101920004148E0624FF0011B20272068016841F424
:10193000807101600095002259462046049B01F009
:1019400025FA50B120680068C00502D54FF4007038
:101950002064032005B0BDE8F08F216809F0FE0087
:101960000861FFF7E3FE2168054648694969C0F34D
:101970004000C1F380214FF0A00A0FE0FFF7D6FE30
:10198000411B0498814200D808B984F83DA0216821
:1019900048694969C0F34000C1F3802194F83D20B3
:1019A000A02A02D008B90029E8D084F83D70206848
:1019B0004169C943890716D4016841F40071016087
:1019C0002068416980691923012216492046009543
:1019D00001F0DCF9B8B900E021E084F83D7084F84A
:1019E0003C600020B6E7016841F4007101602168A5
:1019F0006FF480604861192301220A49204600954E
:101A000001F0C4F908B10120A4E7039808F1010826
:101A100080458AD384F83D7084F83C60F3E7022067
:101A200098E70000020010000000FFFF2DE9FF4FC3
:101A300083B09A46DDE9119793460446DDF840806D
:101A4000FFF774FE054694F83D0020287FD1192346
:101A5000012240492046009501F098F9002876D1EE
:101A600094F83C00012872D0012084F83C002068E2
:101A70000168C90703D1016841F0010101602068D4
:101A8000016821F400610160212084F83D004020BC
:101A900084F83E0000262664C4F82480A4F82A9026
:101AA000608D20852C48E062CDE9007553465A468A
:101AB0002046049901F0EAF870B930E02A46394628
:101AC000204601F009FA58B1206C042804D120689E
:101AD000016841F400710160012007B0BDE8F08F9A
:101AE000606A216800780861606A401C6062218D2C
:101AF000491E89B22185628D521E62852268536912
:101B0000DB435B070BD469B100781061606A401C4D
:101B10006062208D401E2085608D401E6085208D76
:101B20000028CBD12A463946204601F003F9002887
:101B3000CAD154F83D0B016841F4007101602020C6
:101B400004F81E09E67766770020C6E7FFE7022063
:101B5000C3E70000020010000000FFFF10B586B0D0
:101B60000021009101910291039100680F49884280
:101B70001AD10F4CA06940F00800A061A069694625
:101B800000F008000490C020009012200190032073
:101B900003900848FFF7C4FCE06940F40010E061DE
:101BA000E06900F40010049006B010BD005400403D
:101BB00000100240000C0140024881680278114484
:101BC000816070476C000020074810B5016841F043
:101BD00010010160032000F075F80F2000F006F8F6
:101BE00000F024F8002010BD0020024070B50D4D1B
:101BF00004464FF47A712878B1FBF0F00A4909687D
:101C0000B1FBF0F000F0E6FB48B9102C07D200223F
:101C10002146501E00F036F800206C6070BD012097
:101C200070BD00006C000020780000200C4808B552
:101C3000816941F001018161816901F00101009137
:101C4000C16941F08051C161C06900F080500090CD
:101C50000448416821F0E06141F00071416008BD35
:101C60000010024000000140002809DB00F01F02C4
:101C7000012191404009800000F1E020C0F80011EE
:101C800070470000F0B40E4B1B680C46C3F30223F0
:101C9000C3F10705042D00D90425191D072901D218
:101CA000002300E0DB1E012606FA05F1491E214053
:101CB00099409E40761E16403143F0BC05F016B99F
:101CC0000CED00E0064900F0070208684FF6FF033C
:101CD000184040EA0220034A1043086070470000A1
:101CE0000CED00E00000FA052DE9F8430546007808
:101CF000354CC00754D0E0690026C00008D4E06924
:101D000040F08050E061E069012600F080500090D2
:101D10002E480168C90512D40168804641F48071DB
:101D20000160FFF703FD074605E000BFFFF7FEFC7B
:101D3000C01B642823D8D8F80000C005F6D5206A57
:101D400010F4407021D0A98801F4407181421CD068
:101D5000206A1F49012220F440700A6000220A60B4
:101D60002062C00711D0FFF7E1FC074641F2883836
:101D700008E000BFFFF7DAFCC11B414502D9032090
:101D8000BDE8F883206A8007F4D5206A696820F4EA
:101D90004070084320621EB1E06920F08050E0618D
:101DA0002878800705D56068A96820F4404008437A
:101DB00060602878C00605D56068696920F48000F5
:101DC000084360600020DBE7001002400070004024
:101DD000400442422DE9F0470F46050061D0434ED2
:101DE000306800F00700B84209D2306820F00700E0
:101DF00038433060306800F00700B84251D128689D
:101E00003B4C810712D5400703D5606840F4E06081
:101E100060602878000703D5606840F46050606017
:101E20006068A96820F0F000084360602878C00767
:101E300028D06868012810D02168022810D08907AE
:101E400000292EDA616821F0030101436160FFF788
:101E50006DFC804641F288390DE021688903EFE787
:101E60008901EDE7FFF762FCA0EB0801494502D9C3
:101E70000320BDE8F0876068696800F00C00B0EBF3
:101E8000810FEFD1306800F00700B8420BD93068FD
:101E900020F0070038433060306800F00700B84297
:101EA00001D00120E5E72878400705D56068E9689A
:101EB00020F4E060084360602878000706D5606879
:101EC000296920F4605040EAC100606000F038F8F1
:101ED0006168084AC1F30311515CC84006490860B3
:101EE00006480068FFF782FE0020C2E7002002409B
:101EF0000010024046870008780000207000002093
:101F00000448054900684968044AC1F30221515C4C
:101F1000C840704778000020001002405687000833
:101F20000448054900684968044AC1F3C221515C6C
:101F3000C840704778000020001002405687000813
:101F40000E4A51680E4801F00C03042B11D0082BE7
:101F50000FD10C48C1F38343C903C05C0AD5516853
:101F6000084AC1F34041921E515C054A5043B0FB00
:101F7000F1F07047044948437047000000100240E8
:101F800000127A003687000800093D002DE9F84F5D
:101F9000040070D02078C04DC00749D06868C0F3F5
:101FA0008100012807D06868C0F38100022809D1A8
:101FB0006868C00306D52868800339D560680028A2
:101FC000E7D035E06068B0F5803F0BD010B1B0F5D8
:101FD000A02F11D0286820F480302860286820F4D1
:101FE000802002E0286840F480302860606890B16A
:101FF000FFF79CFB06460AE0286840F48020286032
:10200000F0E700BFFFF792FB801B642873D82868B5
:102010008003F7D50CE0FFF789FB064605E000BF1B
:10202000FFF784FB801B6428F0D828688003F7D46E
:1020300020789A4E80074FF001094FF0000839D5FB
:10204000686810F00C0F07D06868C0F381000228A0
:1020500009D16868C00306D42868800714D52069B0
:10206000012808D110E02069B0B1C6F80090FFF750
:102070005DFB074605E00AE1FFF758FBC01B02289D
:10208000C4D828688007F7D52868616920F0F8006F
:1020900040EAC10028600DE0C6F80080FFF746FB6B
:1020A000074604E0FFF742FBC01B022823D828683C
:1020B0008007F7D4207800072CD57948A169D9B1D9
:1020C000C0F80090FFF732FB074604E0FFF72EFB55
:1020D000C01B02280FD8686A8007F7D571484FF4F3
:1020E000FA510068B0FBF1F0009000BF0098411E6B
:1020F0000091FAD20EE080E0C0F80080FFF716FBF6
:10210000074604E0FFF712FBC01B022875D8686A77
:102110008007F7D42078400760D5E8690027C00021
:1021200008D4E86940F08050E861E869012700F0D0
:10213000805000905C480168C90513D4016883464B
:1021400041F480710160FFF7F1FA824606E000BFBA
:10215000FFF7ECFAA0EB0A0064284ED8DBF8000089
:10216000C005F5D5E06801280AD008B1052813D0CC
:10217000286A20F001002862286A20F0040002E0AA
:10218000286A40F001002862E06841F2883B98B17B
:10219000FFF7CCFA82460BE0286A40F00400286280
:1021A000EEE700BFFFF7C2FAA0EB0A0159455AD883
:1021B000286A8007F6D50CE0FFF7B8FA824605E0FA
:1021C000FFF7B4FAA0EB0A0159454CD8286A8007FA
:1021D000F6D41FB1E86920F08050E861E06988B367
:1021E0006968C1F38101022944D00228C6F86080E1
:1021F00004D0FFF79BFA044638E034E0FFF796FA84
:10220000074604E0FFF792FAC01B02282BD8286883
:102210008001F7D4206AB0F5803F05D16868A168D5
:1022200020F4003008436860D4E908010843696875
:1022300021F4741108436860C6F86090FFF776FADD
:10224000044606E025E000BFFFF770FA001B0228F5
:1022500009D828688001F7D51BE000BFFFF766FAB0
:10226000001B022802D90320BDE8F88F28688001EE
:10227000F4D40EE00128F7D06868226A00F48031B7
:10228000914204D1616A00F47010884201D00120AB
:10229000EAE70020E8E700000010024000004242A8
:1022A00080044242780000200070004070B50400B5
:1022B00009D0606A002540B125616561A56294F886
:1022C000510040B10CE0012070BD6068B0F5827F24
:1022D000F4D0E561F2E784F85050204600F040F871
:1022E000022084F851002068016821F0400101605B
:1022F000A088218900F4827001F404410843A18977
:1023000001F400610843217C01F002010843217DB2
:1023100001F001010843218B01F400710843217F82
:1023200001F03801084394F8201001F080010843BF
:10233000218D01F40051084321680860A06904213F
:1023400001EA1040216848602068C16921F40061F9
:10235000C1616565012084F85100002070BD000056
:1023600030B585B000240094019402940394006871
:102370001549884225D11548C16941F48041C161A0
:10238000C16901F480410491816941F008018161D2
:1023900080690F4D00F0080004904FF42040009039
:1023A000022001900320039069462846FFF7B8F801
:1023B0004FF48040CDE90004694628460294FFF7B7
:1023C000AFF805B030BD00000038004000100240FA
:1023D000000C014010B5401EB0F1807F01D30120F8
:1023E00010BD4FF0E02460610F21601704F07EFD06
:1023F0000020A06107202061002010BD70B590F87A
:102400003C20012A2CD0012480F83C40022280F894
:102410003D2003685A689D6822F070060A683243BE
:102420005A60104B02689A420ED00F4B9A420BD062
:10243000B2F1804F08D00D4B9A4205D00C4B9A4216
:1024400002D00C4B9A4204D1496825F0800319430D
:10245000916080F83D40002180F83C10084670BD36
:10246000022070BD002C01400034014000040040F7
:1024700000080040000C004010B5040003D094F8A0
:102480003D0010B107E0012010BD002084F83C00A1
:10249000204600F01FF8022084F83D00211D20682E
:1024A00004F03AF9012084F8460084F83E0084F8EC
:1024B0003F0084F8400084F8410084F8420084F82A
:1024C000430084F8440084F8450084F83D0000206F
:1024D00010BD000008B500680649884208D10648CA
:1024E000C16941F00201C161C06900F002000090C1
:1024F00008BD0000000400400010024070B5044612
:1025000090F83C000025012817D0012684F83C6093
:10251000022084F83D002068826822F0770222F4CD
:102520007F4282600868502838D00DDC20284FD0C8
:1025300005DC90B3102811D14AE0022070BD30288C
:1025400046D040280AD13BE060282FD070280DD01B
:10255000B0F5805F03D0B0F5005F12D0012584F89C
:102560003D60002084F83C00284670BDCB68D1E96E
:102570000121206804F02BF92068816841F077017F
:1025800009E0CB68D1E90121206804F020F9206836
:10259000816841F480418160E1E719E0CA684968D7
:1025A000206804F0E9F95021206806E0CA6849680B
:1025B000206804F0F2F96021206804F012F9CEE7F7
:1025C000CA684968206804F0D7F940212068F4E718
:1025D000226801461046F0E700B585B00021009161
:1025E00001910291039100680B49884211D10B4877
:1025F000816941F0040181618069694600F004004D
:102600000490402000900220019003900448FEF7BF
:1026100087FF05B000BD000000040040001002402C
:102620000008014070B5044690F83C0000260D46B5
:1026300001280FD0012084F83C006AB1042A1DD083
:10264000082A2FD00C2A3FD00126002084F83C0015
:10265000304670BD022070BD206804F0CBF82068C1
:10266000816941F0080181612068816921F00401DC
:102670008161206881692A69114311E0206804F0B2
:10268000E9F82068816941F400618161206881690D
:1026900021F480618161206881692A6941EA02210F
:1026A0008161D2E7206804F00BF92068C16941F02C
:1026B0000801C1612068C16921F00401C16120687D
:1026C000C1692A69114311E0206804F02DF92068DE
:1026D000C16941F40061C1612068C16921F4806170
:1026E000C1612068C1692A6941EA0221C161ACE780
:1026F00010B5040003D094F83D0010B107E00120AC
:1027000010BD002084F83C00204600F01EF8022096
:1027100084F83D00211D206803F0FEFF012084F8AD
:10272000460084F83E0084F83F0084F8400084F8B6
:10273000410084F8420084F8430084F8440084F89F
:10274000450084F83D00002010BD704710B50446D8
:10275000022249B104290ED0082913D094F841006F
:10276000012816D0012010BD94F83E000128F9D1AF
:1027700084F83E200FE094F83F000128F2D184F85D
:102780003F2008E094F840000128EBD184F8402075
:1027900001E084F841200122206804F00BF813497D
:1027A0002068134A884201D0904203D1436C43F41D
:1027B00000434364206888420DD090420BD0B0F1B2
:1027C000804F08D00B49884205D00B49884202D07F
:1027D0000A49884204D1816801F00701062903D023
:1027E000016841F001010160002010BD002C014092
:1027F000003401400004004000080040000C00408C
:1028000070477047F8B5016804460868CA684B69A4
:1028100010F00F0F4FF0000559D003F0010602F43D
:102820009077374365D0C10705D0D10503D5616CDA
:1028300041F001016164410705D5D90703D0616CFE
:1028400041F002016164810705D5D90703D0616CAD
:1028500041F004016164010707D502F02001314312
:1028600003D0616C41F008016164616C00293AD0C9
:10287000800604D5900602D5204604F0F8F92068B9
:102880004069616CC0F38010090700D460B3204632
:1028900004F0C6F920684069400621D5206814304C
:1028A00050E8001F21F0400140E80012002AF5D155
:1028B000E06BA8B16D494163E06BFEF7C1FC0028F5
:1028C00011D0E06B416B01B0BDE8F04008478306D2
:1028D0000FD593060DD52046BDE8F84004F0C7B9E2
:1028E0002046FFF78EFFF8BD2046FFF78AFF65649C
:1028F000F8BD266B2023012E7CD1C6067AD5D606DC
:1029000078D508684868009048694FF0020640068C
:1029100040D5E16B086840680004000CE8D0A28D47
:102920008242E5D9E085886920282DD020680C30C6
:1029300050E8001F21F4807140E80012002AF5D110
:102940002068143050E8001F21F0010140E8001217
:10295000002AF5D12068143050E8001F21F0400112
:1029600040E80012002AF5D184F84230256320683F
:102970000C3050E8001F21F0100140E80012002A3E
:10298000F5D1E06BFEF738FC6663A08DE18D401A4F
:1029900081B22AE0A08DE18D401A81B2E08D00283D
:1029A000A6D00029A4D022680C3252E8000F20F4EF
:1029B000907042E80007002FF5D12068143050E8ED
:1029C000002F22F0010240E80027002FF5D184F803
:1029D0004230256320680C3050E8002F22F01002AE
:1029E00040E80023002BF5D166632046FFF708FF7F
:1029F000F8BDFFE705062BD5150629D594F841004B
:102A00002128F5D1A068B0F5805F01D12069B0B16F
:102A1000206A411C2162216800784860E08C401ED9
:102A20000004000CE084E3D12068C16821F080013B
:102A3000C1602068C16841F04001C160D8E7206AE8
:102A40000088C0F308004860206A801C2062E5E727
:102A50004006CDD55006CBD5CA68204622F04002AC
:102A6000CA6084F8413000F0F8F8C1E7116C000842
:102A700070B5040004D094F84100002510B106E0C0
:102A8000012070BD84F84050204600F023F8242037
:102A900084F841002068C16821F40051C1602046DB
:102AA00004F046F92068016921F490410161206831
:102AB000416921F02A0141612068C16841F4005157
:102AC000C1606564202084F8410084F84200656399
:102AD000002070BD70B586B000240094019402946B
:102AE000039403682F482E4E022103220515B3429A
:102AF00021D1836943F480438361836903F4804374
:102B00000493836943F0040383618069264E00F0D7
:102B1000040004900802CDE90001039269463046A2
:102B2000FEF7FEFCCDE90054694630460294FEF7FC
:102B3000F7FC06B070BD1D4EB342FAD1C36943F431
:102B40008023C361C36903F480230493836943F042
:102B5000100383618069CDE9005100F01000CDE9D8
:102B60000320134D69462846FEF7DAFCE814CDE948
:102B70000004694628460294FEF7D2FC0D484168DD
:102B800021F0300141F0E06141F01001416000228C
:102B900011462720FFF776F82720FFF765F8C8E7EA
:102BA0000038014000100240000801400048004089
:102BB000001001400000014070472DE9F843044631
:102BC00090F84100984616460D46202802D0022073
:102BD000BDE8F88385B17EB100206064212084F8CF
:102BE0004100FEF7A3FDA6848146E684A068202765
:102BF000B0F5805F02D003E00120E9E7206910B161
:102C00002E4600250EE000260CE08021204604F030
:102C1000EBF8A8B9C6B116F8010B21684860E08C42
:102C2000401EE084E08C4B464FF00002CDF800805F
:102C30000028EAD14FF04001204604F0D5F840B119
:102C400084F841700320C3E735F8020BC0F3080095
:102C5000E3E784F841700020BAE77047FEE70168B7
:102C60004A69D24352050FD46FF480624A61002151
:102C700040F8301F202242738173026942F004023F
:102C80000261017301207047002070472DE9F8436D
:102C9000044600680D46DDE9089701689846164627
:102CA00041F4807101604B4600224FF00111204633
:102CB000009700F06BF848B120680068C00502D5A5
:102CC0004FF4007020640320BDE8F883216805F00C
:102CD000FE0008613B464A461549204600F09EF832
:102CE00088B920684169806900903A464946204683
:102CF00000F0F2F848B1206C042804D12068016883
:102D000041F4007101600120DEE7F5B2B8F1010F76
:102D100009D02168300A08613A464946204600F049
:102D2000DBF80028E7D1206805610020CCE700002F
:102D30000200010070B516460D4604461EE020460E
:102D4000FFF78DFF08B1012070BD681C16D0FEF79B
:102D5000EDFC801BA84200D885B920684069C043BB
:102D600040070BD5002044F8300F20216173A07379
:102D7000216941F0200121612073E4E72068406966
:102D8000C0434007DBD4002070BD00002DE9F047B0
:102D9000984617460D460446C1F30746DDF82090D5
:102DA0002AE000BFB8F1FF3F26D0FEF7BFFCA0EB42
:102DB0000901414502D8B8F1000F1DD12068012E4C
:102DC00016D0806925EA00000004000C12D0002013
:102DD000B84211D1002044F8300F20216173A07354
:102DE000216941F02001216120730120BDE8F087B5
:102DF0004069E7E70120EBE72068012E0AD08069EF
:102E000025EA00000004000C06D00020B842C9D01A
:102E10000020EBE74069F3E70120F7E72DE9F047F1
:102E2000984616460D4604464FF000094FF0200A1A
:102E3000C1F3074723E020684069C043400515D42B
:102E40002068016841F40071016021686FF48060BE
:102E50004861C4F8309084F83DA084F83E90216C1D
:102E600041F00401216484F83C9021E0701C06D0FC
:102E7000FEF75CFCA0EB0800B04203D816B1012FAE
:102E80001FD021E02068012F15D0806925EA0000BD
:102E90000004000C18D000BF44F8309F84F80DA047
:102EA00084F80E90216941F02001216184F80C9092
:102EB0000120BDE8F087406925EA00000004000C0D
:102EC000EAD12068406901E02068806925EA0000B5
:102ED0000004000CAFD1ECE770B516460D46044671
:102EE0001EE02046FFF7BBFE08B1012070BD681C44
:102EF00016D0FEF71BFC801BA84200D885B92068BD
:102F00004069C04300060BD5002044F8300F202153
:102F10006173A073216941F0200121612073E4E70E
:102F200020684069C0430006DBD4002070BD00006B
:102F3000FEB500251B4800950195194902950160D1
:102F400089158160012404730575032606614FF419
:102F500060214560C161FDF7E7FF08B1FDF71DFE87
:102F6000022705200094CDE9017069460D48FDF760
:102F7000EBFE08B1FDF711FECDE900766946094880
:102F8000FDF7E2FE08B1FDF708FECDE90054694601
:102F90000448FDF7D9FE002801D0FDF7FEFDFEBD77
:102FA00000240140700A0020054808B5416941F03D
:102FB00001014161406900F00100009008BD00007E
:102FC000001002402DE9F04F85B0002660480096C1
:102FD000019602960396816941F010018161816931
:102FE00001F010010491816941F020018161816942
:102FF00001F020010491816941F00401816181693E
:1030000001F004010491816941F008018161806946
:10301000DFF840A100F0080004900122CF215046C3
:10302000FEF77FFBDFF830B10122B8215846FEF7EA
:1030300078FB41F21808012241464848FEF771FB2F
:103040004FF40069002249465846FEF76AFB012208
:1030500004214348FEF765FB4FF4E04000904148EF
:103060000124CDE9010469465046FEF759FACF2004
:10307000CDE90004032569465046CDE90245FEF737
:103080004FFAB820CDE9000469465846CDE902451B
:10309000FEF746FA4FF44C7002278DE8C1006946EE
:1030A0005046FEF73DFA40F603408DE8C100694600
:1030B0002A48FEF735FACDE9008469462748CDE96C
:1030C0000245FEF72DFA20028DE8C10069465846F8
:1030D000FEF726FACDF800900395CDE90147694641
:1030E0005846FEF71DFA204EE003CDE9000669467A
:1030F00002945846FEF714FA0420CDE9000469460C
:103100001748CDE90245FEF70BFA2020CDE900066D
:10311000694602941148FEF703FA2802CDE9000639
:10312000694602940D48FEF7FBF90022042117209E
:10313000FEF7A8FD1720FEF797FD002204212820A6
:10314000FEF7A0FD2820FEF78FFD05B0BDE8F08F4B
:10315000001002400010014000080140000C014036
:103160000014014000002110000031100D4810B57E
:103170000B4901600C49416000214FF4804281609D
:10318000C0E9031241618161C1610162FEF7D4FAB5
:10319000002803D0BDE81040FDF7FFBC10BD0000C3
:1031A00000540040E40A0020A0860100104810B539
:1031B0000E4901604FF48271416000218160C1605D
:1031C0004FF400720161C0E905121822C0E907211D
:1031D000416281620A21C162FFF768F8002803D0CA
:1031E000BDE81040FDF7D9BC10BD0000003800401C
:1031F000380B002010B58EB0002407940894099471
:103200000A940B941C2168460C94FCF7D8FF1F48C5
:103210001D4901602321C0E901146321C0E90314A1
:1032200080218161FFF728F908B1FDF7B6FC4FF462
:103230008050079007A91548FFF760F908B1FDF71E
:10324000ACFC1248FFF754FA08B1FDF7A6FC0B944A
:103250000BA90E480C94FFF7D1F808B1FDF79DFCBF
:10326000602000903220CDE9010400226946074821
:103270000494FFF7D7F908B1FDF78FFC0348FFF777
:10328000ABF90EB010BD000000040040900B002010
:103290000C4810B50A4901604FF4165141600021F5
:1032A00081600C22C160C0E904128161C161FFF735
:1032B000DFFB002803D0BDE81040FDF76EBC10BD59
:1032C00000380140D80B00200C4810B50A490160B5
:1032D0004FF4E1314160002181600C22C160C0E9FE
:1032E00004128161C161FFF7C3FB002803D0BDE870
:1032F0001040FDF752BC10BD00480040200C0020DB
:10330000FEE7FEE72DE9F0411A498046884202DBDC
:103310001948BDE8F081194D012400BF05EBC40038
:1033200041684046FDF756F81ED805EBC40055F835
:10333000344070E902763146C068FCF7BCFF0546B0
:1033400039462046FCF7B7FF044631464046FCF7B5
:10335000B2FF2146FCF7B5FF2946FCF7E4FF3946EA
:10336000BDE8F041FCF755BF641CA62CD6D3044839
:10337000CFE70000D7634543000020C2007A000871
:103380000000FA422DE9F041802837D2082935D2D1
:10339000002A33D0002B31D08418802C02D9C0F100
:1033A0008002D2B2CC18082C02D9C1F10803DBB2DA
:1033B000134F144E00247D7804EB840CB4449CF825
:1033C00004C0BCF1000F0ED0641CE4B2082CF3D38F
:1033D000082D13D300F024F8BDE8F0410823802223
:1033E00000210846CEE704EB84043055A019417053
:1033F00082700121C37001716D1C7D70BDE8F08188
:103400001A000020B805002010B54FF48061034871
:10341000FCF7D5FEBDE8104000F034B9B80000203C
:1034200010B528210348FCF7CAFE03490020487064
:1034300010BD0000B80500201A000020F0B4284C90
:1034400004EBC11545E0062B02D0082B1DD03FE050
:10345000203C5E2C17D8802815D2082913D2E6B25A
:10346000204F06EB4606002407EB460608E000BFA7
:1034700016F804C0641CE4B205F807C0062C02D29A
:103480000719802FF4D3801D1FE0203C5E2C1BD831
:10349000802819D2072917D2E6B2134F002407EB70
:1034A00006170EE017F804C005F806C007EB040C79
:1034B0002E44641C9CF808C0E4B286F880C0082C36
:1034C00002D20619802EEDD30830C0B2802803D274
:1034D000521C1478002CB6D1F0BC00F0D3B8000018
:1034E000B8000020307F00086A8100080623FFF73B
:1034F000A5BF00002DE9F003344E8946054600249F
:1035000006EBC9164BE0062B02D0082B1FD043E078
:1035100020395E2919D8802817D2B9F1080F14D2A2
:10352000CFB2DFF8ACC007EB470700210CEB470830
:1035300008E000BF18F801C0491CC9B206F807C06E
:10354000062902D24718802FF4D3801D21E02039AC
:103550005E291DD880281BD2B9F1070F18D2CFB22F
:10356000DFF870C000210CEB071C0EE01CF8018096
:1035700006F807800CEB01083744491C98F80880CE
:10358000C9B287F88080082902D24718802FEDD36E
:103590000830C0B2802806D2641CE4B2521C1178F4
:1035A00009B1322CAFD3401BC2B2082B08D0012383
:1035B000002A07D049462846BDE8F003FFF7E2BEDF
:1035C0000223F5E7BDE8F00370470000B8000020D3
:1035D000307F00086A81000810B56420FDF73EFFC7
:1035E000AE2000F0E9FAD52000F0E6FA802000F0E5
:1035F000E3FAA82000F0E0FA3F2000F0DDFAD32043
:1036000000F0DAFA002000F0D7FA402000F0D4FAF7
:103610008D2000F0D1FA142000F0CEFA202000F026
:10362000CBFA002000F0C8FAA12000F0C5FAC820AB
:1036300000F0C2FADA2000F0BFFA122000F0BCFA63
:10364000812000F0B9FACF2000F0B6FAD92000F0BE
:10365000B3FAF12000F0B0FADB2000F0ADFA402020
:1036600000F0AAFAA42000F0A7FAA62000F0A4FA1D
:103670006420FDF7F3FEAF2000F09EFABDE8104095
:10368000FFF7C2BEFEB5002464250F4F802600BFA1
:1036900004F1B000C0B200F08FFA002000F08CFA04
:1036A000102000F089FA07EBC410CDE900060123D1
:1036B0004022782102950548FEF7B8F9641CE4B26F
:1036C000082CE5D3FEBD0000B8000020E40A00206D
:1036D0002DE9FF5FDFF8C09099F80100002859D06C
:1036E0000026DFF8B8A0B34606EB860101EB0A041A
:1036F0002079E0B3002736E06078384400F0FF0816
:10370000B8F1080F32D208F1B000C0B200F054FA9C
:10371000207800F00F0000F04FFA2078102101EB24
:10372000101000F049FA1E49002501EBC81815E0F9
:1037300020782844C0B2802813D218F800008DF8F1
:103740000C0001210A2203A88DE807000B46402245
:1037500078211448FEF76AF96D1CEDB2A078A842F2
:10376000E6D87F1CFFB2E078B842C5D800E001E09F
:1037700084F804B0761CF6B2082EB5D389F801B0EF
:1037800004B00749BDE8F05F4FF4806201F5A56021
:10379000FCF7FCBCBDE8FF9F1A000020B805002024
:1037A000B8000020E40A002010B54FF480710348EF
:1037B000FCF705FD02490020087010BDB804002088
:1037C0001A0000202DE9F84FFFF71EFE4FF0000A07
:1037D000DFF8A4E04FF0120B524600210EEB021767
:1037E0000BEB020617F8019000200AEBC1052B181D
:1037F000DBB2F4B2802B2FD2402C2DD24FF0800CB4
:103800002CFA00FC1CEA090FDFF870C04FEAD4085C
:1038100011D00CEBC818CDF8008018F803C004F0E4
:103820000708012404FA08F4DDF800804CEA040CCF
:1038300008F803C010E00CEBC81CCDF800C01CF861
:10384000038004F0070C012404FA0CF4DDF800C036
:1038500028EA04080CF80380401CC0B20828C6D32C
:10386000491CC9B21029BDD3521CD2B21B2AB4D3F1
:10387000BDE8F84FFFF706BF5A850008B8000020E2
:103880002DE9F05F1F46DDE90AAB91460D46804603
:10389000FFF7C6FD0022494910468854521CD2B297
:1038A000802AFAD30224002201EBC416B054521C21
:1038B000D2B2802AFAD3641CE4B2042CF3D90622D3
:1038C000002301EBC214E0545B1CDBB2802BFAD363
:1038D000521CD2B2072AF3D90021012380220846C4
:1038E000FFF750FD0323802202210020FFF74AFD4D
:1038F0000223802206210020FFF744FDB8F10000DA
:1039000005D0FCF77FFC10B10623424601E00623F8
:103910002BA200210846FFF7EDFD8DB12846FCF7EC
:1039200071FC00EB40004006000EC0F1800000EB8F
:10393000D070C0F3470006232A460221FFF7DAFDC4
:10394000B9F1000010D0FCF75DFC00EB4000400630
:10395000000EC0F1800000EBD070C0F347000623DA
:103960004A460321FFF7C6FD8FB13846FCF74AFCF3
:1039700000EB40004006000EC0F1800000EBD0706C
:10398000C0F3470006233A460421FFF7B3FDBAF11E
:10399000000005D00623024619460020FFF7AAFDC5
:1039A000BBF1000005D00246062307210020FFF7E7
:1039B000A1FDBDE8F05FFFF78BBE0000B80000205E
:1039C00053797374656D204E6F726D616C000000E9
:1039D00030B404231C490025102201EBC314A55464
:1039E000521CD2B26F2AFAD95B1CDBB2042BF3D97A
:1039F00010228B18521C93F80042D2B244F081047A
:103A000083F800426F2AF4D95FF0040201EBC2137D
:103A1000FF24521C1C74D2B283F86F40042AF5D9DB
:103A20005E2250436422B0FBF2F0C2B21120FF23A9
:103A3000113204E00C18401C84F80032C0B29042ED
:103A4000F8D330BCFFF71EBEB80000202DE9F04FC0
:103A50000D4602223E4C85B083460021002004EB37
:103A6000C2131954401CC0B28028FAD3521CD2B2DF
:103A7000042AF3D9142237496846FCF787FB681EED
:103A8000032837D85DF825008146FCF7BBFBC3B29D
:103A900003EB43004006000EC0F1800000EBD07045
:103AA000C0F347064FF0020A00211BE019F801009D
:103AB00020385E2814D8C2B2274F02EB420207EB2F
:103AC0004208002004EBCA172A18D2B2802A03D277
:103AD00018F800C007F802C0401CC0B20628F3D393
:103AE000491CC9B2994205D201EB410006EB4005E1
:103AF000802DDBD310202118401C91F80022C0B289
:103B000042F0810281F800226F28F4D95FF00400AE
:103B100004EBC011FF22401C0A74C0B281F86F2070
:103B20000428F5D95E210BFB01F06421B0FBF1F014
:103B3000C1B21120113104E02318401C83F8002287
:103B4000C0B28842F8D3FFF79DFD05B0BDE8F08F05
:103B5000B80000200C870008307F00082DE9F041F4
:103B600013A086B000680024642603ADAE274FF092
:103B700001080390295D642303220E48FDF7A0FE8F
:103B800060B904A9CDE900188DF810700296295D7E
:103B9000012300220748FDF749FF30B1641C042CC3
:103BA000E8DB002006B0BDE8F081285DFAE7000000
:103BB000787A787AE40A002001B584B001210A22DB
:103BC00004A88DE807000B46002278210248FDF783
:103BD0002DFF05B000BD0000E40A00207047000082
:103BE0002DE9F04F89B006460024FDF72FF801902B
:103BF000FDF70CF88246FDF703F88146FDF71EF845
:103C00008046FCF7EDFF0090FCF7E4FF8346FDF7EC
:103C10000DF80746FCF7D0FF0546FCF7C7FF034643
:103C200004A8DDF804C080E80017009903918DE82E
:103C3000A008534D06EB460005EB8000314610F816
:103C40000B2C5048FCF75AFF012E04D0022E31D025
:103C5000032E78D15DE06878012801D0B0B18AE008
:103C6000FCF7A4FF012803D047A0FCF747FF01247D
:103C7000FCF7A2FF012803D04BA0FCF73FFF012473
:103C8000FCF7D4FF012876D04FA071E0FCF78EFF3F
:103C900018B155A0FCF732FF0124FCF78DFF18B1D5
:103CA0005AA0FCF72BFF0124FCF7C0FF002862D0CC
:103CB0005FA05DE0687B012801D0B0B15BE0FCF75C
:103CC00089FF012803D063A0FCF718FF0124FCF74B
:103CD00087FF012803D067A0FCF710FF0124FCF741
:103CE000ADFF012847D06BA042E0FCF773FF18B18D
:103CF00070A0FCF703FF0124FCF772FF18B176A057
:103D0000FCF7FCFE0124FCF799FF002833D07BA0D0
:103D10002EE0687E012801D0C0B12CE0FCF770FFD6
:103D2000012803D07EA0FCF7E9FE0124FCF76EFF1A
:103D3000012803D082A0FCF7E1FE0124FCF786FFF6
:103D4000012818D000E015E085A011E0FCF758FF2D
:103D500018B18BA0FCF7D2FE0124FCF757FF18B175
:103D600090A0FCF7CBFE0124FCF770FF18B196A0E1
:103D7000FCF7C4FE012409B02046BDE8F08F000026
:103D80007C000020608700085BB7B4C0A1D2ECB310
:103D9000A35D204B315F315F535441CEB4B5BDB804
:103DA000DFB5E7C6BD0D0A005BB7B4C0A1D2ECB366
:103DB000A35D204B315F325F535441CEB4B5BDB8E3
:103DC000DFB5E7C6BD0D0A005BB7B4C0A1D2ECB346
:103DD000A35D205357315F535441CEB4B5BDB8DF16
:103DE000B5E7C6BD0D0A00005BB7B4C0A1D2ECB305
:103DF000A35D204B315F315F535441CEB4BBD8B586
:103E0000BDB5CDB5E7C6BD0D0A0000005BB7B4C0B7
:103E1000A1D2ECB3A35D204B315F325F535441CE4E
:103E2000B4BBD8B5BDB5CDB5E7C6BD0D0A00000021
:103E30005BB7B4C0A1D2ECB3A35D205357315F533D
:103E40005441CEB4BBD8B5BDB5CDB5E7C6BD0D0A9E
:103E5000000000005BB7B4C0A1D2ECB3A35D204B5F
:103E6000325F315F535441CEB4B5BDB8DFB5E7C65C
:103E7000BD0D0A005BB7B4C0A1D2ECB3A35D204B6B
:103E8000325F325F535441CEB4B5BDB8DFB5E7C63B
:103E9000BD0D0A005BB7B4C0A1D2ECB3A35D205343
:103EA00057325F535441CEB4B5BDB8DFB5E7C6BD98
:103EB0000D0A00005BB7B4C0A1D2ECB3A35D204BE8
:103EC000325F315F535441CEB4BBD8B5BDB5CDB52B
:103ED000E7C6BD0D0A0000005BB7B4C0A1D2ECB3C9
:103EE000A35D204B325F325F535441CEB4BBD8B593
:103EF000BDB5CDB5E7C6BD0D0A0000005BB7B4C0C7
:103F0000A1D2ECB3A35D205357325F535441CEB4DA
:103F1000BBD8B5BDB5CDB5E7C6BD0D0A00000000E4
:103F20005BB7B4C0A1D2ECB3A35D204B335F315F6C
:103F3000535441CEB4B5BDB8DFB5E7C6BD0D0A00D8
:103F40005BB7B4C0A1D2ECB3A35D204B335F325F4B
:103F5000535441CEB4B5BDB8DFB5E7C6BD0D0A00B8
:103F60005BB7B4C0A1D2ECB3A35D205357335F530A
:103F70005441CEB4B5BDB8DFB5E7C6BD0D0A0000EB
:103F80005BB7B4C0A1D2ECB3A35D204B335F315F0C
:103F9000535441CEB4BBD8B5BDB5CDB5E7C6BD0D04
:103FA0000A0000005BB7B4C0A1D2ECB3A35D204B04
:103FB000335F325F535441CEB4BBD8B5BDB5CDB538
:103FC000E7C6BD0D0A0000005BB7B4C0A1D2ECB3D8
:103FD000A35D205357335F535441CEB4BBD8B5BD16
:103FE000B5CDB5E7C6BD0D0A0000000010B5002430
:103FF000012804D002281AD0032840D127E0FCF77A
:10400000F7FDE0B3FCF70AFEC8B3FCF7E3FDB0BB75
:10401000FCF7E6FD98BBFCF711FE16E0FCF7F0FD9F
:1040200068BBFCF7F3FD50BBFCF710FE26E0FCF785
:10403000C9FD20B3FCF7F2FD08B3FCF7B7FDF0B9FA
:10404000FCF7BAFDD8B9FCF7F1FDC0B9E6E7FCF71B
:10405000B9FDA0B1FCF7CCFD88B1FCF7A7FD70B9A4
:10406000FCF7AAFD58B9FCF7E1FD40B9FCF7B2FD39
:1040700028B9FCF7B5FD10B9FCF7E0FD00B101244B
:10408000204610BD70B50446401E032801D304200D
:1040900070BDC5B2214631A0FCF730FD012C04D023
:1040A000022C09D0032C14D10DE00020FCF7EAFD0E
:1040B0000020FCF7F7FD0CE00020FCF703FE0020D9
:1040C000FCF710FE05E00020FCF71CFE0020FCF7CA
:1040D00029FEFDF72BFB2E4905EB450201EB82057E
:1040E0004FF4FA7668603046FDF7B8F9012C04D039
:1040F000022C09D0032C14D10DE00120FCF7C2FDE5
:104100000120FCF7CFFD0CE00120FCF7DBFD0120D6
:10411000FCF7E8FD05E00120FCF7F4FD0120FCF7C9
:1041200001FE21461BA0FCF7E9FC3046FDF796F99D
:1041300000266E702046FFF753FD40B10220287222
:10414000687021461BA0FCF7D9FC022070BD2E72BE
:1041500021461DA0FCF7D2FC002070BDCDA8B5C043
:104160002564B9D8B1D5D6D0202D20CAE4B3F63510
:1041700030306D73B5CDB5E7C6BDC2F6B3E5A3A8C3
:10418000C8FDBCABB9DCB5BCCDA8A3A90D0A000025
:104190007C000020CDA8B5C02564C2F6B3E5CAE412
:1041A000B3F6CDEAB3C9A3ACB5C8B4FDB7B4C0A1EA
:1041B0000D0A0000CDA8B5C02564B7B4C0A1B4ED08
:1041C000CEF30D0A00000000CDA8B5C02564B9D813
:1041D000B1D5B3C9B9A60D0A00000000411E0329DC
:1041E00001D302207047044900EB400001EB80003E
:1041F00010F80B0C704700007C0000207047000096
:104200002DE9F041244F0020224E054607F1030816
:1042100000EB4001441C06F8214006EB8101012C13
:104220004D704D600D723D5408F8005004D0022CC2
:104230000FD0032C26D119E00120FCF72BFD012023
:10424000FCF720FD0120FCF735FD0120FCF72AFDDD
:1042500018E00120FCF73EFD0120FCF733FD0120B2
:10426000FCF748FD0120FCF73DFD0BE00120FCF7C9
:1042700051FD0120FCF746FD0120FCF75BFD01200C
:10428000FCF750FDE0B20328C2D3BDE8F04103487B
:10429000FCF734BC7C00002000000020C087000830
:1042A0002DE9F0410446401E032802D30420BDE856
:1042B000F0810E2000F0FCFC28B121463CA0FCF768
:1042C0001DFC0620F3E72046FFF790FE0100A4F155
:1042D0000100C0B2424A00EB40004FF0010602EB81
:1042E000800506D02E7221463EA0FCF707FC012077
:1042F000DDE7214640A0FCF701FC012C04D0022C94
:1043000009D0032C14D10DE00020FCF7C3FC0020E1
:10431000FCF7D0FC0CE00020FCF7DCFC0020FCF7F4
:10432000E9FC05E00020FCF7F5FC0020FCF702FDAD
:10433000FDF7FCF94FF4FA7768603846FDF78EF820
:10434000012C04D0022C09D0032C14D10DE0012043
:10435000FCF7A0FC0120FCF7ADFC0CE00120FCF711
:10436000B9FC0120FCF7C6FC05E00120FCF7D2FCFB
:104370000120FCF7DFFC21462CA0FCF7BFFB3846F0
:10438000FDF76CF86E702046FFF72AFC40B1022062
:104390002872687021462DA0FCF7B0FB022086E74A
:1043A0000020287221462EA0FCF7A8FB00207EE703
:1043B000CDA8B5C02564BFAAC6F4B1BBD7E8D6B9AD
:1043C000A3BABCECB2E2B5BD4FC0E0D2ECB3A3A33C
:1043D000A8B5E7D4B4D2ECB3A3A3A90D0A0000009A
:1043E0007C000020CDA8B5C02564BBA5CBF8B4EDFA
:1043F000CEF30D0A00000000CDA8B5C02564BFAA09
:10440000C6F4D6D0202D20CAE4B3F63530306D7313
:10441000B5CDB5E7C6BDC2F6B3E5A3A8C8FDBCAB34
:10442000B9DCB5BCCDA8A3A90D0A0000CDA8B5C0C4
:104430002564C2F6B3E5CAE4B3F6CDEAB3C9A3ACCA
:10444000B5C8B4FDB7B4C0A10D0A0000CDA8B5C071
:104450002564B7B4C0A1B4EDCEF30D0A000000008E
:10446000CDA8B5C02564BFAAC6F4B3C9B9A60D0AC4
:104470000000000070B500256D1C0024EEB220463F
:10448000012E04D0022E0ED0032E27D119E0FCF706
:1044900099FB0446FCF78AFBF8B1FCF78DFBE0B111
:1044A000FCF7C4FB0AE0FCF7A3FB0446FCF792FB15
:1044B00098B1FCF795FB80B1FCF7C0FB68B1012017
:1044C0000CE0FCF7ABFB0446FCF79AFB28B1FCF7C9
:1044D0009DFB10B1FCF7BAFBF0E7002054EA0001A5
:1044E00002D0012C0ED01BE0314611A0FCF706FBD8
:1044F0003046FFF7D5FE0200314601D018A00DE08E
:104500001EA012E060B1314621A0FCF7F7FA304658
:10451000FFF7B8FD0200314606D029A0FCF7EEFAFD
:10452000EDB2032DA8D370BD2CA0FCF7E7FAF7E796
:104530005BC2D6D1AF5D20CDA8B5C025643A204B73
:104540005F454E3D30C7D25354413D30A3ACD6B445
:10455000D0D0BFAAC6F4B6AFD7F70D0A000000004E
:10456000CDA8B5C02564BFAAC6F4CAA7B0DCA3AC69
:10457000B4EDCEF3C2EB3D25640D0A00CDA8B5C065
:104580002564BFAAC6F4B3C9B9A60D0A000000008D
:104590005BC2D6D1AF5D20CDA8B5C025643A204B13
:1045A0005F454E3D31C7D25354413D31A3ACD6B4E3
:1045B000D0D0B9D8B1D5B6AFD7F70D0A00000000FA
:1045C000CDA8B5C02564B9D8B1D5CAA7B0DCA3AC15
:1045D000B4EDCEF3C2EB3D25640D0A00CDA8B5C005
:1045E0002564B9D8B1D5B3C9B9A60D0A0000000039
:1045F000704770B5FCF7E6FA0546FCF7F9FA044691
:10460000FCF70CFB002105B9012104B9491C00B9D4
:10461000491C012901D8012070BD002070BD2DE981
:10462000FE4FFCF7CFFA8346FCF7E2FA8046FCF730
:10463000F5FA8246FCF7BAFA8146FCF7BDFA029019
:10464000FCF7C8FA0746FCF7CBFA0646FCF7D8FA9F
:104650000546FCF7DBFA0190FCF7E8FA0446FCF7A4
:10466000EDFA0090FCF7F2FABBF1000F02D1B8F1BD
:10467000010F03D0B8F1000F14D019E0BAF1010F07
:1046800016D1B9F1010F56D10299012953D13FBB7F
:1046900036BB2DBB019919BB012C4CD10099F9B93E
:1046A000B0B348E0BBF1010F02D1BAF1010F06D05F
:1046B000BAF1000F15D0BBF1010F2AD03BE0012F5A
:1046C00039D1012E37D1B9F1000F34D1029939B95E
:1046D00035B9019921B9009901292CD1002CDFD0DD
:1046E00029E0BBF1010F26D1B8F1010F23D1012D33
:1046F00021D1019901291ED1B9F1000F1BD10299D5
:10470000C9B9C7B9BEB9012815D1A4B90098C7E77E
:1047100014E0B8F1010F0ED1BAF1010F0BD1B9F1CC
:10472000000F08D1029931B92FB926B91DB90199E5
:1047300009B9002CB2D00020BDE8FE8F0120FBE7B4
:1047400010B586B00021684602F078F9012102A870
:1047500002F074F9022104A802F070F901230A2082
:1047600000F0A6FA0C4C18B10098A04200DB002320
:104770000B2000F09DFA18B10298A04200DB002344
:104780000C2000F095FA18B10498A04200DB002339
:1047900006B0184610BD000000006842074810B57A
:1047A00090F8650220B1FCF7FBF918B1002010BDAC
:1047B000012010BD02A0FCF7A1F9F9E7680C002068
:1047C0005BB0B2C8ABBCE0BFD85D20B5E7D4B4BB2A
:1047D000D6B8B4D5FDB3A3A3ACBDE2B3FD4FC0E0E2
:1047E000D2ECB3A30D0A00002DE9F047FCF71EFA46
:1047F0008046FCF723FA0546FCF728FA814601209B
:10480000FFF7ECFC07460220FFF7E8FC0646032012
:10481000FFF7E4FC0446012F1AD00020804503D0A6
:104820000021072000F03AFB012E13D00020854222
:1048300003D00021082000F031FB012C0CD0002017
:1048400081450BD0BDE8F0470021092000F026BBD0
:104850000120E3E70120EAE70120F1E7BDE8F08766
:1048600030B591B0FCF7AEF90546FCF7C1F9044646
:10487000FCF7D4F9002105B9012104B9491C00B99C
:10488000491C012907D905A1684602F009FB6946C0
:10489000002000F003FB11B030BD00004D756C74BA
:1048A0006920454E2041637469766500104810B553
:1048B00090F8650200281AD0FCF772F9012816D189
:1048C0000E2000F0F5F9002811D10AA0FCF716F926
:1048D00012A10E2000F0E2FA13A0FCF70FF900F08D
:1048E0001DFB00F087FBBDE8104000F09FBA10BD33
:1048F000680C00205BB0B2C8ABBCE0BFD85D20B58F
:10490000E7D4B4BCE0BFD8BCECB2E2B5BD4443329E
:104910003456D2ECB3A30D0A0000000044433234F5
:1049200056204C6F737300005BB0B2C8ABBCE0BFE5
:10493000D85D20B5E7D4B4D2ECB3A3CAB1B1A3B368
:10494000D6B5B1C7B0CDA8B5C0D7B4CCACA3ACBCBC
:10495000CCB5E7C6F7BDABD7D4C8BBB6CFBFAA0DA1
:104960000A0000002DE9F84FFCF720F98246FCF719
:1049700031F98146FCF744F98346FCF71DF980467E
:10498000FCF72EF90746FCF741F900900120FFF7EC
:1049900025FC06460220FFF721FC05460320FFF711
:1049A0001DFC0446012E36D00020824503D0002194
:1049B000012000F073FA012D2FD00020814503D093
:1049C0000021022000F06AFA012C28D00020834543
:1049D00003D00021032000F061FA012E21D0002035
:1049E000804503D00021042000F058FA012D1AD090
:1049F0000020874203D00021052000F04FFA012C4F
:104A000013D000200099814211D0BDE8F84F002159
:104A1000062000F043BA0120C7E70120CEE70120BD
:104A2000D5E70120DCE70120E3E70120EAE7BDE864
:104A3000F88F000010B58EB00021684601F0FEFF2F
:104A4000012102A801F0FAFF022104A801F0F6FFFB
:104A5000174C0098A0420BDBFBF7A8FC02460B4664
:104A600014A106A802F01CFA06A90A2000F016FA02
:104A70000298A0420BDBFBF799FC02460B4610A103
:104A800006A802F00DFA06A90B2000F007FA049818
:104A9000A0420BDBFBF78AFC02460B460BA106A8E3
:104AA00002F0FEF906A90C2000F0F8F90EB010BDD6
:104AB000000070424E54433120252E3166430000E1
:104AC0004E54433220252E31664300004E5443336A
:104AD00020252E316643000010B503460F2816D25C
:104AE00000F0E6F8002812D0094801229A40018817
:104AF0009143018003EB830200EBC20000210171AE
:104B0000BDE8104003F1410102A0FBF7F7BF10BD63
:104B1000680C00205BB0B2C8ABBCE0BFD85D20D24F
:104B2000ECB3A3B1EAD6BEC7E5B3FD3A202563C016
:104B3000E0D2ECB3A3BDE2B3FD0D0A000F2801D310
:104B400002A07047044951F820007047CEB4D6AA9D
:104B5000D2ECB3A300000000300000200148008820
:104B600070470000680C002030B58BB00C4605463D
:104B700028216846FBF723FB0F2C03D32822694624
:104B8000284607E0054904EB840001EBC001282218
:104B90002846091DFBF7FAFA0BB030BD680C00205F
:104BA00038B1012807D0022807D0032807D005A074
:104BB000704707A0704708A070470AA070470DA073
:104BC00070470000CEB4D6AAD7B4CCAC0000000029
:104BD000B9D8B1D50000000031C3EBBCE4B8F4C2D1
:104BE000F6B3E50035306D73BCE4B8F4C2F6B3E556
:104BF00000000000B3D6D0F8CAE4B3F6000000000D
:104C00002DE9F0414FF41A712048FBF7D8FA00243F
:104C10001E4D1F4F264600BF04EB840005EBC0006D
:104C2000067174B10D2C0CD00E2C0AD0611E08290F
:104C300001D8012106E0A4F10A01022901D80221CC
:104C400000E000214171866057F824101F220C30CB
:104C5000FBF7CCFA641CE4B20F2CDDD385F85C6260
:104C600085F85D6285F8646205F51775FCF75EFDF1
:104C70006860012068720020FBF7F0FF0020FBF75E
:104C8000F7FFBDE8F04103A0FBF738BF680C002038
:104C900030000020B0B2C8ABBCE0BFD8C4A3BFE9AD
:104CA000B3F5CABCBBAFCDEAB3C90D0A0000000022
:104CB0000F2807D20449012282400988114201D0FD
:104CC0000120704700207047680C0020174810B57D
:104CD00090F86502002827D0FBF762FF040001D09E
:104CE00013A100E014A116A0FBF708FF012C04D0CB
:104CF000BDE810401DA0FBF701BF0E20FFF7D8FF55
:104D0000002811D125A0FBF7F9FE30A10E2000F0FC
:104D1000C5F831A0FBF7F2FE00F000F900F06AF9E7
:104D2000BDE8104000F082B810BD0000680C002003
:104D3000B8DFB5E7C6BD0000B5CDB5E7C6BD00001C
:104D40005BB0B2C8ABBCE0BFD85D2044435F435406
:104D5000524CD6D0B6CFB4A5B7A2A3ACB5B1C7B0AC
:104D6000D7B4CCAC3A2025730D0A00005BB0B2C8B2
:104D7000ABBCE0BFD85D20CDE2B2BFB5E7D4B4BBD9
:104D8000D6B8B4D5FDB3A3A3ACD7BCB1B8BDE2B31C
:104D9000FD4FC0E0D2ECB3A30D0A00005BB0B2C877
:104DA000ABBCE0BFD85D20BCECB2E2B5BDCDE2B299
:104DB000BFB5E7D4B4D2ECB3A3A3A1444332345675
:104DC000B9A9B5E7D6D0B6CF0D0A000044433234B6
:104DD00056204C6F737300005BB0B2C8ABBCE0BF31
:104DE000D85D20B5E7D4B4D2ECB3A3CAB1B1A3B3B4
:104DF000D6B5B1C7B0CDA8B5C0D7B4CCACA3ACBC08
:104E0000CCB5E7C6F7BDABD7D4C8BBB6CFBFAA0DEC
:104E10000A00000010B500F0BDF800F07FF800F0C7
:104E2000E9F8BDE8104000F001B8000070B5FCF7EB
:104E30007DFC194C0546D4F8600294F85D12281ADE
:104E400001290CD002291DD119281BD394F8640222
:104E500000B3002084F86402FBF70AFF10E094F826
:104E6000641201290FD000290CD140F2CF318842C1
:104E700008D30120FBF7FCFE5FF0010084F8640218
:104E8000C4F8605270BD1928FCD30020FBF7F0FE77
:104E90000020F3E70120DDE7680C002070B50E4626
:104EA00005460F2821D2FFF703FF00281DD10F4828
:104EB000012101FA05F302881A43028005EB8502FD
:104EC00000EBC2042171FCF731FCA0600C3426B168
:104ED00020461F223146FBF789F9224605F14101A0
:104EE000BDE8704002A0FBF709BE70BD680C002051
:104EF0005BB0B2C8ABBCE0BFD85D20D2ECB3A3B10D
:104F0000EAD6BEC9E8D6C33A202563C0E0D2ECB3E6
:104F1000A3202D2025730D0A000000000C4810B5B9
:104F2000018809B1012400E0002490F85C12A1423C
:104F30000DD080F85C422046FBF790FE0CB105A135
:104F400000E008A1BDE810400AA0FBF7D7BD10BDE6
:104F5000680C0020B5CDB5E7C6BDA3A8B1A8BEAF0B
:104F6000A3A90000B8DFB5E7C6BDA3A8D5FDB3A3CC
:104F7000A3A900005BB0B2C8ABBCE0BFD85D2041C4
:104F80004C41524DD2FDBDC5CAE4B3F63A2025735B
:104F90000D0A000010B5FFF763FCFFF7E3FCFFF715
:104FA00023FCFFF747FDFFF781FC00242046FFF7B5
:104FB0007FFEC8B154B1601E08280AD90D2C08D054
:104FC0000938022808D8FFF7BBFB09E0FFF711FBFF
:104FD00006E0FFF724FB03E00E2C05D1FFF7DEFB14
:104FE00010B12046FFF778FD641CE4B20F2CDDD32E
:104FF00010BD000070B500240A20FFF759FE38B933
:105000000B20FFF755FE18B90C20FFF751FE08B131
:10501000032432E00120FFF74BFEF8B90220FFF72E
:1050200047FED8B90320FFF743FEB8B90420FFF7C5
:105030003FFE98B90520FFF73BFE78B90620FFF741
:1050400037FE58B90720FFF733FE38B90820FFF7BD
:105050002FFE18B90920FFF72BFE08B102240CE03F
:105060000020FFF725FE38B90D20FFF721FE18B903
:105070000E20FFF71DFE00B10124134D95F85D02CF
:10508000A04218D085F85D42FCF750FBC5F86002DD
:10509000002685F864622046FFF782FD01460BA0DA
:1050A000FBF72CFD032C07D0002C04D10020FBF7CC
:1050B000DFFD85F8646270BD0120FBF7D9FD01209A
:1050C00085F8640270BD0000680C00205BB0B2C8B7
:1050D000ABBCE0BFD85D20B7E4C3F9C6F7D7B4CC0A
:1050E000ACC7D0BBBB3A2025730D0A00FCF764BDEA
:1050F00030B595B028216846FBF761F814210AA85D
:10510000FBF75DF818210FA8FBF759F801210804F7
:10511000CDE900100025029502240491CDE9074055
:105120004FF4E01009906846FCF730FF08B172B602
:10513000FEE70AA90F2081E831004FF48060CDE935
:105140000D0502210AA8FCF745FE08B172B6FEE77C
:105150004FF4004011900F940FA8FCF7C5FD0028F4
:1051600001D072B6FEE715B030BD000010B5074C97
:1051700006202070FCF7DAFA606005A0FBF7BEFCA1
:10518000FEF712FBBDE81040FEF74AB9E009002027
:105190003D3D3D20CFB5CDB3BDF8C8EBB1A8BEAF06
:1051A000D7B4CCAC203D3D3D0D0A000070B50D4D8F
:1051B000044605202870FCF7B9FA686034B17F22F4
:1051C000214605F10D00FBF711F800E006A4214689
:1051D00008A0FBF793FCFEF7E7FABDE87040FEF786
:1051E0001FB90000E0090020CEB4D6AAB4EDCEF37A
:1051F000000000003D3D3D20CFB5CDB3BDF8C8EB6C
:10520000B4EDCEF3D7B4CCAC3A202573203D3D3D70
:105210000D0A000010B5084C04202070FCF786FA37
:10522000606006A0FBF76AFCFEF7EEF8FEF7BCFA3A
:10523000BDE81040FEF7F4B8E00900203D3D3D20F8
:10524000CFB5CDB3BDF8C8EBD5FDB3A3D4CBD0D08B
:10525000D7B4CCAC203D3D3D0D0A000070B54AA04E
:10526000FBF74CFCFBF7A2FC38B1FBF7A5FC20B127
:10527000FBF7DCFC08B1012500E00025FBF7AAFCE8
:1052800038B1FBF7ADFC20B1FBF7D8FC08B1012425
:1052900000E00024FBF7B4FC40B1FBF7B7FC28B1F9
:1052A000FBF7D4FC10B1012643A301E0002643A381
:1052B0000CB141A200E041A20DB13FA100E03FA12D
:1052C0003FA0FBF71BFC3DB147A0FBF717FC0120FB
:1052D000FEF7D8FE0CB906E0F4B14CA0FBF70EFCCB
:1052E0000220FEF7CFFE2EB151A0FBF707FC0320F2
:1052F000FEF7C8FE57A0FBF701FC4FF47A70FCF7ED
:10530000ADF8FBF753FC58B1FBF756FC40B1FBF787
:105310008DFC28B1012404E0002EE5D154A02BE03F
:105320000024FBF757FC38B1FBF75AFC20B1FBF720
:1053300085FC08B1012500E00025FBF761FC40B1C8
:10534000FBF764FC28B1FBF781FC10B101261AA31E
:1053500001E0002619A30DB117A200E017A20CB1BD
:1053600015A100E015A14CA0FBF7C8FB2C4334436A
:1053700001D054A000E05EA0FBF7C0FBBDE8704088
:1053800065A0FBF7BBBB00003D3D3D20D6B4D0D0AF
:10539000CDA8B5C0B9D8B6CFC8B7C8CFA3A8D7D401
:1053A000BCECC7B0B0B2C8ABBCECB2E9A3A9203D1D
:1053B0003D3D0D0A000000004F4E00004F464600E4
:1053C000B5B1C7B0CDA8B5C0D7B4CCAC3A2043482E
:1053D000313D25732C204348323D25732C20434812
:1053E000333D25730D0A0000CDA8B5C031B4A6D356
:1053F000DABFAAC6F4D7B4CCACA3ACD6B4D0D0C76D
:10540000BFD6C6B9D8B6CF0D0A000000CDA8B5C02A
:1054100032B4A6D3DABFAAC6F4D7B4CCACA3ACD608
:10542000B4D0D0C7BFD6C6B9D8B6CF0D0A000000D9
:10543000CDA8B5C033B4A6D3DABFAAC6F4D7B4CCCE
:10544000ACA3ACD6B4D0D0C7BFD6C6B9D8B6CF0DF2
:105450000A000000B5C8B4FDBCCCB5E7C6F7B9D8A2
:10546000B6CFB6AFD7F7CDEAB3C92E2E2E0D0A00B0
:10547000CBF9D3D0CDA8B5C0D2D1B4A6D3DAB9D8A0
:10548000B6CFD7B4CCACA3ACCEDED0E8B9D8B6CFCB
:10549000B2D9D7F70D0A0000B9D8B6CFBAF3CDA864
:1054A000B5C0D7B4CCAC3A204348313D25732C204D
:1054B0004348323D25732C204348333D25730D0A64
:1054C00000000000BEAFB8E63A20B2BFB7D6CDA804
:1054D000B5C0B9D8B6CFCAA7B0DCA3ACBFC9C4DCCD
:1054E000B4E6D4DAD3B2BCFEB9CAD5CF0D0A0000F7
:1054F000CBF9D3D0CDA8B5C0D2D1C8B7C8CFB9D811
:10550000B6CFA3ACBFC9D2D4B0B2C8ABBDF8D0D06F
:10551000D7D4BCEC0D0A00003D3D3D20CDA8B5C060
:10552000B9D8B6CFC8B7C8CFCDEAB3C9203D3D3D45
:105530000D0A00002DE9F04134A0FBF7DFFA3E4CE4
:1055400001208021207304F10D000746FAF737FE91
:10555000002584F88D501921012001F0ADF800F0EC
:105560002BFA207220B935A13846FAF733FE25739D
:105570004FF4FA763046FBF771FF3221022001F03A
:105580009BF800F0CDFA607220B931A13846FAF7E5
:1055900021FE25733046FBF761FF4B21032001F00C
:1055A0008BF800F09BFDA07220B92DA13846FAF7C8
:1055B00011FE25733046FBF751FF6421042001F0F2
:1055C0007BF800F055FEE07220B929A13846FAF7C1
:1055D00001FE25733046FBF741FF207B08B129A16E
:1055E00000E02AA12BA0FBF789FA207B28B93946D5
:1055F0002CA0FBF783FA207B18B1BDE8F041FFF740
:1056000009BEBDE8F04100F057B800003D3D3D2027
:10561000BFAACABCD0C2B0E6CFB5CDB3D7D4BCEC1C
:10562000BCECB2E2A3A8CBC4B2BDC1F7B3CCA3A972
:10563000203D3D3D0D0A0000E0090020C6DACDFB0B
:10564000D7B4CCACCAB6B1F0D2ECB3A33B000000E7
:10565000BCCCB5E7C6F7BEC0B4EDD2ECB3A33B00FB
:10566000BDD3B4A5C6F7BCECB2E9D2ECB3A33B0002
:10567000CEC2B6C8B0B2C8ABBCECB2E2D2ECB3A3F7
:105680003B000000CDA8B9FD00000000CAA7B0DCB7
:1056900000000000D7D4BCECBDE1B9FB3A20257373
:1056A0000D0A0000D7D4BCECB4EDCEF3D0C5CFA228
:1056B0003A2025730D0A000010B590B00EA0FBF73C
:1056C0001DFA16490D200C46FFF7E8FB14A0FFF762
:1056D0006DFDFEF769F8FDF797FE224613A16846B7
:1056E00001F0DEFB6A4603210020FDF7FFFEFDF717
:1056F000C9FF10B010BD00003D3D3D20D7D4BCEC2B
:10570000D2ECB3A3A3ACB2FAC9FA4ED2ECB3A3B1B4
:10571000EAD6BE203D3D3D0D0A000000ED09002007
:10572000D7D4BCECCAA7B0DC000000004E3A257309
:105730000000000010B590210948FAF740FD084C20
:10574000002020706070FBF7F1FF606005A0FBF7A0
:10575000D5F9FFF755FABDE8104000F071BE000022
:10576000E0090020CFB5CDB3BFD8D6C6C4A3BFE9EA
:10577000B3F5CABCBBAFCDEAB3C90D0A0000000047
:1057800070B5FBF7D3FF204D04462868201A0A287D
:1057900002D32C60FEF76EFE2869201AB0F57A7FDE
:1057A00002D32C6101F030F96868201A642804D310
:1057B0006C6001F093F901F003F9A868201AC82879
:1057C00002D3AC6000F084FEE868201A64281AD383
:1057D000EC60FFF71FFBFFF7C1F901000B480078F1
:1057E00008D004280FD10AA0FBF788F9BDE8704063
:1057F000FFF7BCBC062806D113A0FBF77FF9BDE874
:105800007040FFF707BD70BD1C000020E0090020BC
:105810003D3D3D20BCECB2E2B5BDB1A8BEAFA3A8F2
:10582000B1EAD6BE3A307825303458A3A9A3ACC724
:10583000D0BBBBB5BD414C41524DD7B4CCAC203DE3
:105840003D3D5C725C6E00003D3D3D20CBF9D3D008
:10585000B1A8BEAFD2D1BDE2B3FDA3ACC7D0BBBB34
:10586000B5BD4E4F524D414CD7B4CCAC203D3D3D23
:105870005C725C6E0000000010B5FBF757FF244A15
:1058800051681378411A072B3AD2DFE803F0040875
:105890000F292D313500BDE8104000F0D1BDB1F524
:1058A000FA6F34D3BDE8104000F0EEBD40F6B833D7
:1058B00099420DD264204143B1FBF3F0C4B22046BB
:1058C000FEF786F8214613A0BDE81040FBF716B995
:1058D000032111705060BDE8104013A0FBF70EB912
:1058E000BDE81040FFF726BEBDE81040FFF748BFF7
:1058F000074912A00D31E7E716A0FBF7FFF8F3E721
:1059000019A0FBF7FBF8BDE8104000F03BB810BD54
:10591000E0090020D7D4BCECBDF8B6C83A20256415
:1059200025250D0A00000000BFAACABCD6B4D0D0FD
:10593000D7D4BCECBCECB2E20D0A0000CFB5CDB3BD
:10594000B4A6D3DAB4EDCEF3D7B4CCAC3A202573F9
:105950000D0A0000CFB5CDB3B4A6D3DAB1A8BEAF5F
:10596000D7B4CCAC0D0A0000CEB4D6AACFB5CDB317
:10597000D7B4CCACA3ACD6D8D6C3CFB5CDB30D0A73
:105980000000000010B508A0FBF7B8F89021094806
:10599000FAF715FC074C00202070FBF7C7FE60608B
:1059A000BDE8104000F04CBDCFB5CDB3B8B4CEBB10
:1059B0000D0A0000E009002070B51BA0FBF79EF85F
:1059C000FBF700F90646FBF713F90546FBF726F946
:1059D000044603462A4631461CA0FBF78FF8012EE9
:1059E00001D05EB115E0012D01D06DB101E0012CB7
:1059F00002D0012D0CD00CE020A010E0012D08D128
:105A0000012C06D124A00AE0012C02D12AA006E034
:105A100024B131A0FBF772F8002070BD38A0FBF76D
:105A20006DF8012070BD00003D3D3D20B5DAD2BBD0
:105A3000B2BDA3BACAB6B1F0B5B1C7B0C6DACDFB34
:105A4000D7B4CCAC203D3D3D0D0A00004B5F454E28
:105A5000D0C5BAC5D7B4CCAC3A204B315F454E3D2A
:105A600025642C204B325F454E3D25642C204B3362
:105A70005F454E3D25640D0A00000000CAB6B1F036
:105A8000BDE1B9FBA3BAC8ABB2BFB9D8B6CFD7B4E2
:105A9000CCAC0D0A00000000CAB6B1F0BDE1B9FB04
:105AA000A3BA4368616E6E656C5F31B4F2BFAAD76A
:105AB000B4CCAC0D0A000000CAB6B1F0BDE1B9FB30
:105AC000A3BA4368616E6E656C5F32B4F2BFAAD749
:105AD000B4CCAC0D0A000000CAB6B1F0BDE1B9FB10
