:020000040800F2
:100000001806002049010008C71F0008AD1B0008A2
:10001000C51F000817020008C524000800000000E2
:10002000000000000000000000000000CB1F0008DE
:100030001902000800000000C91F0008CD1F0008B9
:100040006301000863010008630100086301000800
:1000500063010008630100086301000863010008F0
:1000600063010008630100086301000863010008E0
:1000700063010008630100086301000863010008D0
:100080006301000863010008B5010008630100086E
:1000900063010008630100086301000839020008D9
:1000A00063010008630100086301000863010008A0
:1000B0006301000863010008630100086301000890
:1000C0006301000863010008630100086301000880
:1000D000630100086301000863010008B9240008F7
:1000E0001B020008630100086301000863010008A7
:1000F0006301000863010008630100086301000850
:10010000630100086301000863010008630100083F
:10011000630100086301000863010008630100082F
:10012000630100086301000863010008630100081F
:10013000DFF810D000F02CF8004800470525000833
:10014000AFF30080180600200648804706480047A5
:10015000FEE7FEE7FEE7FEE7FEE7FEE7FEE7FEE777
:10016000FEE7FEE75120000831010008D2B201E0AD
:1001700000F8012B491EFBD270470022F6E710B5AC
:1001800013460A4604461946FFF7F0FF204610BD05
:10019000064C074D06E0E06840F0010394E80700D4
:1001A00098471034AC42F6D3FFF7C6FF5C25000831
:1001B0007C250008014800F0D0B8000010000020A5
:1001C00070B5044600688168C943C90717D18168C2
:1001D00021F00101816000F019FC05460AE000BF32
:1001E00000F014FC401B022804D920688068C0433A
:1001F000C00706D020688068C043C007F0D0002048
:1002000070BDA06A40F01000A062E06A40F00100FA
:10021000E062012070BDFEE7704710B54FF400505A
:1002200000F0E6FA4FF4804000F0E2FABDE810403A
:100230004FF4004000F0DCBA10B5202000F0D8FAEE
:100240004FF4807000F0D4FABDE810404FF4007015
:1002500000F0CEBA72B6FEE770470000F8B5002491
:10026000009490F824202546012A12D0012280F81B
:1002700024204A681F23072A0DD20668776B521E76
:1002800002EB820293409F430B6893401F437763C6
:1002900019E00220F8BD06680D2A0AD2376BD21F7A
:1002A00002EB820293409F430B6893401F433763E6
:1002B00009E0F76A0D3A02EB820293409F430B6814
:1002C00093401F43F7620A68072306680A2A0AD385
:1002D000F7680A3A02EB420293409F438B689340CF
:1002E0001F43F76008E0376902EB420293409F43E7
:1002F0008B6893401F4337610A68102A01D0112A86
:1003000020D1124B02689A4217D193681B0219D46C
:10031000936843F4000393600968102912D10C49D3
:100320000C4A0968B1FBF2F101EB8101490000E0E0
:10033000491E00910029FBD104E0816A41F02001AF
:100340008162012480F824502046F8BD0024014039
:100350000C00002040420F00704770B50446006852
:1003600006684568A90625D5B10723D5A16AC9063F
:1003700003D4A16A41F40071A1628168C1F34241D2
:10038000072910D1217B71B9416821F0200141601A
:10039000A06A20F48070A062A06AC00403D4A06A9E
:1003A00040F00100A0622046FFF7D6FF21686FF001
:1003B0001200086028062ED570072CD5A06AC0064A
:1003C00003D4A06A40F40050A06220688168C1F3A1
:1003D0000231072909D04168490515D48168C1F364
:1003E0004241072910D1217B71B9416821F0800178
:1003F0004160A06A20F48050A062A06AC00503D4C6
:10040000A06A40F00100A0622046FFF725FF2168A6
:100410006FF00C00086068060CD5F0070AD0A06ADF
:1004200040F48030A062204600F096F821686FF01A
:100430000100086070BD00002DE9F04104004FF09C
:1004400000057FD0A06A002628B9E66284F82460FF
:10045000204600F083F82046FFF7B2FEA16AC906E5
:1004600000D420B1A06A40F01000A0626AE0A16A46
:1004700021F4885141F00201A162334923688B4283
:10048000E16904D1B1F5402F01D14FF40021277B60
:100490004FF4807C41EA470261680A43A1686145E4
:1004A00008D0012906D0002194F814E0BEF1010F14
:1004B00002D00AE06146F7E7C7B1A76A47F0200714
:1004C000A762E76A47F00107E7625F6827F46947B8
:1004D0000F435F60236899681C4F3940114399604E
:1004E000A16861450BD0012909D00CE0DFF860E07C
:1004F000A7690EEB47370F4347F40061E5E7218A10
:100500000D05A5F580152168CB6A23F470032B43F4
:10051000CB62216889680F4B1940914208D1E6628D
:10052000A16A21F0020141F00101A162BDE8F08160
:10053000A06A20F0020040F01000A062E06A40F0E3
:100540000100E0620120F1E7003C0140FDF7E1FF1E
:1005500000E0FFFFFE0E1FFF7047000070B586B081
:1005600000250646009501950295039500681D49F2
:10057000884235D11C49886940F4007088618869D7
:1005800000F400700490886940F004008861886974
:10059000694600F0040004900720009003200190B9
:1005A000124800F031F9134C1148C4E900058020CD
:1005B000C4E90250400020618000C4E905052046DE
:1005C000E56100F0D5F808B1FFF744FE346200227F
:1005D00005211220666200F0A7FB122000F096FBB6
:1005E00006B070BD00240140001002400008014028
:1005F000080002404000002010B590F821100022B1
:10060000022905D00421816380F82020012010BD3B
:1006100001680B6823F00E030B6001680B6823F080
:1006200001030B6090F84030C46B012101FA03F321
:10063000636080F8211080F82020104610BD000073
:100640002DE9F05F90F821100024022903D0042145
:100650008163012485E001680A6822F00E020A60C5
:1006600001680A6822F001020A603F4E3E4FB2154F
:10067000DFF8F4C0DFF8F090DFF8ECA0DFF8E8B0C6
:10068000DFF8E4E00168783F13011502ACF1640C77
:10069000A9F15009AAF13C0AABF1280BAEF1140EF6
:1006A0004FF48018B14227D9B9420ED0614512D01B
:1006B00049451DD0514518D0594518D0714501D133
:1006C000424615E0294EB14201D1012210E0274EE9
:1006D0001436B14201D110220AE0244E2836B1422C
:1006E00006D0224A3C32914201D11A4600E02A4605
:1006F0001E49091F0A602BE0B94213D0614517D08B
:10070000494522D051451DD059451DD0714501D1D3
:1007100042461AE0B14202D14FF0807215E0134E0A
:10072000B14201D1012210E0104E1436B14201D184
:1007300010220AE00D4E2836B14206D00B4A3C3258
:10074000914201D11A4600E02A46074980394A60A1
:10075000012180F82110002180F82010416B01B1A7
:1007600088472046BDE8F09F800002400804024010
:1007700030B560B11A4B026814219A4209D2194B64
:100780001344B3FBF1F18900016417490AE0012029
:1007900030BD134B5B421344B3FBF1F1890001649C
:1007A0000F490839C163022180F82110136843F60C
:1007B000F0718B43F0E901142143D0E902452C4349
:1007C0002143046921434469214384692143194336
:1007D000116000214163012242770177084630BD54
:1007E00008040240F8FFFDBF00000240704700000F
:1007F000044910B50A68024202D00860FFF7F6FF0C
:1008000010BD0000140401402DE9F84FDFF8C89135
:100810000024A9F1040B23460F2709F1040AABF1C8
:10082000040ED1E00125A54006EA0502AA4276D1D0
:10083000DFF8A8C14E68A6EB0C0866452BD00DDC8E
:10084000032E34D005DC36B3012E19D0022E2FD161
:100850001BE0112E16D0122E2AD119E0B8F5881FF0
:1008600019D006DCB8F5803F15D0B8F5801F1FD130
:1008700011E0B8F5001F0ED0B8F5041F18D10AE03A
:10088000CB6815E0CB681B1D12E0CB6808330FE086
:10089000CB680C330CE08B682BB1012B4FF00803B5
:1008A00003D0456104E0042302E0056100E0002379
:1008B000FF2A01D8064601E000F104064FEA84054C
:1008C00001D9A5F12005D6F8008007FA05FC28EA31
:1008D0000C0803FA05F548EA0508C6F800804D68DB
:1008E000ED0070D53E4DAE6946F00106AE61AD69D2
:1008F00024F0030605F0010500953A4D06EB050CC2
:10090000DCF80850A607360F07FA06F825EA0805AE
:10091000DFF8D480404503D14FF0000825E052E0D5
:10092000DFF8C880404502D14FF001081DE0DFF834
:10093000C080404502D14FF0020816E0DFF8B480D5
:10094000404502D14FF003080FE0DFF8AC8040458E
:1009500002D14FF0040808E0DFF8A080404502D142
:100960004FF0050801E04FF0060808FA06F848EADB
:100970000508CCF808804D68D9F80060ED024D46B6
:1009800001D5164300E096432E604D68DAF800600A
:10099000AD02554601D5164300E096432E604D68E2
:1009A000DBF80060AD035D4601D5164300E09643D9
:1009B0002E604D68DEF80060ED03754601D51643E4
:1009C00000E096432E60641C0A681646E2407FF4FD
:1009D00029AFBDE8F88F00000804014000001110A5
:1009E000001002400000014000080140000C0140DE
:1009F000001001400014014000180140001C01409B
:100A00000AB1016170470904FBE7000001488068F2
:100A1000704700000000002070B5040025D094F855
:100A20003D00002520B984F83C50204600F0B8F87D
:100A3000242084F83D002068016821F00101016054
:100A40002068016841F4004101602068016821F4D8
:100A50000041016000F0A6FA4D4A6168914201D858
:100A60004C4900E04C49884201D2012070BD4B49FD
:100A70002368B0FBF1F15E6826F03F060E435E602E
:100A80006368934206D94FF4967359434FF47A73CF
:100A9000B1FBF3F12368491C1E6A26F03F0631437F
:100AA00019626168914210D84900401EB0FBF1F212
:100AB000521CC2F30B02042A01D2042022E0B0FB34
:100AC000F1F0401CC0F30B001CE0A268F2B301EB94
:100AD000C10303EB0116431EB3FBF6F35B1C43F4A7
:100AE00080431B0549D092B301EBC10202EB011117
:100AF000401EB0FBF1F0401CC0F30B0040F48040FE
:100B000040F400402168CA694CF6FF739A431043D1
:100B1000C861D4E9071001432068026822F0C002CE
:100B200011430160D4E9030101432068826848F25F
:100B3000FF339A4311438160D4E9050108432168DA
:100B4000CA6822F0FF021043C86001E00EE016E020
:100B50002068016841F0010101602564202084F8CB
:100B60003D00256384F83E50002070BD01EB410636
:100B7000431EB3FBF6F35B1CB3E70120C2E701EBB6
:100B80004101401EB0FBF1F0401CC0F30B00B7E781
:100B9000A086010080841E0000093D0040420F0035
:100BA00010B586B000210091019102910391006877
:100BB0000F4988421AD10F4CA06940F00800A0618B
:100BC000A069694600F008000490C020009012203F
:100BD0000190032003900848FFF716FEE06940F4F7
:100BE0000010E061E06900F40010049006B010BD50
:100BF0000054004000100240000C014070B5040099
:100C000013D021684CF6CC400860216845F255505D
:100C10000860D4E9000141602168A0688860FFF79E
:100C2000F5FE054641F23C360DE0012070BD00BFE7
:100C3000FFF7ECFE401BB04205D92068C068800772
:100C400001D0032070BD2068C0688007F0D1216802
:100C50004AF6AA200860002070BD000002488168A2
:100C6000027811448160704700000020074810B5E9
:100C7000016841F010010160032000F075F80F20B9
:100C800000F006F800F024F8002010BD002002401B
:100C900070B50D4D04464FF47A712878B1FBF0F031
:100CA0000A490968B1FBF0F000F0E6FB48B9102CE6
:100CB00007D200222146501E00F036F800206C605A
:100CC00070BD012070BD0000000000200C0000205D
:100CD0000C4808B5816941F001018161816901F029
:100CE00001010091C16941F08051C161C06900F00A
:100CF000805000900448416821F0E06141F00071AB
:100D0000416008BD0010024000000140002809DBDE
:100D100000F01F02012191404009800000F1E02015
:100D2000C0F8001170470000F0B40E4B1B680C4671
:100D3000C3F30223C3F10705042D00D90425191DAF
:100D4000072901D2002300E0DB1E012606FA05F187
:100D5000491E214099409E40761E16403143F0BC0A
:100D600001F0B1BB0CED00E0064900F00702086895
:100D70004FF6FF03184040EA0220034A1043086080
:100D8000704700000CED00E00000FA052DE9F84383
:100D900005460078354CC00754D0E0690026C000F5
:100DA00008D4E06940F08050E061E069012600F07D
:100DB000805000902E480168C90512D40168804611
:100DC00041F480710160FFF721FE074605E000BF96
:100DD000FFF71CFEC01B642823D8D8F80000C0050C
:100DE000F6D5206A10F4407021D0A98801F4407132
:100DF00081421CD0206A1F49012220F440700A6001
:100E000000220A602062C00711D0FFF7FFFD0746ED
:100E100041F2883808E000BFFFF7F8FDC11B4145EB
:100E200002D90320BDE8F883206A8007F4D5206A40
:100E3000696820F44070084320621EB1E06920F028
:100E40008050E0612878800705D56068A96820F4A3
:100E50004040084360602878C00605D5606869692D
:100E600020F48000084360600020DBE700100240AF
:100E700000700040400442422DE9F0470F46050053
:100E800061D0434E306800F00700B84209D23068A4
:100E900020F0070038433060306800F00700B842A7
:100EA00051D128683B4C810712D5400703D56068B3
:100EB00040F4E06060602878000703D5606840F483
:100EC000605060606068A96820F0F00008436060CE
:100ED0002878C00728D06868012810D02168022827
:100EE00010D0890700292EDA616821F0030101433F
:100EF0006160FFF78BFD804641F288390DE0216883
:100F00008903EFE78901EDE7FFF780FDA0EB08011A
:100F1000494502D90320BDE8F0876068696800F0A0
:100F20000C00B0EB810FEFD1306800F00700B84241
:100F30000BD9306820F0070038433060306800F08B
:100F40000700B84201D00120E5E72878400705D521
:100F50006068E96820F4E060084360602878000772
:100F600006D56068296920F4605040EAC1006060DD
:100F700000F038F86168084AC1F30311515CC840B9
:100F80000649086006480068FFF782FE0020C2E7B5
:100F90000020024000100240442500080C00002000
:100FA000040000200448054900684968044AC1F368
:100FB0000221515CC84070470C0000200010024024
:100FC000542500080448054900684968044AC1F3EB
:100FD000C221515CC84070470C0000200010024044
:100FE000542500080E4A51680E4801F00C03042BEA
:100FF00011D0082B0FD10C48C1F38343C903C05C47
:101000000AD55168084AC1F34041921E515C054A15
:101010005043B0FBF1F0704704494843704700006B
:101020000010024000127A003425000800093D003B
:101030002DE9F84F040070D02078C04DC00749D08A
:101040006868C0F38100012807D06868C0F3810098
:10105000022809D16868C00306D52868800339D5FD
:1010600060680028E7D035E06068B0F5803F0BD0BD
:1010700010B1B0F5A02F11D0286820F4803028607E
:10108000286820F4802002E0286840F4803028603E
:10109000606890B1FFF7BAFC06460AE0286840F4A1
:1010A00080202860F0E700BFFFF7B0FC801B6428B9
:1010B00073D828688003F7D50CE0FFF7A7FC064635
:1010C00005E000BFFFF7A2FC801B6428F0D8286869
:1010D0008003F7D420789A4E80074FF001094FF033
:1010E000000839D5686810F00C0F07D06868C0F3A5
:1010F0008100022809D16868C00306D428688007E7
:1011000014D52069012808D110E02069B0B1C6F8D3
:101110000090FFF77BFC074605E00AE1FFF776FC4D
:10112000C01B0228C4D828688007F7D528686169E1
:1011300020F0F80040EAC10028600DE0C6F8008009
:10114000FFF764FC074604E0FFF760FCC01B0228C1
:1011500023D828688007F7D4207800072CD5794851
:10116000A169D9B1C0F80090FFF750FC074604E030
:10117000FFF74CFCC01B02280FD8686A8007F7D520
:1011800071484FF4FA510068B0FBF1F0009000BFD5
:101190000098411E0091FAD20EE080E0C0F8008075
:1011A000FFF734FC074604E0FFF730FCC01B0228C1
:1011B00075D8686A8007F7D42078400760D5E86959
:1011C0000027C00008D4E86940F08050E861E86971
:1011D000012700F0805000905C480168C90513D4D5
:1011E0000168834641F480710160FFF70FFC82467D
:1011F00006E000BFFFF70AFCA0EB0A0064284ED807
:10120000DBF80000C005F5D5E06801280AD008B178
:10121000052813D0286A20F001002862286A20F0EF
:10122000040002E0286A40F001002862E06841F210
:10123000883B98B1FFF7EAFB82460BE0286A40F052
:1012400004002862EEE700BFFFF7E0FBA0EB0A0115
:1012500059455AD8286A8007F6D50CE0FFF7D6FB27
:10126000824605E0FFF7D2FBA0EB0A0159454CD8B6
:10127000286A8007F6D41FB1E86920F08050E86141
:10128000E06988B36968C1F38101022944D002286A
:10129000C6F8608004D0FFF7B9FB044638E034E0BC
:1012A000FFF7B4FB074604E0FFF7B0FBC01B0228C2
:1012B0002BD828688001F7D4206AB0F5803F05D18B
:1012C0006868A16820F4003008436860D4E9080128
:1012D0000843696821F4741108436860C6F8609097
:1012E000FFF794FB044606E025E000BFFFF78EFB06
:1012F000001B022809D828688001F7D51BE000BF31
:10130000FFF784FB001B022802D90320BDE8F88FF9
:1013100028688001F4D40EE00128F7D06868226ABA
:1013200000F48031914204D1616A00F47010884267
:1013300001D00120EAE70020E8E7000000100240A9
:1013400000004242800442420C0000200070004035
:1013500070B5040009D0606A002540B1256165615F
:10136000A56294F8510040B10CE0012070BD6068A6
:10137000B0F5827FF4D0E561F2E784F85050204662
:1013800000F040F8022084F851002068016821F044
:1013900040010160A088218900F4827001F40441B9
:1013A0000843A18901F400610843217C01F0020196
:1013B0000843217D01F001010843218B01F40071F4
:1013C0000843217F01F03801084394F8201001F010
:1013D00080010843218D01F4005108432168086011
:1013E000A069042101EA1040216848602068C169B1
:1013F00021F40061C1616565012084F8510000207D
:1014000070BD000030B585B00024009401940294B2
:10141000039400681549884225D11548C16941F4F3
:101420008041C161C16901F480410491816941F049
:101430000801816180690F4D00F0080004904FF4AD
:101440002040009002200190032003906946284626
:10145000FFF7DAF94FF48040CDE9000469462846E9
:101460000294FFF7D1F905B030BD0000003800400C
:1014700000100240000C014010B5401EB0F1807F0A
:1014800001D3012010BD4FF0E02460610F216017EF
:1014900001F019F80020A06107202061002010BD94
:1014A00070B590F83C20012A2CD0012480F83C40F3
:1014B000022280F83D2003685A689D6822F0700679
:1014C0000A6832435A60104B02689A420ED00F4BA2
:1014D0009A420BD0B2F1804F08D00D4B9A4205D002
:1014E0000C4B9A4202D00C4B9A4204D1496825F029
:1014F00080031943916080F83D40002180F83C1042
:10150000084670BD022070BD002C0140003401402F
:101510000004004000080040000C004010B504002A
:1015200003D094F83D0010B107E0012010BD002069
:1015300084F83C00204600F01FF8022084F83D00AB
:10154000211D206800F086FD012084F8460084F803
:101550003E0084F83F0084F8400084F8410084F89D
:10156000420084F8430084F8440084F8450084F87D
:101570003D00002010BD000008B500680649884203
:1015800008D10648C16941F00201C161C06900F09B
:101590000200009008BD000000040040001002405E
:1015A00070B5044690F83C000025012817D00126AC
:1015B00084F83C60022084F83D002068826822F0B4
:1015C000770222F47F4282600868502838D00DDC10
:1015D00020284FD005DC90B3102811D14AE002201A
:1015E00070BD302846D040280AD13BE060282FD07B
:1015F00070280DD0B0F5805F03D0B0F5005F12D039
:10160000012584F83D60002084F83C00284670BD28
:10161000CB68D1E90121206800F06AFD206881686B
:1016200041F0770109E0CB68D1E90121206800F0A1
:101630005FFD2068816841F480418160E1E719E045
:10164000CA684968206800F027FE5021206806E03B
:10165000CA684968206800F030FE6021206800F008
:1016600051FDCEE7CA684968206800F015FE4021A8
:101670002068F4E7226801461046F0E700B585B01F
:101680000021009101910291039100680B49884269
:1016900011D10B48816941F004018161806969467B
:1016A00000F004000490402000900220019003907C
:1016B0000448FFF7A9F805B000BD00000004004091
:1016C000001002400008014070B5044690F83C004C
:1016D00000260D4601280FD0012084F83C006AB195
:1016E000042A1DD0082A2FD00C2A3FD00126002022
:1016F00084F83C00304670BD022070BD206800F0C8
:1017000009FD2068816941F00801816120688169D3
:1017100021F004018161206881692A69114311E087
:10172000206800F027FD2068816941F40061816133
:101730002068816921F480618161206881692A695A
:1017400041EA02218161D2E7206800F049FD20686A
:10175000C16941F00801C1612068C16921F004013B
:10176000C1612068C1692A69114311E0206800F055
:101770006BFD2068C16941F40061C1612068C169E5
:1017800021F48061C1612068C1692A6941EA0221AE
:10179000C161ACE710B5040003D094F83D0010B16E
:1017A00007E0012010BD002084F83C00204600F036
:1017B0001EF8022084F83D00211D206800F04AFC3C
:1017C000012084F8460084F83E0084F83F0084F845
:1017D000400084F8410084F8420084F8430084F813
:1017E000440084F8450084F83D00002010BD704797
:1017F00070477047F8B5016804460868CA684B69C5
:1018000010F00F0F4FF0000559D003F0010602F45D
:101810009077374365D0C10705D0D10503D5616CFA
:1018200041F001016164410705D5D90703D0616C1E
:1018300041F002016164810705D5D90703D0616CCD
:1018400041F004016164010707D502F02001314332
:1018500003D0616C41F008016164616C00293AD0E9
:10186000800604D5900602D5204600F067FD20686A
:101870004069616CC0F38010090700D460B3204652
:1018800000F035FD20684069400621D520681430FD
:1018900050E8001F21F0400140E80012002AF5D175
:1018A000E06BA8B16D494163E06BFEF7C9FE00280B
:1018B00011D0E06B416B01B0BDE8F04008478306F2
:1018C0000FD593060DD52046BDE8F84000F036BD93
:1018D0002046FFF78EFFF8BD2046FFF78AFF6564BC
:1018E000F8BD266B2023012E7CD1C6067AD5D606FC
:1018F00078D508684868009048694FF002064006AD
:1019000040D5E16B086840680004000CE8D0A28D67
:101910008242E5D9E085886920282DD020680C30E6
:1019200050E8001F21F4807140E80012002AF5D130
:101930002068143050E8001F21F0010140E8001237
:10194000002AF5D12068143050E8001F21F0400132
:1019500040E80012002AF5D184F84230256320685F
:101960000C3050E8001F21F0100140E80012002A5E
:10197000F5D1E06BFEF740FE6663A08DE18D401A65
:1019800081B22AE0A08DE18D401A81B2E08D00285D
:10199000A6D00029A4D022680C3252E8000F20F40F
:1019A000907042E80007002FF5D12068143050E80D
:1019B000002F22F0010240E80027002FF5D184F823
:1019C0004230256320680C3050E8002F22F01002CE
:1019D00040E80023002BF5D166632046FFF708FF9F
:1019E000F8BDFFE705062BD5150629D594F841006B
:1019F0002128F5D1A068B0F5805F01D12069B0B190
:101A0000206A411C2162216800784860E08C401EF9
:101A10000004000CE084E3D12068C16821F080015B
:101A2000C1602068C16841F04001C160D8E7206A08
:101A30000088C0F308004860206A801C2062E5E747
:101A40004006CDD55006CBD5CA68204622F04002CC
:101A5000CA6084F8413000F0A8F8C1E7DF2200082E
:101A600070B5040004D094F84100002510B106E0E0
:101A7000012070BD84F84050204600F023F8242057
:101A800084F841002068C16821F40051C1602046FB
:101A900000F0B6FC2068016921F4904101612068E2
:101AA000416921F02A0141612068C16841F4005177
:101AB000C1606564202084F8410084F842006563B9
:101AC000002070BD70B586B000240094019402948B
:101AD000039403682F482E4E022103220515B342BA
:101AE00021D1836943F480438361836903F4804394
:101AF0000493836943F0040383618069264E00F0F8
:101B0000040004900802CDE90001039269463046C2
:101B1000FEF77AFECDE90054694630460294FEF79E
:101B200073FE06B070BD1D4EB342FAD1C36943F4D3
:101B30008023C361C36903F480230493836943F062
:101B4000100383618069CDE9005100F01000CDE9F8
:101B50000320134D69462846FEF756FEE814CDE9EA
:101B60000004694628460294FEF74EFE0D4841687F
:101B700021F0300141F0E06141F0100141600022AC
:101B800011462720FFF7D0F82720FFF7BFF8C8E756
:101B900000380140001002400008014000480040A9
:101BA000001001400000014070477047FEE7000050
:101BB0003EB500241B480094019419490294016029
:101BC0008915816004730475032505614FF4602154
:101BD0004460C161FEF730FC08B1FEF73BFB0094A6
:101BE00001240520CDE9014069460E48FEF736FB89
:101BF00008B1FEF72FFB00940224694609480194BE
:101C0000FEF72CFB08B1FEF725FB69460548CDE938
:101C10000045FEF723FB002801D0FEF71BFB3EBD6D
:101C20000024014010000020054808B5416941F03A
:101C300001014161406900F00100009008BD000011
:101C4000001002402DE9F04F85B000256548009551
:101C5000019502950395816941F0100181618169C7
:101C600001F010010491816941F0200181618169D5
:101C700001F020010491816941F0040181618169D1
:101C800001F004010491816941F0080181618069DA
:101C9000DFF854A100F0080004900122CF21504643
:101CA000FEF7AEFEDFF844B10122B8215846FEF738
:101CB000A7FE41F21808012241464D48FEF7A0FE5A
:101CC0004FF40069002249465846FEF799FE01226A
:101CD00004214848FEF794FE4FF4C0400090464867
:101CE0000124CDE9010469465046FEF78DFDCF2061
:101CF000CDE900040326CDE9024669465046FEF7C9
:101D000083FDB820CDE90004CDE902466946584676
:101D1000FEF77AFD4FF44C7002278DE8A10069466A
:101D20005046FEF771FD40F603408DE8A10069467C
:101D30002F48FEF769FDCDE90084CDE902466946EA
:101D40002B48FEF761FD20028DE8A1006946584648
:101D5000FEF75AFDCDF800900396CDE9014769469C
:101D60005846FEF751FD254FE003CDE900076946CF
:101D700002955846FEF748FD2003CDE90005694667
:101D800050460295FEF740FD0420CDE90004CDE960
:101D9000024669461748FEF737FD20200090184894
:101DA000CDE9010469461248FEF72EFD3002CDE967
:101DB0000007694602950E48FEF726FD0022042121
:101DC0001720FEF7B1FF1720FEF7A0FF0022042125
:101DD0002820FEF7A9FF2820FEF798FF05B0BDE8F0
:101DE000F08F000000100240001001400008014088
:101DF000000C0140001401400000211000003110CF
:101E0000000011100D4810B50B4901600C494160EC
:101E100000214FF480428160C0E903124161816179
:101E2000C1610162FEF7F8FD002803D0BDE8104053
:101E3000FEF710BA10BD00000054004084000020DE
:101E4000A0860100094810B50749016004214160DE
:101E500040F635418160FEF7D1FE002803D0BDE891
:101E60001040FEF7F7B910BD00300040D800002048
:101E7000104810B50E4901604FF482714160002195
:101E80008160C1604FF400720161C0E9051218223F
:101E9000C0E90721416281620A21C162FFF758FA55
:101EA000002803D0BDE81040FEF7D4B910BD0000F3
:101EB00000380040E400002010B58EB000240794E4
:101EC000089409940A940B941C2168460C94FEF71C
:101ED00054F91F481D4901602321C0E90114632101
:101EE000C0E9031480218161FFF718FB08B1FEF7F8
:101EF000B1F94FF48050079007A91548FFF750FB40
:101F000008B1FEF7A7F91248FFF744FC08B1FEF745
:101F1000A1F90B940BA90E480C94FFF7C1FA08B174
:101F2000FEF798F9602000903220CDE901040022EC
:101F3000694607480494FFF7C7FB08B1FEF78AF922
:101F40000348FFF79BFB0EB010BD000000040040EB
:101F50003C0100200C4810B50A4901604FF41651AD
:101F60004160002181600C22C160C0E904128161DE
:101F7000C161FFF775FD002803D0BDE81040FEF7F2
:101F800069B910BD00380140840100200C4810B52B
:101F90000A4901604FF4E1314160002181600C2267
:101FA000C160C0E904128161C161FFF759FD0028D9
:101FB00003D0BDE81040FEF74DB910BD0048004009
:101FC000CC010020FEE7FEE770477047FEF746BEF3
:101FD00030B595B028216846FEF7CFF814210AA83D
:101FE000FEF7CBF818210FA8FEF7C7F8092001214A
:101FF00000904FF48030002504910691CDE9010551
:102000000224CDE907404FF4E01009906846FFF73D
:102010000FF808B172B6FEE70AA90F2081E8310077
:102020004FF48060CDE90D0502210AA8FEF724FFD8
:1020300008B172B6FEE74FF4004011900F940FA85C
:10204000FEF7A4FE002801D072B6FEE715B030BD41
:1020500070470000F0B50268204C214D214E224F00
:10206000224B4FF0804CA04209D0984207D06045E7
:1020700005D0A84203D0B04201D0B84204D122F02A
:10208000700E4A6842EA0E02A04209D0984207D078
:10209000604505D0A84203D0B04201D0B84203D178
:1020A00022F44075CA682A434D6922F080022A430F
:1020B00002608A68C2620A688262A04201D09842C5
:1020C00001D109690163012141610169C90703D097
:1020D000016921F001010161F0BD0000002C014007
:1020E0000004004000080040000C004000340140A3
:1020F00010B5846842EA032224F47F440A43224351
:10210000826010BD826822F070020A4342F007012B
:1021100081607047F0B5036A026A22F00102026230
:1021200042688469124E24F073050C682C4323F036
:1021300002058B682B430D4DA84201D0B04205D15A
:1021400023F00807CB683B4323F00403A84201D0E7
:10215000B04205D14D6922F4407215438A692A4381
:1021600042608461496841630362F0BD002C014014
:1021700000340140F0B5026A036A23F010030362E1
:10218000436884690D6824F4E64444EA05248D68B4
:1021900022F0200242EA05120F4D104EA84201D053
:1021A000B04206D1CF6822F0800242EA071222F044
:1021B0004002A84201D0B04207D14D6923F44063E8
:1021C00043EA85038D6943EA850343608461496876
:1021D00081630262F0BD0000002C01400034014028
:1021E000F0B5026A036A23F4807303624368C4692A
:1021F00022F4007224F073050C68124E2C438D6893
:1022000042EA05220E4DA84201D0B04206D1CF6865
:1022100022F4006242EA072222F48062A84201D03E
:10222000B04207D14D6923F4405343EA05138D6949
:1022300043EA05134360C4614968C1630262F0BDAB
:10224000002C01400034014030B5046A026A22F4D7
:10225000805202624268C3690D6823F4E64343EA90
:1022600005238D6824F4005444EA0534084DA8423F
:1022700002D0084DA84204D14D6922F4804242EABE
:1022800085124260C36149680164046230BD000088
:10229000002C01400034014010B5036A046A24F0A8
:1022A00001040462846924F0F00444EA021423F077
:1022B0000A020A438461026210BD10B5036A046A0F
:1022C00024F010040462846923F0A00324F4704411
:1022D00044EA023243EA01118261016210BD10B585
:1022E000406A0021C185C184FFF783FA10BD0168EF
:1022F0000C3151E8002F22F4907241E80023002BAA
:10230000F5D10168143151E8002F22F0010241E8B3
:102310000023002BF5D1016B012909D101680C3193
:1023200051E8002F22F0100241E80023002BF5D1E4
:10233000202180F8421000210163704708B590F811
:102340004210222901D0022008BD82684FF4805338
:102350009A4201D1016921B1816A9A421BD04AB1E6
:102360000AE00268816A5268C2F308020A80816A40
:10237000891C08E0026972B10268526802F07F02AB
:102380000A70816A491C8162C18D491E0904090CC9
:10239000C18503D01BE002685268F1E70168CA6892
:1023A00022F02002CA600168CA6822F48072CA6002
:1023B00001684A6922F001024A61202180F8421036
:1023C00000214163026B012A03D0FFF7EDFB0020DF
:1023D00008BD016301680C3151E8002F22F01002A2
:1023E00041E80023002BF5D101680A68D20602D526
:1023F0000A6849680091818DFFF7FAF9E7E7000064
:1024000070B5044600680169E26821F44051114347
:1024100001612169A0680843616908432168CA68AD
:1024200041F20C639A430243CA6020684169A26981
:1024300021F44071114341611E492068884202D154
:10244000FEF7C0FD01E0FEF7ADFD00EBC00101EBC2
:102450000012606864218000B2FBF0F3B3FBF1F37B
:102460006FF018067343B2FBF0F5B2FBF0F605EB24
:102470008305322303EB0515B5FBF1F5B6FBF1F649
:1024800005F0F00505EB0615B2FBF0F6B2FBF0F037
:10249000B0FBF1F06FF01802504306EB800003EB45
:1024A0000010B0FBF1F0216800F00F0028448860B4
:1024B00070BD0000003801400148FFF79BB90000E3
:1024C000CC010020FEE70907090E002804DB00F11B
:1024D000E02080F80014704700F00F0000F1E020C9
:1024E00080F8141D704702E008C8121F08C1002AB6
:1024F000FAD170477047002001E001C1121F002A85
:10250000FBD17047FEF7B2FBFFF762FDFFF79AFBC6
:10251000FFF78AFBFFF74CFBFFF774FCFFF792FC19
:10252000FFF7A6FCFFF7C8FCFFF714FDFFF72EFD31
:10253000FEE7010202030405060708090A0B0C0D59
:102540000E0F101000000000000000000102030444
:102550000607080900000000010203047C250008AA
:102560000000002010000000E62400088C25000870
:102570001000002008060000F624000801000000FA
:0C258000100000000000000000127A00B3
:0400000508000131BD
:00000001FF
